:100000000C9460020C947D020C947D020C947D0291
:100010000C943B250C947D020C947D020C94D4220C
:100020000C94DE220C947D020C94C3220C947D026D
:100030000C947D020C9475250C94AB250C947D02D8
:100040000C94711E0C947D020C947D020C947D0224
:100050000C947D02084AD73B3BCE016E84BCBFFDA9
:10006000C12F3D6C74319ABD56833DDA3D00C77F88
:1000700011BED9E4BB4C3E916BAAAABE0000008021
:100080003F05A84CCDB2D44EB93836A9020C50B9B0
:10009000918688083CA6AAAA2ABE000000803F06D6
:1000A00064EC1B3C04BC163E3BE5B93CC93C37C282
:1000B0009E5A3D660498083EEA69AAAA3E000000DE
:1000C000803F64656C74613A202564006D6F7573C0
:1000D0006553656E73523A202564006D6F757365C4
:1000E00053656E734C3A202564007374616E64200E
:1000F0007374696C6C006472697665007475726EF5
:10010000207269676874007475726E206C6566741D
:100110000053756D3A202564004C69676874706FF0
:10012000733A20256400523A2564204C3A20256415
:1001300000446973744C3D2564004C696E6B736BAD
:1001400075727665200044697374523D25640052CF
:1001500065636874736B7572766500446973744C7B
:100160003D2564202049523D25356400446973745F
:10017000523D2564202049523D2535640041636885
:1001800074210047657474696E6720617761792E08
:100190002E2E005475726E696E67207269676874DE
:1001A0002E2E2E005475726E696E67206C65667413
:1001B0002E2E2E004C203D2025640052203D20256F
:1001C00064004B616B65726C616B6500466F6C6CB3
:1001D0006F77696E672E2E2E005475726E696E678A
:1001E0002072696768742E2E2E005475726E696EC7
:1001F00067206C6566742E2E2E004C203D202564F1
:100200000052203D202564004D6F7474650020204D
:1002100020202020202020202020202020202020DE
:100220002020002573002573002573004552524F8E
:10023000523A00426F7420697320536C61766500F6
:1002400023206F6620536C617665733A2025640025
:10025000426F74206973204D6173746572004F752D
:1002600074206F66204D656D6F7279004572726FF4
:10027000723A00423A25642F256420443A25642FBF
:10028000256400256400626973207A7572204D65CB
:100290007373756E67006E6F63682020202053654E
:1002A0006B756E64656E00496E6974204461726B93
:1002B0006E65737300256400626973207A7572201D
:1002C0004D657373756E67006E6F63682020202024
:1002D00053656B756E64656E00496E697420427279
:1002E000696768746E657373004E4F572E2E2E49E2
:1002F0002054414B45204120425245414B0049206A
:10030000464F554E4420544845204441524B4E459B
:100310005353004920464F554E4420544845204CE5
:1003200049474854002530336400426F7264657257
:100330002020204C3D20202020523D202020002540
:10034000303364004C696E6520202020204C3D2015
:10035000202020523D2020200025303364004C69AD
:10036000676874202020204C3D20202020523D2012
:10037000202000253033640044697374616E636526
:10038000204C3D20202020523D20202000494E437B
:100390003A2053454E534F522044415441004F554B
:1003A00054205B253032695D3A2053454E5320443A
:1003B00041544100554E444546494E4544004D4147
:1003C0005354455200534C415645005B2530326929
:1003D0005D3A20004A756E692032303039004D6137
:1003E000737465722D536C6176652050726F6A6507
:1003F0006B74004D6F62696C6520526F626F74653B
:10040000722057504600544E4B3A20496D20616C83
:1004100072647920536C61766500544E4B3A2049E2
:10042000276D206120536C61766500494E433A2068
:100430004D617374657220666F756E6400544E4B27
:100440003A2049276D206120536C617665004F5535
:10045000543A2049276D20746865204D6173746596
:100460007200544E4B3A204E6F206F6E653F20490C
:10047000276C6C20646F004F55543A20416E73779F
:10048000657220746F202530336900544E4B3A203A
:1004900049276D20746865204D6173746572210071
:1004A000494E433A204D61737465723F0053756342
:1004B0006865204D61737465720053454E443A007F
:1004C00011241FBECFE5D8E0DEBFCDBF10E0A0E60F
:1004D000B0E0E8E9F1E602C005900D92AA37B10755
:1004E000D9F712E0AAE7B0E001C01D92A338B10726
:1004F000E1F70E941C0A0C94CA300C94000020E022
:1005000030E0861B970B97FF03C0909581959F4F16
:100510004817590714F021E030E0C901089580918F
:10052000EB018B3040F00E945909882321F40E948E
:1005300024089C0102C020E030E0C90108950E9417
:100540008F02FC01009719F420E030E004C08281A2
:100550008F77282F30E0C9010895EF92FF920F9313
:100560001F93CF93DF937C01162F072F8BEE91E023
:10057000F70143810E949A21C82FD0E009C04C1B8B
:100580008BEE91E0612F702F0E949A21C80FD11D30
:10059000F7014381842F90E0C817D90784F3812F96
:1005A000902FDF91CF911F910F91FF90EF900895C1
:1005B000CF93DF930E94AA2081E061E00E94802017
:1005C00000D000D08BED90E0EDB7FEB79283818331
:1005D0008091BC009091BD00948383830E940A2087
:1005E0000F900F900F900F9082E061E00E948020AA
:1005F00000D000D08CEC90E0EDB7FEB79283818301
:100600008091BE009091BF00948383830E940A2052
:10061000C091BC00D091BD008091BE009091BF0000
:10062000C81BD90B0F900F900F900F9083E061E0E3
:100630000E94802000D000D082EC90E0EDB7FEB7A1
:1006400092838183D483C3830E940A200F900F90EA
:100650000F900F90FEEFC43DDF072CF488EC90E084
:1006600068E37FEF1AC0CD52D1401CF088E39FEFC2
:1006700012C08091BE009091BF002091BC003091CB
:10068000BD00820F931F843691051CF480E090E03A
:1006900002C088EC90E068EC70E00E945512DF9197
:1006A000CF9108950F931F93CF93DF938C010E94F6
:1006B000AA20C091B400D091B5008091B200909171
:1006C000B300C81BD90B82E061E00E94802000D0FB
:1006D00000D000D0EDB7FEB7319686E291E0ADB71D
:1006E000BEB712969C938E9311978091B40090910F
:1006F000B500938382838091B2009091B30095837B
:1007000084830E940A20EDB7FEB736960FB6F894A0
:10071000FEBF0FBEEDBF83E061E00E94802000D0ED
:1007200000D089E191E0ADB7BEB712969C938E934D
:1007300011971496DC93CE9313970E940A200F9082
:100740000F900F900F9084E061E00E94802000D015
:1007500000D081E191E0EDB7FEB792838183809173
:10076000B4009091B5002091B2003091B300820F97
:10077000931F948383830E940A200F900F900F9001
:100780000F9081E061E00E948020C135D10594F096
:1007900000D087E091E0ADB7BEB712969C938E93E0
:1007A00011970E940A200F900F9084ED9EEF6CE24B
:1007B00071E047C0C05BDF4F84F400D08CEF90E065
:1007C000EDB7FEB7928381830E940A200F900F90AD
:1007D0008CE291E064ED7EEF34C08091B4009091A2
:1007E000B5002091B2003091B300820F931F8C525C
:1007F0009140C4F400D086EF90E0ADB7BEB712963A
:100800009C938E9311970E940A208CE291E0089F9E
:10081000B001099F700D189F700D11240F900F905B
:10082000CB010FC000D08AEE90E0EDB7FEB7928307
:1008300081830E940A200F900F9080E090E060E09A
:1008400070E00E945512DF91CF911F910F91089592
:10085000EF92FF920F931F93CF93DF930E94372263
:10086000182F092F0E94AA2000D08DE791E0ADB784
:10087000BEB712969C938E9311970E940A200F90F8
:100880000F9082E061E00E94802000D000D000D074
:10089000EDB7FEB731968CE691E0ADB7BEB71296D4
:1008A0009C938E9311978091620090916300938343
:1008B0008283148305830E940A20EDB7FEB7369623
:1008C0000FB6F894FEBF0FBEEDBF83E061E00E945B
:1008D000802000D000D000D0EDB7FEB731968BE578
:1008E00091E0ADB7BEB712969C938E93119780910D
:1008F00060009091610093838283148305830E943A
:100900000A20EDB7FEB736960FB6F894FEBF0FBEBD
:10091000EDBF84E061E00E94802000D08FE491E090
:10092000ADB7BEB712969C938E9311970E940A2082
:10093000C0E0D0E00F900F9096E4E92E91E0F92E00
:1009400070C08CE291E060E070E00E9455120E945D
:100950003722B0E286319B07A1F1E0E287319E07A2
:1009600064F4F0E281319F0711F120E285319207B2
:1009700071F180519042A1F514C0B8E281319B071A
:10098000B1F0E8E282319E0724F48051984241F5AB
:1009900008C028E285319207D1F08651984201F5CE
:1009A00010C08091620090916300019605C0809113
:1009B00062009091630001979093630080936200BE
:1009C0000FC08091600090916100019605C08091F8
:1009D00060009091610001979093610080936000A6
:1009E00082E061E00E94802000D000D0EDB7FEB729
:1009F000F282E1828091620090916300948383830C
:100A00000E940A200F5F1F4F0F900F900F900F90C2
:100A10008091620090916300081719070CF491CF40
:100A200021968091620090916300C817D9071CF449
:100A300000E010E0EDCF84E061E00E94802000D073
:100A40008AE391E0ADB7BEB712969C938E9311974F
:100A50000E940A20C0E0D0E00F900F9081E3E82EC2
:100A600081E0F82E70C080E090E06CE271E00E94BE
:100A700055120E943722B0E286319B07A1F1E0E2D5
:100A800087319E0764F4F0E281319F0711F120E283
:100A90008531920771F180519042A1F514C0B8E2FE
:100AA00081319B07B1F0E8E282319E0724F4805146
:100AB000984241F508C028E285319207D1F086516D
:100AC000984201F510C080916200909163000196F8
:100AD00005C080916200909163000197909363003C
:100AE000809362000FC08091600090916100019638
:100AF00005C0809160009091610001979093610022
:100B00008093600083E061E00E94802000D000D0EC
:100B1000EDB7FEB7F282E1828091600090916100B2
:100B2000948383830E940A200F5F1F4F0F900F90C2
:100B30000F900F9080916000909161000817190745
:100B40000CF491CF21968091600090916100C817BC
:100B5000D9071CF400E010E0EDCFDF91CF911F9199
:100B60000F91FF90EF900895CF92DF92EF92FF9256
:100B70000F931F93CF93DF930E94D3130E94AA2059
:100B800000D082EC91E0EDB7FEB7928381830E94A2
:100B90000A200F900F9082E061E00E94802000D038
:100BA00000D08BEB91E0EDB7FEB79283818380910B
:100BB000B4009091B500948383830E940A200F9023
:100BC0000F900F900F9083E061E00E94802000D092
:100BD00000D084EB91E0EDB7FEB7928381838091E2
:100BE000B2009091B300948383830E940A200F90F7
:100BF0000F900F900F902091B4003091B50080912C
:100C0000B2009091B300281739072CF0C0E0D0E073
:100C100003E911E054C0C0E0D0E004EA11E020C0D4
:100C2000880F991F281739072CF48AE69FEF66E989
:100C300070E004C08AEB9FEF64E670E00E945512FA
:100C4000219684E061E00E94802000D0EDB7FEB7DD
:100C5000128301830E940A200F900F900E94D313E9
:100C60002091B4003091B5008091B2009091B30012
:100C70002817390794F5C431D10591F62EC0880F95
:100C8000991F281739072CF486E990E06AE67FEF70
:100C900004C084E690E06AEB7FEF0E945512219633
:100CA00084E061E00E94802000D0EDB7FEB712839F
:100CB00001830E940A200F900F900E94D31380910D
:100CC000B4009091B5002091B2003091B300281784
:100CD00039071CF4C431D10591F6C0E0D0E023E817
:100CE000C22E21E0D22E29C00E94D31384E061E0FD
:100CF0000E9480208091B4009091B50080179107E8
:100D000064F48091B2009091B3008E159F052CF48D
:100D10008CE99FEF6CE97FEF04C084E690E064E625
:100D200070E00E945512219600D0EDB7FEB7D28236
:100D3000C1820E940A200F900F900091B400109180
:100D4000B500E090B200F090B300C8018E199F0981
:100D500097FF03C0909581959F4F06971CF4C83765
:100D6000D10511F6DF91CF911F910F91FF90EF9078
:100D7000DF90CF9008950F931F93CF93DF930E943E
:100D8000D3130E94AA2000D088E092E0EDB7FEB70E
:100D9000928381830E940A200F900F9082E061E08D
:100DA0000E94802000D000D081E092E0EDB7FEB735
:100DB000928381838091B4009091B5009483838362
:100DC0000E940A200F900F900F900F9083E061E037
:100DD0000E94802000D000D08AEF91E0EDB7FEB7EE
:100DE000928381838091B2009091B3009483838336
:100DF0000E940A20C0E0D0E00F900F900F900F905B
:100E00000AEE11E020C0880F991F821793072CF477
:100E10008AE69FEF66E970E004C08AEB9FEF64E624
:100E200070E00E945512219684E061E00E948020CB
:100E300000D0EDB7FEB7128301830E940A200F9005
:100E40000F900E94D3132091B4003091B50080918F
:100E5000B2009091B300821793072CF5C431D105ED
:100E600091F621C0880F991F821793072CF486E909
:100E700090E06AE67FEF04C084E690E06AEB7FEFE3
:100E80000E945512219684E061E00E94802000D0EB
:100E9000EDB7FEB7128301830E940A200F900F90D6
:100EA0000E94D31304C0C0E0D0E009ED11E08091AE
:100EB000B4009091B5002091B2003091B300821738
:100EC0009307DCF4C431D10569F617C0219684E696
:100ED00090E064E670E00E94551284E061E00E94B8
:100EE000802000D0EDB7FEB7128301830E940A2054
:100EF0000F900F900E94D31304C0C0E0D0E00CEC20
:100F000011E02091B4003091B5008091B200909131
:100F1000B300281B390B37FF03C0309521953F4F95
:100F2000233031051CF4C837D10581F6DF91CF910C
:100F30001F910F9108950E948F02FC01009721F4E8
:100F40008181833209F046C082818F7790E08430BE
:100F5000910541F1853091054CF482309105C1F045
:100F600083309105C4F40197A9F50DC08630910531
:100F7000F9F086309105CCF087309105E1F08D369F
:100F8000910541F51BC010927B0010927A0022C09F
:100F900081E090E002C082E090E090937B0080933B
:100FA0007A0018C083E090E0F8CF84E090E0F5CFBD
:100FB00085E090E0F2CF86E090E0EFCF87E090E030
:100FC00090937B0080937A006681778184819581FC
:100FD0000E94551280917A0090917B008330910598
:100FE00021F18430910530F48130910561F0029750
:100FF00068F411C085309105F1F085309105C0F09D
:101000000697D9F40FC081E090E002C08FEF9FEF08
:101010000E945203089580E090E060E070E00E943A
:10102000551208950E94D80208950E94BB060895A3
:101030000E94B40508950E942804089580936A00D0
:10104000089580916A00089589E991E0089580915A
:10105000690008958093690008958091680008955B
:101060008093680008950F93DF93CF93CDB7DEB7D9
:101070002B970FB6F894DEBF0FBECDBFFA01D90192
:101080009EE399838A836F776B830C8341155105A7
:1010900029F0808191819E838D8302C01E821D82F2
:1010A000109729F08D919C9198878F8302C01886A4
:1010B0001F8280916600909167009A8789870196C8
:1010C00090936700809366008CE38B87CE01019636
:1010D0006BE00E94E2252B960FB6F894DEBF0FBEA0
:1010E000CDBFCF91DF910F9108958F929F92AF92D4
:1010F000BF92CF92DF92EF92FF920F931F93DF93F5
:10110000CF9300D00F92CDB7DEB70E94662321E0C7
:10111000E22EF12C92E0C92ED12CCC0EDD1E4E0118
:101120000894811C911C80E1A82E8EE0B82EFB82D1
:10113000EA8280E56EE4A601960106E30E94330888
:1011400000E010E00E9426238983C40161E00E9430
:10115000E225C5010197F1F70F5F1F4F0633110517
:1011600089F786E390E0E80EF91E95E4E91691E030
:10117000F906E9F60F900F900F90CF91DF911F9134
:101180000F91FF90EF90DF90CF90BF90AF909F9026
:101190008F9008950F9380919A018735C1F188351A
:1011A00028F48035F1F1823539F412C0873759F0CF
:1011B000893721F08C3631F180E036C089E991E041
:1011C0000E94901930C089E991E00E94B91B2BC0A0
:1011D00020919D0130919E014091640050916500E5
:1011E00040705870CA01822B932B909365018093B5
:1011F0006401232BC1F040955095509365004093B6
:10120000640011C080919D010E9444220CC087E5BA
:1012100062E540E050E020E030E000E00E9433086A
:1012200002C00E94750881E00F910895EF92FF922D
:101230000F931F93102F0E943308C701612F0E9444
:10124000E2251F910F91FF90EF9008950F931F9348
:10125000CF93DF93E8010115110511F410E00EC0E2
:10126000D8010D900020E9F71197A01BB10BAF3FFB
:10127000B10519F010F01FEF01C01A2F012F0E94C5
:101280003308CE01612F0E94E225DF91CF911F919B
:101290000F91089561E00E94802000D08EE092E0DE
:1012A000EDB7FEB7928381830E940A200F900F90C2
:1012B0000895AF92BF92CF92DF92EF92FF920F9379
:1012C0001F93DF93CF93CDB7DEB768970FB6F8942F
:1012D000DEBF0FBECDBF1B828E010D5F1F4F8BEE99
:1012E00091E0B8014BE00E949A21482FF82EF801B6
:1012F00020E001C02F5F24171CF481918E33D1F7B9
:10130000022F112707FD1095BE016D5F7F4FFB0176
:10131000E00FF11F80818E3309F047C086E190E035
:10132000801B910B0B9708F440C0822F841B482F21
:10133000465F14163CF58091AB019091AC019A8305
:1013400089835E010894A11CB11C6B013BE0E32E74
:10135000E20E8091AB01F5019081891B893328F55C
:101360006F2D772767FD70956C0D7D1D8BEE91E0DD
:101370000E949A21682F6F0D4E2D461B141614F4EF
:10138000F62EE7CFFE013396E00FF11F82858C33F6
:1013900061F4DF01E9E9F1E002C08D91819381E020
:1013A000E43AF807D1F780E001C08FEF68960FB6F6
:1013B000F894DEBF0FBECDBFCF91DF911F910F918B
:1013C000FF90EF90DF90CF90BF90AF9008951BBA41
:1013D0001ABA18BA17BA15BA14BA12BA11BA88E1F9
:1013E0000FB6F89481BD11BC0FBE0E94312504B622
:1013F00000FE09C084B78E7F84BF84E690E00E941F
:10140000B71F0C94000084E690E00E94B71F0E9472
:1014100008260E94E41E0E94B9200E945E220E94BB
:1014200052120E94E6240E9490270E9441220E94AC
:1014300072230E94FF1C08950E94E7090E94E7237F
:101440000E949B07FBCFCF92DF92EF92FF920F9308
:101450001F938C017B016A010E94AA2081E061E058
:101460000E94802000D08CE292E0EDB7FEB792831C
:1014700081830E940A200F900F9082E061E00E9419
:10148000802000D000D089E292E0EDB7FEB79283D1
:101490008183148303830E940A200F900F900F9082
:1014A0000F9082E062E00E94802000D000D086E2AF
:1014B00092E0EDB7FEB792838183F482E3820E94CB
:1014C0000A200F900F900F900F9082E063E00E942F
:1014D000802000D000D083E292E0EDB7FEB7928387
:1014E0008183D482C3820E940A200F900F900F90B4
:1014F0000F90FFCF0F93DF93CF93CDB7DEB72B972E
:101500000FB6F894DEBF0FBECDBF0F77802F90E0EF
:101510008430910519F0059739F404C081E0809377
:10152000850002C0109285002B960FB6F894DEBF9E
:101530000FBECDBFCF91DF910F910895880F991FF6
:10154000E0919600F0919700E80FF91F2FEF3FEF21
:1015500031832083E0919800F0919900E80FF91F02
:1015600031832083E0919A00F0919B00E80FF91FEE
:101570003183208308950F931F93CF93DF938C01C2
:10158000EB01509195006091960070919700A091A9
:101590009800B091990040E020E030E016C0FB01D7
:1015A000E20FF31F808191818017910759F4FD01AB
:1015B000E20FF31F808191818C179D0719F4242F6E
:1015C00030E007C04F5F2E5F3F4F451740F32FEFCE
:1015D0003FEFC901DF91CF911F910F910895EF92D5
:1015E000FF920F931F93CF93DF9370919500E0903C
:1015F0009800F0909900C0919600D0919700A0912A
:101600009A00B0919B0060E040E050E020E030E0C4
:101610000FEF1FEF2AC08D919C91119797FF18C073
:10162000888199818F5F9F4F41F4F701E20FF31F8B
:10163000808191818F5F9F4F99F019830883F70113
:10164000E20FF31F1183008311961C930E9308C0C1
:101650004F5F5F4F662321F0019711969C938E9305
:101660006F5F22962E5F3F4F12966717A0F2CA0156
:10167000DF91CF911F910F91FF90EF90089580918E
:101680009400089580918E0090918F00089580912C
:101690008E0090918F008053984F9093910080938B
:1016A000900081E080939400089582E390E090930D
:1016B000910080939000109294000895909391006F
:1016C00080939000089580919000909191000895EA
:1016D0008091900090919100019790939100809358
:1016E00090000895909393008093920008958091C4
:1016F00092009091930008958091920090919300B0
:10170000019790939300809392000895DF93CF9375
:10171000CDB7DEB766970FB6F894DEBF0FBECDBF6C
:101720008091EB01882399F10E945909882379F56A
:10173000DE011196E9E9F1E08BE001900D92815014
:10174000E1F72A8120FF3BC080918E0090918F00AD
:101750008053984F9093910080939000DE011C96E7
:10176000FE0131968BE001900D928150E1F78E855C
:101770008F7790E08430910519F0059701F504C04A
:1017800081E0809385001BC01092850018C0809175
:10179000900090919100009749F482E390E090933B
:1017A0009100809390001092940009C0019790934B
:1017B00091008093900085E090E00E94B71F6696AC
:1017C0000FB6F894DEBF0FBECDBFCF91DF91089565
:1017D0000F93682F8091920090919300009711F0E1
:1017E00001970EC04091960050919700209198006B
:1017F0003091990082E000E00E94330888EE93E087
:1018000090939300809392000F9108950F9380918D
:10181000900090919100009711F001970BC081E02A
:1018200060E040E050E020E030E000E00E9433085B
:1018300082E390E090939100809390000F9108953F
:101840000F9380918500823011F064E001C065E063
:101850008091880090918900892B71F481E040E0AB
:1018600050E020E030E000E00E9433088AEF90E092
:1018700090938900809388008091880090918900DE
:10188000019790938900809388000F9108950E949A
:10189000E7238091B4009091B5002091B20030917F
:1018A000B300820F931F65EE73E00E945E30909349
:1018B0008F0080938E0008950E94E7238091B400EA
:1018C0009091B5002091B2003091B300820F931F28
:1018D00025EE33E0AC01429FC001439F900D529F23
:1018E000900D11246FEF7FE70E945E3008950F93F3
:1018F0001F93CF93DF9380E090E060E070E00E9460
:1019000055120E94470C85E0809395008AE090E094
:101910000E946C2880939600909397008091950088
:1019200090E0880F991F0E946C28809398009093F4
:1019300099008091950090E0880F991F0E946C2873
:1019400080939A0090939B000091960010919700CD
:101950000E945C0CF801918380838AE090E00E94F1
:10196000B71F00919800109199000E945C0CF8013B
:1019700091838083A0919A00B0919B0081E090E0D8
:1019800011969C938E9380919500082F10E0C09142
:101990009600D0919700809198009091990040E036
:1019A00050E020E030E06FEF7FEF0FC0FE01E20F6C
:1019B000F31F71836083FC01E20FF31F7183608367
:1019C000FD01E20FF31F718360834F5F5F4F2E5F56
:1019D0003F4F4017510754F3DF91CF911F910F9163
:1019E0000895CF92DF92EF92FF921F93CF93DF93F0
:1019F0007C016B0160919500A0919600B0919700D9
:101A0000C0919800D091990040E020E030E018C0EB
:101A1000FD01E20FF31F808191818E159F0569F40E
:101A2000FE01E20FF31F808191818C159D0529F441
:101A3000842F90E0880F991F7AC04F5F2E5F3F4F31
:101A4000461730F340E020E030E015C0FD01E20F22
:101A5000F31F808191818F5F9F4F51F4FE01E20F50
:101A6000F31F808191818F5F9F4F11F4842F4CC0B1
:101A70004F5F2E5F3F4F461748F36BC08091980031
:101A800090919900009709F50E94AA2081E061E0F9
:101A90000E94802000D08CE692E0EDB7FEB79283E2
:101AA00081830E940A200F900F9082E061E00E94E3
:101AB000802000D08EE592E0EDB7FEB7928381835F
:101AC0000E940A200F900F90FFCF50919500152F84
:101AD0001550452F44506FEF7FEF13C0E42FF0E017
:101AE000EE0FFF1FDE01AE0FBF1F6D937C93DC0175
:101AF000AE0FBF1F6D937C93E20FF31F7183608362
:101B00004F5F451758F3812F90E0880F991FE091A0
:101B10009600F0919700E80FF91FF182E082E091C2
:101B20009800F0919900E80FF91FD182C082E091EE
:101B30009A00F0919B00E80FF91F81E090E09183FB
:101B40008083DF91CF911F91FF90EF90DF90CF9036
:101B500008956B5F6093950070E0660F771FCD016D
:101B60000E94712980939600909397006091950050
:101B700070E0660F771F80919800909199000E9405
:101B8000712980939800909399006091950070E07E
:101B9000660F771F80919A0090919B000E94712997
:101BA0009C0190939B0080939A00C0919600D091E5
:101BB0009700209709F062CF67CFEF92FF920F93C3
:101BC0001F93DF93CF93CDB7DEB72B970FB6F89463
:101BD000DEBF0FBECDBFE982FA82902F0B831C833C
:101BE0002D833E834F83588769877A878B874D8102
:101BF0005E816F8178859F77292F30E02130310514
:101C000021F02830310541F404C0CA010E94F10CD2
:101C100003C082E0809385002B960FB6F894DEBF58
:101C20000FBECDBFCF91DF911F910F91FF90EF902D
:101C30000895EF92FF920F931F93DF93CF93CDB749
:101C4000DEB72B970FB6F894DEBF0FBECDBF8091E5
:101C5000EB01882349F10E945909882329F5DE0107
:101C60001196E9E9F1E08BE001900D928150E1F7E6
:101C7000FA80F0FC26C0F1FE24C080918E00909185
:101C80008F0088519C4F9093930080939200E9803D
:101C90000B811C812D813E814F81588569857A8514
:101CA0008B850E94DD0D0DC0809192009091930074
:101CB0000197909393008093920085E090E00E94BA
:101CC000B71F2B960FB6F894DEBF0FBECDBFCF91D6
:101CD000DF911F910F91FF90EF9008950E94420FA6
:101CE00080918500813031F480E090E060E070E028
:101CF0000E94C110089582E090E00E944A0982E0AB
:101D000061E00E94802000D083E392E0EDB7FEB74F
:101D1000928381830E940A200F900F9008C081E077
:101D200090E00E94E80B0E94860B0E946E0E80914C
:101D300094008130A1F30E94B00E08950E94770CA8
:101D400080918E0090918F008053984F90939100D6
:101D50008093900081E0809394000E947B0E089510
:101D6000EF92FF920F931F93CF93DF9380E090E069
:101D700060E070E00E94551282E090E00E944A0903
:101D800082E061E00E94802000D080E592E0EDB723
:101D9000FEB7928381830E940A200F900F9000E487
:101DA000E02E02E0F02EC0EDD7E038C00E94060C15
:101DB0000E94190E80919400882381F580917F0004
:101DC00090918000892BF9F40E94EF0A8C0183E046
:101DD00090E00E944A0983E061E00E94802000D0E8
:101DE00000D0EDB7FEB7F282E182015010401483BB
:101DF00003830E940A20D0938000C0937F000F903D
:101E00000F900F900F9080917F009091800001972C
:101E10009093800080937F000E94200C809194001A
:101E2000882321F20E947B0EDF91CF911F910F91A9
:101E3000FF90EF9008958FE090E090939E00809344
:101E40009D009B0177FF03C0309521953F4F35954D
:101E50002795B901882777FD8095982F0E941E2E1F
:101E600026E636E646E65FE30E94372F0E94EB2D1A
:101E70007093A00060939F0080919C008760809386
:101E80009C0008950F931F93CF93DF938091A5003B
:101E9000882309F006C10E94AA2081E061E00E9427
:101EA000802000D089ED92E0ADB7BEB712969C932A
:101EB0008E9311970E940A200F900F9082E061E0AC
:101EC0000E94802000D088EC92E0EDB7FEB79283AC
:101ED00081830E940A200F900F9083E061E00E94AE
:101EE000802000D088EB92E0ADB7BEB712969C93ED
:101EF0008E9311970E940A20C5E0D0E00F900F90BA
:101F000005EB12E082E066E00E94802000D000D065
:101F1000EDB7FEB712830183D483C3830E940A20E6
:101F20000F900F900F900F9088EE93E00E94B71FD4
:101F30002197FFEFCF3FDF0729F70E94E72380912A
:101F4000B2009091B3009093A7008093A600809177
:101F5000B4009091B5009093A9008093A8000E94CE
:101F6000AA2081E061E00E94802000D087EA92E010
:101F7000ADB7BEB712969C938E9311970E940A201C
:101F80000F900F9082E061E00E94802000D086E9EF
:101F900092E0EDB7FEB7928381830E940A200F90F2
:101FA0000F9083E061E00E94802000D086E892E0FC
:101FB000ADB7BEB712969C938E9311970E940A20DC
:101FC000C5E0D0E00F900F9003E812E082E066E0F9
:101FD0000E94802000D000D0EDB7FEB712830183AD
:101FE000D483C3830E940A200F900F900F900F900C
:101FF00088EE93E00E94B71F2197FFEFCF3FDF07E6
:1020000029F70E94E7238091B2009091B30090934A
:10201000AB008093AA008091B4009091B50090939A
:10202000AD008093AC000E94AA2081E061E00E9494
:1020300080208DB79EB70A970FB6F8949EBF0FBE4B
:102040008DBFEDB7FEB7319683E792E0ADB7BEB76F
:1020500012969C938E9311978091A6009091A70061
:10206000938382838091A8009091A90095838483B3
:102070008091AA009091AB00978386838091AC00F9
:102080009091AD00918780870E940A2081E0809323
:10209000A500EDB7FEB73A960FB6F894FEBF0FBE97
:1020A000EDBFDF91CF911F910F91089583E090E0F4
:1020B0000E944A0983E061E00E94802000D08EEFF8
:1020C00092E0EDB7FEB7928381830E940A200F90C1
:1020D0000F9089E090E00E94E80B84E090E00E947D
:1020E0004A0984E061E00E94802000D089EE92E0FD
:1020F000EDB7FEB7928381830E940A200F900F9064
:1021000080ED97E00E94B71F83E090E00E944A09AB
:1021100084E090E00E944A090895CF93DF9380E025
:1021200090E060E070E00E94551283E090E00E9431
:102130004A0983E061E00E94802000D083E193E0BF
:10214000EDB7FEB7928381830E940A20C0E0D0E001
:102150000F900F9088E090E00E94E80B8AE090E0FA
:102160000E94B71F2196C931D105A1F783E090E005
:102170000E944A0984E090E00E944A09DF91CF91D1
:1021800008959C0180919C0080FD03C0C9010E94BC
:102190001B0F0E94E72380919C00992787FD909553
:1021A0004091B4005091B5002091B2003091B3003D
:1021B000BC016470707082FF04C0CA01821B930B63
:1021C00003C0C901841B950B2EEF8F3392071CF4BB
:1021D00082EC91E00DC02FEF8B3692071CF48CE25D
:1021E00091E006C02FEF883E92074CF486E990E01C
:1021F0009093A2008093A10082E390E02AC08A31EC
:1022000091053CF48CE291E09093A2008093A100B0
:1022100020C0873991054CF482E390E09093A200AE
:102220008093A10086E990E014C0835C91404CF457
:1022300082E390E09093A2008093A1008CE291E071
:1022400008C082E390E09093A2008093A10082EC0A
:1022500091E09093A4008093A3004091B40050912A
:10226000B5002091B2003091B300672BC9F0CA01CC
:10227000820F931F62E070E00E945E3080919D00AB
:1022800090919E00861797071CF11092A200109261
:10229000A1001092A4001092A3000E948D1018C0FB
:1022A000CA01820F931F62E070E00E945E3080914D
:1022B0009F009091A0006817790754F01092A20037
:1022C0001092A1001092A4001092A3000E94561038
:1022D0006091A3007091A4008091A1009091A20050
:1022E0000E9455120895AF92BF92CF92DF92EF9263
:1022F000FF920F931F935B016C0179018A01CA0160
:10230000B9019F772FE632E143E85AE30E942C2F70
:1023100018168CF5C601B5019F772FE632E143E828
:102320005AE30E942C2F181634F5C801B701A601F4
:1023300095010E94832D0E94542D20EE3EE245E639
:1023400052E40E94372F7B018C01C601B50120E0C9
:1023500030E040E050E00E947C2D88230CF055C016
:10236000C801B70120E030E044E353E40E94F02CC0
:102370007B018C014AC0C601B5019F772FE632E18F
:1023800043E85AE30E947C2D181604F1C801B701F6
:1023900020E030E040E050E00E942C2F18165CF066
:1023A0000F2EF0E0EF2EF0E0FF2EF4EB0F2FF2EC0B
:1023B0001F2FF02D2AC00F2EF0E0EF2EF0E0FF2EA1
:1023C000F4EB0F2FF2E41F2FF02D1FC0C601B50153
:1023D00020E030E040E050E00E942C2F18165CF026
:1023E0000F2EF0E0EF2EF0E0FF2EF4E30F2FF3E4DA
:1023F0001F2FF02D0AC00F2EF0E0EF2EF0E0FF2E81
:10240000F0E00F2FF0E01F2FF02DC801B701209151
:10241000F7003091F8004091F9005091FA000E94C5
:10242000EF2C7B018C0120E030E044E353E40E9478
:102430002C2F181654F4C801B70120E030E044EB0B
:1024400053E40E94EF2C7B018C01C801B70120E00E
:1024500030E044E353EC0E947C2D882354F4C801FF
:10246000B70120E030E044EB53E40E94F02C7B0104
:102470008C01B701C8011F910F91FF90EF90DF9081
:10248000CF90BF90AF900895813049F4662339F022
:10249000673010F467E003C06F3008F06EE00E9410
:1024A000B62208950E94672208951F93CF93DF9369
:1024B0009C01EB0197FD02C091E004C0309521958D
:1024C0003F4F9FEFD7FD02C011E004C0D095C195EA
:1024D000DF4F1FEF83E0283E380719F420E030E09B
:1024E0000FC081E0233C38071CF022EC31E008C02B
:1024F0002115310529F02233310514F422E330E0AF
:1025000083E0C83ED80719F4C0E0D0E00EC081E0F7
:10251000C33CD8071CF0C2ECD1E007C0209729F0DB
:10252000C233D10514F4C2E3D0E08091A40191300C
:1025300041F48E7F8093A4013093AF002093AE00CE
:102540000BC081608093A40188279927821B930B7D
:102550009093AF008093AE0027393105C4F4211564
:10256000310519F460E070E023C0B901882777FDD8
:102570008095982F0E941E2E22EE39E541E95EE3F8
:102580000E94372F0E94F02D6E5C7F4F11C0B90161
:10259000882777FD8095982F0E941E2E2BE233E22C
:1025A00044E85FE30E94372F0E94F02D6E51704087
:1025B0007093B2016093B1018091A401113041F494
:1025C0008D7F8093A401D093B100C093B0000BC065
:1025D00082608093A401882799278C1B9D0B909380
:1025E000B1008093B000C739D105BCF4209719F42D
:1025F00060E070E023C0BE01882777FD8095982FAA
:102600000E941E2E22EE39E541E95EE30E94372F3B
:102610000E94F02D6E5C7F4F11C0BE01882777FDB0
:102620008095982F0E941E2E2BE233E244E85FE350
:102630000E94372F0E94F02D6E5170407093B001B0
:102640006093AF0180E00E94922281E00E9492227A
:10265000DF91CF911F9108950F931F93CF93DF9335
:102660008C01EB01E199FECF8CE390E09FBB8EBB28
:10267000E09A6DB3862F90E08850984F82179307A9
:1026800014F42FEF06C083E0359527958A95E1F77E
:10269000261BE199FECF445F5F4F5FBB4EBB4C50A2
:1026A0005040E09A8DB3821718F480E097E004C0A0
:1026B000425F5F4F87E09EE060E00EC0E199FECF91
:1026C0005FBB4EBBE09A6DB3621718F4882339F0F4
:1026D00009C04E5F5F4F8F5F891780F303C084E6A8
:1026E00090E036C0CA010297E199FECF9FBB8EBB36
:1026F000E09AEDB3E199FECF01969FBB8EBBE09AC5
:102700003DB3E199FECF4F5F5F4F5FBB4EBBE09A99
:102710009DB3E617D9F0FE2FF61B6F2F80E0931BB9
:1027200070E00E944A30E21B8E2F90E0AC01649F63
:10273000C001659F900D749F900D1124930F9A38DE
:1027400028F485E0989FC001112402C087EE93E031
:10275000F80191838083888180958883DF91CF9170
:102760001F910F910895AC0120916B0030916C0086
:102770008217930754F480916D0090916E00481772
:1027800059071CF420E030E00CC080916D0090915E
:102790006E002817390719F421E030E002C0281B29
:1027A000390BC90108952F923F924F925F926F9219
:1027B0007F928F929F92AF92BF92CF92DF92EF92D1
:1027C000FF920F931F93DF93CF93CDB7DEB765973B
:1027D0000FB6F894DEBF0FBECDBF8091AA01282F9F
:1027E000332727FD30958091A6019091A701280FEE
:1027F000391F3B8B2A8B3093A7012093A601809130
:10280000A501482F552747FD50958091A80190912B
:10281000A901480F591F5D8B4C8B5093A901409320
:10282000A8019091AB0180913101592F581B593368
:1028300008F420C2909331018FB7F8944091C300FF
:102840005091C400E091C500F091C6008FBF809107
:10285000150190911601BA01681B790B20911301A3
:10286000309114017F01E21AF30A5093160140934C
:102870001501F0931401E0931301882777FD8095EB
:10288000982F0E941E2E26EE30E04EE350E40E9468
:10289000372F3B014C010027F7FC0095102FC80192
:1028A000B7010E941E2E26EE30E04EE350E40E9457
:1028B000372F1B012C01A40193010E94EF2C26E667
:1028C00036E642EC52E40E94832D5B016C0120E06D
:1028D00030E040E050E00E947C2D8823E1F0C6010A
:1028E000B50120E030E040E05FE30E94372F0E9416
:1028F0009A2F7B018C01C401B301A20191010E94B6
:10290000F02CA80197010E94372FA60195010E9483
:10291000832D3B014C01C601B50125E33AEF4EE89A
:102920005CE30E94832D2091C7003091C800409144
:10293000C9005091CA000E94F02C08C0C801B7011C
:1029400020E030E044EB53E40E94EF2C7B018C014B
:1029500020E030E044EB53E40E942C2F87FFEECFC1
:102960000AC0C801B70120E030E044EB53E40E9404
:10297000F02C7B018C01C801B70120E030E040E081
:1029800050E00E947C2D87FDECCFE092C700F092D2
:10299000C8000093C9001093CA00C801B70125E31D
:1029A0003AEF4EE85CE30E94372F7B018C01C801AF
:1029B0000E94802D9B01AC01C401B3010E94372FFE
:1029C0009B01AC016091CB007091CC008091CD0057
:1029D0009091CE000E94F02C6093CB007093CC00BD
:1029E0008093CD009093CE00B701C8010E949A2F2A
:1029F0009B01AC01C401B3010E94372F9B01AC01C4
:102A00006091CF007091D0008091D1009091D20060
:102A10000E94F02C6093CF007093D0008093D1007F
:102A20009093D20080912D0190912E016C897D8927
:102A3000681B790B882777FD8095982F0E941E2EA2
:102A400026E636E646E65EE30E94372F7B018C01E0
:102A50002091DF003091E0004091E1005091E200D0
:102A60000E94F02C5B016C016093DF007093E0002A
:102A70008093E1009093E200609123017091240122
:102A80008091250190912601A80197010E94F02CC8
:102A90006093230170932401809325019093260174
:102AA000C601B50120E030E044EB53E40E942C2F36
:102AB000882384F0C601B50120E030E044EB53E404
:102AC0000E94EF2C6093DF007093E0008093E100A0
:102AD0009093E200E090DF00F090E0000091E100D0
:102AE0001091E200C801B70120E030E040E050E082
:102AF0000E947C2D882384F4C801B70120E030E0D7
:102B000044EB53E40E94F02C6093DF007093E000EC
:102B10008093E1009093E20080912B0190912C0131
:102B20006A897B89681B790B882777FD8095982FA8
:102B30000E941E2E3B014C0127EE31EB4AE75DE37C
:102B40000E94372F9B01AC016091270170912801F1
:102B50008091290190912A010E94F02C6093270115
:102B6000709328018093290190932A012090DF001F
:102B70003090E0004090E1005090E200C201B101CD
:102B800025E33AEF4EE85CE30E94372F7B018C018E
:102B9000C8010E94802D9B01AC01C401B3010E94B9
:102BA000372F27EE31EB4AE75DE30E94372F209164
:102BB000E3003091E4004091E5005091E6000E946E
:102BC000F02C5B016C01CB01D6018093E300909364
:102BD000E400A093E500B093E600B701C8010E94AD
:102BE0009A2F9B01AC01C401B3010E94372F27EE3D
:102BF00031EB4AE75DE30E94372F2091E7003091E7
:102C0000E8004091E9005091EA000E94F02C9B01FD
:102C1000AC012093E7003093E8004093E900509323
:102C2000EA00AC89BD89B0932E01A0932D01EA89F9
:102C3000FB89F0932C01E0932B012092F700309256
:102C4000F8004092F9005092FA009501A6012093F5
:102C5000FB003093FC004093FD005093FE00AC015C
:102C6000CB01DA018093FF0090930001A093010152
:102C7000B09302012091AB013091AC0180912F0102
:102C800090913001A901481B590BCA018D589540FC
:102C900008F410C33093300120932F018FB7F894BC
:102CA000C090C300D090C400A090C500B090C600F2
:102CB0008FBF8091110190911201B601681B790BB1
:102CC000882777FD8095982F0E941E2E28ED30E2F0
:102CD00042E353E40E94372F20E030E040E752E423
:102CE0000E94832D20E030E040E850E40E94372F1E
:102CF0007B018C016093D3007093D4008093D50046
:102D00009093D60080910F0190911001B501681B3E
:102D1000790B882777FD8095982F0E941E2E28ED2D
:102D200030E242E353E40E94372F20E030E040E7F6
:102D300052E40E94832D20E030E040E850E40E94FD
:102D4000372F9B01AC016093D7007093D80080931C
:102D5000D9009093DA00C801B7010E94F02C20E05E
:102D600030E040E05FE30E94372F6093DB00709318
:102D7000DC008093DD009093DE00D0921201C092BF
:102D80001101B0921001A0920F0160912701709182
:102D900028018091290190912A0120E030E040E84B
:102DA00050E40E94372F6E877F87888B998B6093C2
:102DB000EB007093EC008093ED009093EE00A090F8
:102DC0001F01B0902001C0902101D0902201C601C6
:102DD000B50120E030E044EB52E40E947C2D8823D2
:102DE00041F1C601B50120E030E047E853E40E941C
:102DF0007C2D8823F1F0E090DF00F090E00000915E
:102E0000E1001091E200C801B70120E030E044EB9E
:102E100052E40E947C2D882361F0C801B70120E0B4
:102E200030E047E853E40E947C2D882311F0198696
:102E30006AC0C601B50120E030E044EB52E40E94D4
:102E4000F02C60931F0170932001809321019093D7
:102E500022016091DF007091E0008091E10090918B
:102E6000E20020E030E044EB52E40E94F02C60935A
:102E7000DF007093E0008093E1009093E200809186
:102E80001B0190911C01A0911D01B0911E01209188
:102E90001701309118014091190150911A012093A6
:102EA0001B0130931C0140931D0150931E01B0582B
:102EB0008093170190931801A0931901B0931A0100
:102EC0008091E3009091E400A091E500B091E600CC
:102ED0002091E7003091E8004091E9005091EA002C
:102EE0002093E3003093E4004093E5005093E60024
:102EF000B0588093E7009093E800A093E900B09366
:102F0000EA0081E0898760911F0170912001809122
:102F100021019091220125E33AEF4EE85CEB0E94FB
:102F2000372F0E94E52F5B016C012091DF0030916B
:102F3000E0004091E1005091E2002D833E834F83F9
:102F40005887CA01B90125E33AEF4EE85CEB0E94CD
:102F5000372F0E94E52F6A877B878C879D87C60164
:102F6000B5012A853B854C855D850E947C2D882393
:102F7000A9F48E859F85A889B9898093F3009093E1
:102F8000F400A093F500B093F6008093EF009093C7
:102F9000F000A093F100B093F200E6C02090E300AF
:102FA0003090E4004090E5005090E6002091E7006A
:102FB0003091E8004091E9005091EA0029833A837A
:102FC0004B835C836A857B858C859D850E94372F2A
:102FD0009B01AC01C201B1010E94EF2C3B014C01ED
:102FE000C601B501209117013091180140911901D6
:102FF00050911A010E94372F9B01AC0160911B0177
:1030000070911C0180911D0190911E010E94EF2C76
:103010009B01AC01C401B3010E94EF2C7B018C0128
:10302000C601B5012A853B854C855D850E94EF2C44
:103030009B01AC01C801B7010E94832D5B016C01AB
:103040006A857B858C859D85A60195010E94372F19
:10305000A40193010E94F02C9B01AC01C201B101BB
:103060000E94EF2C7B018C0169817A818B819C818C
:10307000A60195010E94EF2C5B016C01C801B7010C
:10308000A80197010E94372F7B018C01C601B50171
:10309000A60195010E94372F9B01AC01C801B70121
:1030A0000E94F02C0E94A42F7B018C01A090230190
:1030B000B0902401C0902501D0902601C601B50131
:1030C00020E030E040E050E00E947C2D882324F492
:1030D00017FB109517F910956E857F85888999895A
:1030E00020E030E040E050E00E947C2D882324F472
:1030F00017FB109517F91095C801B70126E636E6BB
:1031000042E452E40E94F02C9B01AC01C601B501DF
:103110000E94372F25E33AEF4EE85DE30E94372FF8
:103120006093F3007093F4008093F5009093F600A1
:10313000C801B70126E636E642E452E40E94EF2CCD
:103140009B01AC01C601B5010E94372F25E33AEF80
:103150004EE85DE30E94372F6093EF007093F0001C
:103160008093F1009093F2003985332399F16D81BA
:103170007E818F81988520E030E044EB52E40E940C
:10318000EF2C6093DF007093E0008093E100909358
:10319000E2002091E3003091E4004091E50050917D
:1031A000E6008091E7009091E800A091E900B091DD
:1031B000EA00B0588093E3009093E400A093E50008
:1031C000B093E6002093E7003093E8004093E900D5
:1031D0005093EA0080E090E0A0E0B0E08093270107
:1031E00090932801A0932901B0932A018093230191
:1031F00090932401A0932501B09326018091E300D0
:103200009091E400A091E500B091E60080931B014D
:1032100090931C01A0931D01B0931E018091E700C3
:103220009091E800A091E900B091EA008093170125
:1032300090931801A0931901B0931A018091DF00B7
:103240009091E000A091E100B091E20080931F0115
:1032500090932001A0932101B09322018091EF006F
:103260009091F000A091F100B091F20080930301E1
:1032700090930401A0930501B09306018091F3009F
:103280009091F400A091F500B091F60080930701B1
:1032900090930801A0930901B0930A018E859F8540
:1032A000A889B98980930B0190930C01A0930D011B
:1032B000B0930E0165960FB6F894DEBF0FBECDBF7A
:1032C000CF91DF911F910F91FF90EF90DF90CF9002
:1032D000BF90AF909F908F907F906F905F904F9036
:1032E0003F902F900895E0917C00F0917D00CF01F8
:1032F0000180F281E02D3097D1F7FC0180818F5F52
:103300000895862F8F7090E0089560E170E00E942C
:103310005E30089524E0959587952A95E1F7089504
:103320001F93CF93DF93EC010E942D08833509F0A2
:10333000ECC00E942108893509F0E7C00E942708E7
:10334000282F8C819D8160E170E00E945E302817FB
:1033500019F08F3009F0D9C081E090E00E944A094D
:1033600081E061E00E94802000D08DE893E0EDB71D
:10337000FEB7928381830E940A201A811F770F90E3
:103380000F90123509F466C0133548F4173409F468
:1033900087C01C34C9F1143409F0B5C00FC017360A
:1033A00009F47EC0183620F4143609F0ACC006C00B
:1033B0001C3651F1123709F0A6C04CC08091320181
:1033C0008434A9F0843699F082E090E00E944A09A2
:1033D00082E061E00E94802000D088E793E0EDB7B2
:1033E000FEB7928381830E940A200F900F901434BD
:1033F00011F062E101C06CE082E00E94802000D008
:1034000000D083E793E071C0809132018C34A9F041
:103410008C3699F082E090E00E944A0982E061E0F7
:103420000E94802000D08EE593E0EDB7FEB7928336
:1034300081830E940A200F900F901C3411F062E1EA
:1034400001C06CE082E00E94802000D000D089E5BD
:1034500093E04BC0809132018235A9F0823799F018
:1034600082E090E00E944A0982E061E00E948020B0
:1034700000D084E493E0EDB7FEB7928381830E948D
:103480000A200F900F90123511F062E101C06CE03C
:1034900082E00E94802000D000D08FE393E025C01E
:1034A000809132018734A9F0873699F082E090E06C
:1034B0000E944A0982E061E00E94802000D08AE2F6
:1034C00093E0EDB7FEB7928381830E940A200F90AC
:1034D0000F90173411F062E101C06CE082E00E94AD
:1034E000802000D000D085E293E0EDB7FEB7928354
:1034F00081838E819F81948383830E940A200F9011
:103500000F900F900F9010933201DF91CF911F9188
:1035100008950F93DF93CF9300D000D0CDB7DEB7DF
:103520003C832B836F7069831A8289E7642FAE0115
:103530004F5F5F4F9E012D5F3F4F00E00E943308B9
:1035400083E090E00E944A0983E061E00E948020CD
:1035500000D08EE993E0EDB7FEB7928381830E949D
:103560000A200F900F900F900F900F900F90CF9117
:10357000DF910F9108950F93DF93CF9300D0CDB7D4
:10358000DEB76F7069831A8287E7642F9E012F5F11
:103590003F4FA90100E00E9433080F900F90CF9198
:1035A000DF910F910895CF93DF93EC018091EB01B0
:1035B000882331F00E945909882311F40E94CA0817
:1035C00088819981843691051CF080E090E001C0EB
:1035D0000196998388838436910509F042C00E9440
:1035E00021088935F1F584E090E00E944A0984E0E1
:1035F00061E00E9480200E94270800D000D0EDB733
:10360000FEB731962BEC33E0ADB7BEB712963C93C4
:103610002E931197828313820E940A200F900F909D
:103620000F900F900E942D088D3431F0833571F486
:1036300000D085EC93E00DC000D08EEB93E0ADB7E9
:10364000BEB712969C938E93119707C000D084EB5F
:1036500093E0EDB7FEB7928381830E940A200F901A
:103660000F90DF91CF9108950F930E94AA2081E0DF
:1036700061E00E94802000D08AEB94E0EDB7FEB7B5
:10368000928381830E940A200F900F9082E061E074
:103690000E94802000D08DEA94E0EDB7FEB79283BF
:1036A00081830E940A200F900F9087E763E440E037
:1036B00050E020E030E000E00E9433080F910895D0
:1036C0000E94AA2081E061E00E94802000D083EF68
:1036D00093E0EDB7FEB7928381830E940A200F909A
:1036E0000F9082E061E00E94802000D08EED93E098
:1036F000EDB7FEB7928381830E940A200F900F904E
:1037000083E061E00E94802000D084ED93E0EDB77B
:10371000FEB7928381830E940A200F900F9088EE5B
:1037200093E00E94B71F0E94341B08951F93CF930C
:10373000DF93182FE0917C00F0917D00CF01018094
:10374000F281E02D3097D1F7EC0185E090E00E9406
:103750006C28FC01009749F0D483C38389819A8146
:10376000928381831083FA83E983DF91CF911F9144
:1037700008950F931F93DF93CF9300D0CDB7DEB79B
:103780008C01FC0182818F7790E08334910529F0D0
:103790008434910509F016C1C0C081E090E00E9418
:1037A0004A0981E061E00E94802000D080EA94E034
:1037B000EDB7FEB7928381830E940A200F900F908D
:1037C0000E942D08833509F49CC08535F1F18D34B4
:1037D00009F0F8C082E090E00E944A0982E061E0CE
:1037E0000E94802000D08BE894E0EDB7FEB7928372
:1037F00081830E940A200F900F9083E090E00E9446
:103800004A0983E061E00E94802000D000D087E771
:1038100094E0EDB7FEB792838183148213820E94F5
:103820000A200F900F900F900F900E942708E091B0
:103830007C00F0917D00CF010180F281E02D309776
:10384000D1F7FC0110811F5F4CC082E090E00E9424
:103850004A0982E061E00E94802000D082E694E084
:10386000EDB7FEB7928381830E940A200F900F90DC
:1038700083E090E00E944A0983E061E00E9480209A
:1038800000D08EE494E0EDB7FEB7928381830E946E
:103890000A200F900F9080E00E942A088DE40E9479
:1038A000300885E090E00E946C28FC01DC019093D8
:1038B0007D0080937C00009729F01482138212828D
:1038C00011821082CD0111960D90BC91A02D109700
:1038D000C9F7FC0110811F5F0E94270889E50E943B
:1038E0001E08812F0E94961B1F7019831A8287E77A
:1038F00064E49E012F5F3F4FA90100E00E9433085E
:1039000061C082E090E00E944A0982E061E00E948A
:10391000802000D08DE394E04DC081E090E00E94D3
:103920004A0981E061E00E94802000D08BE294E0AF
:10393000EDB7FEB7928381830E940A200F900F900B
:103940000E942D08853541F00E942D08833539F5F8
:103950000E942708882319F582E090E00E944A0916
:1039600082E061E00E94802000D08AE194E0EDB71F
:10397000FEB7928381830E940A200F900F9083E507
:103980000E943008F8018481958160E170E00E9416
:103990005E300E942A0889E50E941E0813C082E05A
:1039A00090E00E944A0982E061E00E94802000D0FD
:1039B00086E094E0EDB7FEB7928381830E940A20EF
:1039C0000F900F900F900F90CF91DF911F910F915B
:1039D000089520913301283011F42FEF0EC02F5F8E
:1039E000209333012150E22FFF27E7FDF095EE0FE2
:1039F000FF1FEC5CFE4F91838083822F0895089512
:103A00001F93182F8091440190914501892B19F043
:103A100080E80E94542280913301181774F4E12F3A
:103A2000FF27E7FDF095EE0FFF1FEC5CFE4F0190C6
:103A3000F081E02D309709F0099580914401909133
:103A40004501892B11F00E94B71D1092450110927B
:103A5000440180E80E944A221F9108952091840128
:103A600030918501820F931F90938501809384018B
:103A70008E539E4F8558934020F0309385012093BC
:103A800084012091840130918501C9010197C1977A
:103A900018F482E390E007C02F5C3F4F21333105DB
:103AA00030F48EEC9FEF90938501809384012091F8
:103AB000860130918701CB01820F931F909387017C
:103AC000809386018E539E4F8558934020F030930B
:103AD0008701209386012091860130918701C901D9
:103AE0000197C19738F482E390E090938701809327
:103AF000860108952F5C3F4F2133310530F48EEC61
:103B00009FEF909387018093860108950E9437224A
:103B10009C010097A1F0AC01407058708091710039
:103B2000909172004817590751F0509372004093DA
:103B300071002F7330713093450120934401089533
:103B40008A3219F480915F018F5F80935F01209129
:103B50005F0130E080913301992787FD9095281708
:103B6000390714F010925F010E94AA2008958091F5
:103B700044019091450120E18330920709F471C01E
:103B800020E184309207E8F48A33910509F445C0B6
:103B90008B33910540F48033910509F444C0C197FB
:103BA00009F06CC03EC020E18130920709F453C097
:103BB00020E18230920708F051C0CD9709F05EC035
:103BC0002EC020E182339207D1F120E183339207A6
:103BD00068F420E18C309207A9F020E18932920745
:103BE00041F18450904109F049C042C020E1863340
:103BF000920711F120E188339207B9F08453904184
:103C0000E9F522C01092850110928401109287017B
:103C1000109286010E943227089580E007C081E05B
:103C200005C082E003C083E001C08AE20E94A01DBB
:103C300008958AE090E005C086EF9FEF07C086EF09
:103C40009FEF6AE070E004C08AE090E066EF7FEFEB
:103C50000E942E1D089581E090E005C082E090E072
:103C600002C083E090E090939801809397010895BB
:103C700084E090E0909398018093970108959AB31F
:103C8000809598239ABB9BB398239BBB0895382FAC
:103C9000809173008F3F11F41092460120914601EC
:103CA0002830F0F4822F90E0FC01EE0FFF1FE80FA8
:103CB000F91FE95BFE4F72836183932F97709083A6
:103CC0002F5F20934601809173008F3F49F410923B
:103CD000730080E487B987B1982B97B98FEC86B9C8
:103CE00008951F920F920FB60F9211242F933F93B6
:103CF0004F938F939F93EF93FF938091730024B121
:103D000045B1992787FD9095FC01EE0FFF1FE80F45
:103D1000F91FE95BFE4F0180F281E02D942F80E0D6
:103D200030E0822B932B91838083809173009927BD
:103D300087FD9095FC01EE0FFF1FE80FF91FE95B6F
:103D4000FE4F12821182809173008F5F8093730007
:103D50008091730088302CF580917300992787FD3E
:103D60009095FC01EE0FFF1FE80FF91FE95BFE4F76
:103D700081819281892BA9F080E487B927B1809154
:103D80007300992787FD9095FC01EE0FFF1FE80F48
:103D9000F91FE95BFE4F8081282B27B98FEC86B98C
:103DA00004C016B88FEF80937300FF91EF919F913D
:103DB0008F914F913F912F910F900FBE0F901F90B9
:103DC0001895809173000895EF92FF920F93DF93FF
:103DD000CF9300D0CDB7DEB71A8219820E94082691
:103DE00087E562E57E010894E11CF11CA7019701BB
:103DF00000E00E94330887E562E5A70197010E9471
:103E0000330887E562E5A70197010E94330887E53B
:103E100062E5A70197010E94330887E562E5A701E3
:103E200097010E9433080F900F90CF91DF910F916F
:103E3000FF90EF900895CF92DF92EF92FF920F9351
:103E4000DF93CF9300D000D0CDB7DEB78DE46EE422
:103E50004EEA50E020EB30E000E00E943308809111
:103E60006B0189831A828CE66EE46E010894C11C92
:103E7000D11CA60196010E94330889E46EE44BE64A
:103E800050E02DE630E00E94330885E46EE443EC18
:103E900050E025EC30E00E94330882E46EE448EB09
:103EA00050E02AEB30E00E9433088CE46EE44CEBE7
:103EB00050E02EEB30E00E94330888E46EE442EBE1
:103EC00050E024EB30E00E9433088091C0008983E9
:103ED0001A821C821B8283E0E82EF12CEC0EFD1E60
:103EE00084E56EE4A60197010E9433088091C10029
:103EF00089831A8284E46EE4A60197010E94330844
:103F00008091A501992787FD90959A838983809157
:103F1000AA01992787FD90959C838B838DE66EE49B
:103F2000A60197010E9433088091C20089831A82FA
:103F30001C821B8285E66EE4A60197010E9433086D
:103F40000F900F900F900F90CF91DF910F91FF90F6
:103F5000EF90DF90CF9008958091EB018B3030F09F
:103F60000E945909882311F40E94CA080895AF924B
:103F7000BF92CF92DF92EF92FF920F931F93BC01FB
:103F8000A090AB01B090AC01C090AD01D090AE015B
:103F90008091AB018A1541F0A090AB01B090AC01CB
:103FA000C090AD01D090AE0180E090E02DE730E010
:103FB00040E050E00E942B3026E130E040E050E04D
:103FC0000E94713079018A012091AB013091AC01DE
:103FD0004091AD015091AE018091AB01821741F04B
:103FE0002091AB013091AC014091AD015091AE01F7
:103FF0002A193B094C095D092E153F054007510759
:1040000018F31F910F91FF90EF90DF90CF90BF902A
:10401000AF900895CF92DF92FF920F931F93DF939B
:10402000CF93CDB7DEB769970FB6F894DEBF0FBE5A
:10403000CDBFFE01B396419151918E010B5F1F4F91
:10404000C80165E170E09F010E94482AFF246801D1
:104050000CEB10E00BC062E045E00E94FE24C801BA
:104060000197F1F785B3887F85BBF394F601EF0DD7
:10407000F11D8081882379F78091600189831A82FC
:10408000809161018B831C8283E663E4AE014F5F04
:104090005F4F9E012D5F3F4F00E00E94330883E693
:1040A00064E440E050E020E030E086010E94260910
:1040B000809160018F0D8093600169960FB6F8942E
:1040C000DEBF0FBECDBFCF91DF911F910F91FF904B
:1040D000DF90CF9008951F93182F62E044E00E9474
:1040E000FE248CEB90E00197F1F785B3887F85BBC8
:1040F000113021F480EC97E10197F1F71F910895B9
:104100000F931F93182F062F823069F0833018F415
:10411000813099F405C0833049F0843071F409C0CE
:10412000862F815808C0862F815405C0862F8D5652
:1041300002C0862F8D520E946B20802F90E0019745
:1041400080936001812F90E00197809361011F911E
:104150000F9108950F9381E00E946B2083E663E640
:1041600040E050E020E030E000E00E9433080F9192
:1041700008950E94F72484B3876084BBA5988CE0DF
:1041800090E00E94B71F88E362E044E00E94FE24B2
:1041900085B3887F85BB85E090E00E94B71F88E3E8
:1041A00062E044E00E94FE2485B3887F85BB85E001
:1041B00090E00E94B71F88E362E044E00E94FE2482
:1041C00085B3887F85BB85E090E00E94B71F8FE0B4
:1041D0000E946B2081E00E946B2008958093620111
:1041E000809568E00E94172508951F93182F803846
:1041F00071F48091620186FD06C080648093620143
:1042000081E080936301809162018F7714C0809177
:104210006201103479F487FD09C087E760E00E94ED
:1042200039238091620180688093620180916201EC
:104230008F7B01C0812B80936201809162010E947B
:10424000EE20107C11F0929A92981F910895CF93CE
:10425000DF93C82FD0E0C07CD0709091620120978E
:1042600011F0982B02C08095982390936201809161
:1042700062010E94EE2080916301813019F480E494
:104280000E94F520CD2B11F0929A9298DF91CF9158
:1042900008958A9A0E94F72480E00E94EE200895F3
:1042A000FC01108275836483738362834183478337
:1042B000468308950F931F93CF93DF93DC01042F60
:1042C00014962D913C91159717965C91179750175E
:1042D00008F4452F10E019C0899181938E2F821B1D
:1042E0008417D0F3842F90E0680F791F280F391FAF
:1042F000541B29F411965C911197251B31091F5FFE
:10430000123031F0802F841B482FF901EB01E6CFEA
:1043100017965C93179715963C932E9314979FB717
:10432000F8948C91800F8C939FBFDF91CF911F9158
:104330000F9108950F931F93CF93DF93DC018C911E
:10434000841708F4482F12962D913C9113971696D6
:104350005C911697142F541708F4152F00E019C01C
:10436000899181938E2F861B8117D0F3812F90E046
:10437000280F391F680F791F511B29F411965C9182
:104380001197251B31090F5F023031F0842F811BFB
:10439000182FFB01E901E6CF13963C932E93129759
:1043A00016965C9316979FB7F8948C91841B8C9308
:1043B0009FBF842FDF91CF911F910F91089556B326
:1043C000569550955170809166018F3F19F08F5F1F
:1043D0008093660180916701909166018517A1F134
:1043E000943008F43FC040916801442391F4513067
:1043F00059F49B3F48F081E090E090936A018093EC
:104400006901509368011DC010926A011092690100
:1044100018C0983048F19D3090F4252F30E08091FD
:10442000690190916A01880F991F282B392B3093CD
:104430006A01209369014F5F4093680102C01092A6
:1044400068011092660110C09D3070F08091680183
:104450008E3041F48091690190916A0190936501D9
:104460008093640110926801509367010895209130
:104470006401309165011092650110926401C901D7
:104480000895B898C09A089580936B0160E10E94E6
:1044900017250895809590916B01892380936B0176
:1044A00060E10E941725089590916B01982B9093DD
:1044B0006B01892F60E10E94172508950E94F7245F
:1044C00010926B0180E060E10E9417250895A69A82
:1044D000A79ABB9A12BE80E683BF88E08CBF81B3E7
:1044E000806381BB1DBC1CBC82EF8FBD8CE08EBD88
:1044F0008FEF90E09BBD8ABD99BD88BD1092B2013F
:104500001092B1011092B0011092AF018FEF91E0C3
:104510009BBD8ABD99BD88BD8091A4018C7F80938D
:10452000A40108959091A401882381F490FD02C014
:10453000AE9A01C0AE982091B1013091B2018FEFD7
:1045400091E0821B930B9BBD8ABD089591FF02C031
:10455000AF9A01C0AF982091AF013091B0018FEFB9
:1045600091E0821B930B99BD88BD0895813051F471
:10457000662321F483B78A7F83BF089583B785605C
:1045800083BF6CBF08951F920F920FB60F92112434
:104590000F900FBE0F901F901895BB9A12BE80E629
:1045A00083BF88E08CBF08951F920F920FB60F92C1
:1045B00011240F900FBE0F901F9018951F920F920D
:1045C0000FB60F9211240F900FBE0F901F901895E9
:1045D00081B3806381BB1DBC1CBC82EF8FBD8CE0AE
:1045E0008EBD8FEF90E09BBD8ABD99BD88BD0895BB
:1045F0001F93182F80E80E94F520BE9A27E0C798E5
:1046000098B3812F869580749F7B892B88BB110F6F
:104610002150C79A2F3F99F780E991E00197F1F770
:10462000BE9890E027E0C798990F2150C79A86B3AB
:104630008295869586958170982B2F3FA1F7892FBB
:104640001F91089584E00E94F822089588E00E9456
:10465000F822982F80916C01813049F404C088E0E1
:104660000E94F822982F97FFFACF10926C01892FA1
:1046700008950F931F93182F062F80E80E94F520AE
:104680001068BE9A27E0C79898B3812F86958074EA
:104690009F7B892B88BB110F2150C79A2F3F99F719
:1046A000BE9A27E0C79898B3802F869580749F7B29
:1046B000892B88BB000F2150C79A2F3F99F780E9BB
:1046C00091E00197F1F71F910F91089580E061E06B
:1046D0000E94392388E060E00E94392381E08093C2
:1046E0006C01089580E80E94F52084E690E00E9425
:1046F000B71FBF9AC7988AE090E00E94B71F80E07A
:1047000060E80E94392380E061E00E943923089527
:1047100096B39295917080917001981729F09093BB
:10472000700110926E0120C080916E018C3020F4D7
:104730008F5F80936E0118C08C30B1F48DE0809350
:104740006E018091A40180FD06C08091C30090910C
:10475000C400019605C08091C3009091C4000197E8
:104760009093C4008093C30090B3969596959695C8
:10477000917080916F01981729F090936F011092BA
:104780006D01089580916D018C3020F48F5F8093CE
:104790006D0108958C30D1F48DE080936D0180918E
:1047A000A40181FD0AC08091C5009091C6000196C8
:1047B0009093C6008093C50008958091C5009091A4
:1047C000C60001979093C6008093C5000895CF93CB
:1047D000DF938CE30E94F520C091AB01D091AC0136
:1047E00080917101909172019E01281B390BC901C2
:1047F0008D519140D0F06091830170E0660F771F7A
:1048000065587E4F80E00E94471E6091830170E0F2
:10481000660F771F6D587E4F81E00E94471E809182
:1048200083018F5F83708093830182E06CEB70E083
:104830000E94471E83E06EEB70E00E94471E84E0FA
:1048400062EB70E00E94471E85E064EB70E00E941E
:10485000471E86E068EB70E00E94471E87E06AEB27
:1048600070E00E94471E83E00E94F8228093A50119
:1048700082E00E94F8228093AA0180B382958695F7
:10488000869581708093C10086B381708093C0004B
:1048900086B38695869581708093C2000E94D3135B
:1048A00080917101909172019E01281B390BC90101
:1048B0008D51914008F44EC0D0937201C0937101A4
:1048C0000E94E11E8823E1F320917D0130917E0159
:1048D00080917B0190917C01280F391F80917F018D
:1048E00090918001280F391F809181019091820160
:1048F000280F391FE0916F00F09170008BE690E077
:1049000066EB70E044E050E009950E94E11E8230C1
:10491000E0F32091750130917601809173019091BF
:104920007401280F391F8091770190917801280F29
:10493000391F8091790190917A01280F391FE091F8
:104940006F00F09170008DE690E067EB70E040E260
:1049500050E009950E94E11E8F3FE1F78CE30E9431
:1049600027218091C000882321F080E10E945422F9
:1049700003C080E10E944A228091C200882321F076
:1049800088E00E94542203C088E00E944A2280915D
:104990006B0090916C00845F914024F482E00E944F
:1049A000542203C082E00E944A2280916D009091BF
:1049B0006E00845F914024F481E00E94542203C081
:1049C00081E00E944A22DF91CF9108950E944921FF
:1049D0008FEF0E943F1E83E00E94EE208E98BA98CF
:1049E000B898C09ABC988B980E943125089584B3DA
:1049F0008F6184BB85B3807E85BB0895382F85B3D6
:104A0000807E85BB28E095B3832F881F8827881F69
:104A1000892B85BB85B3862B85BB330F85B3807E01
:104A200085BB215081F785B3842B85BB0895382F32
:104A300085B3807E85BB28E095B3832F881F8827A8
:104A4000881F892B85BB85B3862B85BB330F85B328
:104A5000807E85BB215081F7A99A85B3807E85BB76
:104A6000089514BC8CE085BD8BE283BD89B7806856
:104A700089BF789408951F920F920FB60F92112458
:104A80002F933F934F935F936F937F938F939F9356
:104A9000AF93BF93EF93FF938091AB019091AC01E3
:104AA000A091AD01B091AE010196A11DB11D809301
:104AB000AB019093AC01A093AD01B093AE0178949B
:104AC0000E94DF210E948823FF91EF91BF91AF9157
:104AD0009F918F917F916F915F914F913F912F9116
:104AE0000F900FBE0F901F9018951F920F920FB648
:104AF0000F9211242F938F939F93EF93FF932CB1D9
:104B00009091EB018091EC019817D8F4E091EF01BE
:104B1000F091F00121938091F201815021F4809174
:104B2000EC01E81BF1098093F201F093F001E093AE
:104B3000EF019FB7F8948091EB018F5F8093EB01B9
:104B40009FBFFF91EF919F918F912F910F900FBE7B
:104B50000F901F9018951F920F920FB60F9211246D
:104B60002F938F939F93EF93FF9355987894809111
:104B7000E3018823E9F0E091E501F091E60121915C
:104B80008091E901815021F48091E401E81BF10951
:104B9000F093E601E093E5018093E9019FB7F89473
:104BA0008091E30181508093E3019FBF2CB9559A16
:104BB000FF91EF919F918F912F910F900FBE0F90CA
:104BC0001F9018950F931F93CF93DF93EC01062F3F
:104BD000013850F0102F1695CE01612F0E94E2256A
:104BE000C10FD11D011BF4CF9091E30180E8891B17
:104BF000801710F45599FECF83EE91E0BE01402F4F
:104C00000E945A21559ADF91CF911F910F910895DB
:104C10009FB710BC80E189B9F89488E98AB986E821
:104C200080BD8CB15F99FDCF80EC8BB99FBF8BEEBF
:104C300091E063EB71E040E30E94502183EE91E04C
:104C400063EF71E040E80E945021089520919601A1
:104C5000263011F42FEF0EC02F5F209396012150C4
:104C6000E22FFF27E7FDF095EE0FFF1FE657FE4FFF
:104C700091838083822F0895CF93DF93CAE8D1E098
:104C8000E881F981309709F00995229681E0C639CB
:104C9000D807B1F7DF91CF91089580918401909169
:104CA000850190937A028093790280918601909198
:104CB0008701909374028093730208959C01E091A0
:104CC0008801F09189010EC080819181821793073C
:104CD00031F485818E7F8583148213820895068046
:104CE000F781E02D309781F708959C01E0918801CC
:104CF000F09189010BC0808191818217930719F48B
:104D00008581817008950680F781E02D309799F7AD
:104D100080E00895CF93DF93BC01E0918801F0918A
:104D20008901C0E0D0E02AC0858180FF1EC008C094
:104D30004F5F8D919C9111978617970719F413C0B7
:104D4000DF0140E013960D90BC91A02D109781F7E4
:104D500040E009C085818E7F8583838194811482A0
:104D600013824150FC014423A9F780819181861769
:104D7000970709F4EF010680F781E02D3097A1F63F
:104D8000209719F08D8187608D83DF91CF910895F1
:104D9000CF93DF93EC01A0918801B09189010AC003
:104DA0008D919C9111978617970739F016960D9063
:104DB000BC91A02D1097A1F729C01396ED91FC91FD
:104DC0001497309789F0442329F420C08D81897F7E
:104DD0008D831EC08581816085831396ED91FC9142
:104DE00014978581897F8583209721F08D81887F25
:104DF00084608D8315968C911597816015968C93A0
:104E000015971496DC93CE93139702C02097F1F672
:104E1000DF91CF910895BC0180E090E040E00E94D6
:104E2000C8260895DC0115968C9115978E7F1596EE
:104E30008C9315971396ED91FC911497309769F028
:104E40008581816085831396ED91FC911497637041
:104E5000660F8581897F862B858314961C921E920E
:104E600013970895E0918801F09189010CC0828127
:104E70008350863C28F485818E7F8583148213823B
:104E80000680F781E02D309791F70895CF93DF9357
:104E9000FC01DB01C081D18161157105E9F020972A
:104EA00051F012969C9112978A81891758F417969F
:104EB000DC93CE931697B183A0830EC082818917AD
:104EC00028F0EF01EE81FF813097C1F7BF83AE83F9
:104ED0001796FC93EE931697DF91CF9108950F9359
:104EE0001F93CF93DF93082FEB01142F88E090E0FE
:104EF0000E946C28FC01009769F002831170858183
:104F0000887F17821682D183C08314821382812BFB
:104F100082608583CF01DF91CF911F910F9108951A
:104F200082E06DE476E241E00E946F27BC0188E8F0
:104F300091E00E94462708954F925F926F927F9270
:104F40008F929F92AF92BF92CF92DF92EF92FF9299
:104F50000F931F93CF93DF930E94861DC09188010A
:104F6000D09189010F2EF0E0EF2EF0E0FF2EF0E857
:104F70000F2FFFE31F2FF02D5701680148EE442E3D
:104F800043E0542E3701480193C08D8180FF83C0D8
:104F900050927A02409279025092740240927302C7
:104FA00060927B0270927C0280927D0290927E02DF
:104FB00060927502709276028092770290927802E7
:104FC000E881F981309719F0CE01099503C08D81F0
:104FD0008E7F8D83C801B70120917B0230917C02C6
:104FE00040917D0250917E020E94372F7B018C01FF
:104FF000C601B50120917502309176024091770289
:10500000509178020E94372F5B016C012091790248
:1050100030917A0283E0283E380741F48091730290
:1050200090917402885E9340B1F111C0B901882754
:1050300077FD8095982F0E941E2EA80197010E944F
:10504000372F0E94EB2D70937A02609379022091A2
:1050500073023091740283E0283E380789F0B90169
:10506000882777FD8095982F0E941E2EA601950116
:105070000E94372F0E94EB2D70937402609373028D
:1050800060917302709174028091790290917A021A
:105090000E94551210C08E819F81892B31F488EEB9
:1050A00093E068EE73E00E9455120E80DF81C02D00
:1050B000209709F06ACFDF91CF911F910F91FF9058
:1050C000EF90DF90CF90BF90AF909F908F907F90A8
:1050D0006F905F904F900895CF93DF93BC01823023
:1050E000910510F462E070E0A0918102B09182021B
:1050F000ED01E0E0F0E040E050E021C088819981DE
:105100008617970769F48A819B81309719F09383FA
:10511000828304C09093820280938102FE0134C096
:105120006817790738F44115510519F08417950768
:1051300008F4AC01FE018A819B819C01E901209762
:10514000E9F641155105A9F1CA01861B970B049791
:1051500008F4BA01E0E0F0E02AC08D919C9111972B
:1051600084179507F9F46417750781F412968D91E9
:105170009C911397309719F09383828304C0909386
:10518000820280938102FD0132964FC0CA01861BC4
:10519000970BFD01E80FF91F6193719302978D93AF
:1051A0009C9343C0FD01828193819C01D90110979A
:1051B000A1F680917F0290918002892B41F4809129
:1051C0007600909177009093800280937F024091C7
:1051D0007800509179004115510541F44DB75EB703
:1051E0008091740090917500481B590B20917F02AB
:1051F0003091800224173507B0F4CA01821B930B4B
:105200008617970780F0AB014E5F5F4F84179507B5
:1052100050F0420F531F5093800240937F02F901D8
:105220006193719302C0E0E0F0E0CF01DF91CF9194
:105230000895CF93DF93009709F450C0EC012297B3
:105240001B821A82A0918102B0918202109709F10B
:1052500040E050E0AC17BD0708F1BB83AA83FE0114
:1052600021913191E20FF31FAE17BF0779F48D91B1
:105270009C911197280F391F2E5F3F4F3983288348
:1052800012968D919C9113979B838A8341155105AA
:1052900071F4D0938202C093810220C012968D9146
:1052A0009C911397AD01009711F0DC01D3CFFA0167
:1052B000D383C28321913191E20FF31FCE17DF0711
:1052C00069F488819981280F391F2E5F3F4FFA01B9
:1052D000318320838A819B8193838283DF91CF9165
:1052E0000895A0E0B0E0E7E7F9E20C9499308C0172
:1052F000009729F4CB010E946C288C01BAC09EEF64
:10530000E92E9FEFF92EE00EF11E5801A60EB71EF2
:10531000AE14BF0408F4ABC08EEF882E8FEF982E2A
:105320008A0C9B1CE7014881598146175707B8F042
:105330004530510508F49DC0CA01049786179707A8
:1053400008F497C042505040461B570BF40151835C
:10535000408379836883C5010E9419298AC06B0143
:10536000C41AD50AE0918102F0918202A0E0B0E077
:10537000C0E0D0E042C0E815F905A1F520813181F7
:105380002C153D0578F1C90102968C159D05A8F0F4
:105390004E5F5F4F420F531FE701598348832281BD
:1053A0003381109729F013963C932E93129761C086
:1053B00030938202209381025CC0225030402C192D
:1053C0003D0931832083109729F01396FC93EE93C7
:1053D000129704C0F0938202E0938102F701718377
:1053E000608347C080819181C817D90708F4EC0118
:1053F000DF01828193819C01F901309709F0BBCFD5
:10540000400F511F80917F02909180028417950771
:10541000E9F4C617D707D0F42091780030917900CD
:105420002115310541F42DB73EB78091740090915C
:105430007500281B390BA216B306C8F4B09280027F
:10544000A0927F02E7017983688313C0CB010E9499
:105450006C28EC01009759F0F70140815181B801A7
:105460000E943F2AC8010E9419298E0102C000E053
:1054700010E0C801CDB7DEB7ECE00C94B530FB010D
:10548000DC0102C001900D9241505040D8F70895C0
:10549000AEE0B0E0EEE4FAE20C94A1308C0177FFCC
:1054A00002C060E070E8615070407E836D831A83B3
:1054B00009838EE08C83CE010196BA01A9010E9476
:1054C000722A2D813E8137FD09C0EF81F8852E17A4
:1054D0003F070CF4F901E00FF11F10822E96E4E073
:1054E0000C94BD30ABE0B0E0E8E7FAE20C94933006
:1054F0003C012B015A01FC0117821682838181FD38
:1055000003C06FEF7FEFC6C19AE0892E1E01089499
:10551000211C311CF3012381F20123FD859123FF1E
:1055200081912F01882309F4B2C1853239F423FD1A
:10553000859123FF81912F01853229F490E0B301F9
:105540000E94652CE7CF982FFF24EE249924FFE1D9
:10555000FF15D0F09B3269F09C3228F4903259F05C
:10556000933291F40EC09D3249F0903369F441E0DA
:1055700024C052E0F52A84E0F82A28C098E0F92AED
:1055800025C0E0E1FE2A22C0F7FC29C0892F805304
:105590008A3070F4F6FE05C0989C902C1124980E69
:1055A00015C0E89CE02C1124E80EF0E2FF2A0EC0A2
:1055B0009E3229F4F6FC6BC140E4F42A07C09C3605
:1055C00019F450E8F52A02C0983649F4F20123FD97
:1055D000959123FF91912F01992309F0B8CF892F3D
:1055E0008554833018F08052833038F444E050E022
:1055F000A40EB51E5FE359830FC0933631F0933785
:1056000079F0933509F056C020C0F5018081898377
:1056100042E050E0A40EB51E610101E010E012C0AE
:10562000F501C080D180F6FC03C06FEF7FEF02C0B0
:10563000692D70E042E050E0A40EB51EC6010E9444
:105640005A2C8C015FE7F52214C0F501C080D1808F
:10565000F6FC03C06FEF7FEF02C0692D70E042E0FF
:1056600050E0A40EB51EC6010E944F2C8C0150E8DC
:10567000F52AF3FE07C01AC080E290E0B3010E9451
:10568000652CEA948E2D90E008171907A8F30EC038
:10569000F601F7FC8591F7FE81916F0190E0B3016F
:1056A0000E94652CE110EA9401501040011511058B
:1056B00079F7EAC0943611F0993669F5F7FE08C01B
:1056C000F501208131814281538184E090E00AC05C
:1056D000F501808191819C01442737FD4095542F2D
:1056E00082E090E0A80EB91E9FE6F92257FF09C09C
:1056F00050954095309521953F4F4F4F5F4FE0E8D3
:10570000FE2ACA01B901A1012AE030E00E94912CD1
:10571000D82ED21840C0953729F41F2D1F7E2AE0BD
:1057200030E01DC01F2D197F9F3661F0903720F4A7
:10573000983509F0ACC00FC0903739F0983709F0B0
:10574000A6C004C028E030E00AC0106114FD146057
:1057500020E130E004C014FD166020E132E017FFC4
:1057600008C0F501608171818281938144E050E03D
:1057700008C0F50180819181BC0180E090E042E0A9
:1057800050E0A40EB51EA1010E94912CD82ED21873
:105790008FE7F82EF122F6FE0BC05EEFF522D9144A
:1057A00038F4F4FE07C0F2FC05C08FEEF82202C008
:1057B0001D2D01C0192DF4FE0DC0FE01ED0DF11DD2
:1057C0008081803319F499EEF92208C01F5FF2FE40
:1057D00005C003C08F2D867809F01F5F0F2DF3FCE5
:1057E00014C0F0FE0FC01E1510F09D2C0BC09D2C98
:1057F0009E0C911A1E2D06C080E290E0B3010E941B
:10580000652C1F5F1E15C0F304C01E1510F4E11AAD
:1058100001C0EE2404FF0FC080E390E0B3010E94BA
:10582000652C02FF1DC001FD03C088E790E00EC09B
:1058300088E590E00BC0802F867891F001FF02C0D0
:105840008BE201C080E2F7FC8DE290E0B3010E94A0
:10585000652C06C080E390E0B3010E94652C9A9409
:10586000D914C0F3DA94F101ED0DF11D808190E0BF
:10587000B3010E94652CDD20A9F706C080E290E00C
:10588000B3010E94652CEA94EE20C1F743CEF301E8
:1058900066817781CB012B96E2E10C94AF30FC015D
:1058A0000590615070400110D8F7809590958E0F4B
:1058B0009F1F0895FC016150704001900110D8F7BE
:1058C000809590958E0F9F1F08950F931F93CF93F0
:1058D000DF938C01EB018B8181FF1BC082FF0DC028
:1058E0002E813F818C819D812817390764F4E881DE
:1058F000F9810193F983E88306C0E885F985802F53
:105900000995892B31F48E819F8101969F838E8327
:1059100002C00FEF1FEFC801DF91CF911F910F91D0
:105920000895FA01AA27283051F1203181F1E89435
:105930006F936E7F6E5F7F4F8F4F9F4FAF4FB1E082
:105940003ED0B4E03CD0670F781F891F9A1FA11D7D
:10595000680F791F8A1F911DA11D6A0F711D811D7E
:10596000911DA11D20D009F468943F912AE0269F43
:1059700011243019305D3193DEF6CF010895462FA2
:105980004770405D4193B3E00FD0C9F7F6CF462F83
:105990004F70405D4A3318F0495D31FD40524193EC
:1059A00002D0A9F7EACFB4E0A695979587957795A9
:1059B0006795BA95C9F700976105710508959B0130
:1059C000AC010A2E06945795479537952795BA95B9
:1059D000C9F7620F731F841F951FA01D08955058AB
:1059E000BB27AA270ED0EDC1B6D130F0BBD120F035
:1059F00031F49F3F11F41EF486C10EF4E095E7FBED
:105A00007CC1E92F00D280F3BA17620773078407BD
:105A1000950718F071F49EF518C20EF4E0950B2E60
:105A2000BA2FA02D0B01B90190010C01CA01A001F0
:105A30001124FF27591B99F0593F50F4503E68F14B
:105A40001A16F040A22F232F342F4427585FF3CF8C
:105A5000469537952795A795F0405395C9F77EF45D
:105A60001F16BA0B620B730B840BBAF09150A1F0A6
:105A7000FF0FBB1F661F771F881FC2F70EC0BA0F2C
:105A8000621F731F841F48F4879577956795B795B4
:105A9000F7959E3F08F0B3CF9395880F08F09927AC
:105AA000EE0F979587950895DF93DD27B92FBF7780
:105AB00040E85FE31616170648075B0710F4D92F76
:105AC000CFD19F938F937F936F937CD2E4E5F0E0E7
:105AD0001DD177D12F913F914F915F91D4D1DD238B
