:100000000C94C1010C94DE010C94DE010C94DE0111
:100010000C94651A0C94DE010C94DE010C94FE170E
:100020000C9408180C94DE010C94ED170C94DE016E
:100030000C94DE010C949F1A0C94D51A0C94DE01DA
:100040000C949B130C94DE010C94DE010C94DE01E5
:100050000C94DE01084AD73B3BCE016E84BCBFFD49
:10006000C12F3D6C74319ABD56833DDA3D00C77F88
:1000700011BED9E4BB4C3E916BAAAABE0000008021
:100080003F05A84CCDB2D44EB93836A9020C50B9B0
:10009000918688083CA6AAAA2ABE000000803F06D6
:1000A00064EC1B3C04BC163E3BE5B93CC93C37C282
:1000B0009E5A3D660498083EEA69AAAA3E000000DE
:1000C000803F646F6E652072756E6E696E67206F1B
:1000D0002F210072756E7320696E20322073656364
:1000E0002100646F6E652070617273696E67210014
:1000F0004D6F6F6F6F6F76652025640064656C745B
:10010000613A202564006D6F75736553656E735297
:100110003A202564006D6F75736553656E734C3AB4
:10012000202564007374616E64207374696C6C00C4
:100130006472697665007475726E2072696768749E
:10014000007475726E206C6566740053756D3A208C
:100150002564004C69676874706F733A20256400E9
:10016000523A2564204C3A20256400446973744C4B
:100170003D2564004C696E6B736B7572766520006B
:1001800044697374523D2564005265636874736BEF
:100190007572766500446973744C3D25642020496E
:1001A000523D2535640044697374523D2564202016
:1001B00049523D25356400416368742100476574E8
:1001C00074696E6720617761792E2E2E00547572E6
:1001D0006E696E672072696768742E2E2E005475E2
:1001E000726E696E67206C6566742E2E2E004C2030
:1001F0003D2025640052203D202564004B616B6545
:10020000726C616B6500466F6C6C6F77696E672E00
:100210002E2E005475726E696E672072696768745D
:100220002E2E2E005475726E696E67206C65667492
:100230002E2E2E004C203D2025640052203D2025EE
:1002400064004D6F74746500257300257300257379
:10025000004552524F523A00706172616D20257311
:10026000006664656320656E6400626F6479206572
:100270006E64006E617469766500626F64792062F5
:100280006567696E0066756E6320656E64006675ED
:100290006E6320626567696E007661727320656EB9
:1002A00064007661727320626567696E00666465DA
:1002B0006320626567696E202573006C6973742022
:1002C000656E64006C69737420626567696E0063B3
:1002D000616C6C20257300696E74202564004E5596
:1002E0004C4C00256400656D7074792065787072DF
:1002F0000074797065206F722076616C7565006995
:100300006E76616C6964207479706500696E7661DF
:100310006C69642074797065006578706563740039
:10032000746F6B656E2070616E69632021210056C9
:10033000616C75653A20257300256420546F6B65E8
:100340006E3A20256400494E46494E4954594E4163
:100350004ECDCCCC3D0AD7233C17B7D13877CC2B28
:10036000329595E6241FB14F0A000020410000C8D5
:100370004200401C4620BCBE4CCA1B0E5AAEC59D56
:10038000740011241FBECFE5D8E0DEBFCDBF10E062
:10039000A0E6B0E0E0E7F5E702C005900D92AE3FC1
:1003A000B107D9F713E0AEEFB0E001C01D92A43160
:1003B000B107E1F70E94B5090C94B63A0C9400001D
:1003C00020E030E0861B970B97FF03C09095819546
:1003D0009F4F4817590714F021E030E0C9010895F4
:1003E000CF93DF930E94D41581E061E00E94AA15AB
:1003F00000D000D085E191E0EDB7FEB79283818314
:100400008091100190911101948383830E9434158F
:100410000F900F900F900F9082E061E00E94AA155C
:1004200000D000D086E091E0EDB7FEB792838183E3
:100430008091120190911301948383830E9434155B
:10044000C0911001D091110180911201909113017E
:10045000C81BD90B0F900F900F900F9083E061E0B5
:100460000E94AA1500D000D08CEF90E0EDB7FEB747
:1004700092838183D483C3830E9434150F900F909D
:100480000F900F90FEEFC43DDF072CF486E990E05B
:100490006AE67FEF1AC0CD52D1401CF08AE69FEF8A
:1004A00012C080911201909113012091100130919E
:1004B0001101820F931F843691051CF480E090E0B7
:1004C00002C086E990E066E970E00E94F50ADF91DB
:1004D000CF9108950F931F93CF93DF938C010E94C8
:1004E000D415C0910801D091090180910601909125
:1004F0000701C81BD90B82E061E00E94AA1500D059
:1005000000D000D0EDB7FEB7319680E691E0ADB7F0
:10051000BEB712969C938E9311978091080190918B
:10052000090193838283809106019091070195834D
:1005300084830E943415EDB7FEB736960FB6F89453
:10054000FEBF0FBEEDBF83E061E00E94AA1500D0A0
:1005500000D083E591E0ADB7BEB712969C938E9321
:1005600011971496DC93CE9313970E9434150F9035
:100570000F900F900F9084E061E00E94AA1500D0C8
:1005800000D08BE491E0EDB7FEB792838183809138
:100590000801909109012091060130910701820F15
:1005A000931F948383830E9434150F900F900F90B4
:1005B0000F9081E061E00E94AA15C135D10594F049
:1005C00000D081E491E0ADB7BEB712969C938E93B4
:1005D00011970E9434150F900F9088E39FEF68ECFD
:1005E00070E047C0C05BDF4F84F400D086E391E049
:1005F000EDB7FEB7928381830E9434150F900F9060
:1006000088EC90E068E37FEF34C08091080190911E
:1006100009012091060130910701820F931F8C522E
:100620009140C4F400D080E391E0ADB7BEB712961C
:100630009C938E9311970E94341588EC90E0089F4C
:10064000B001099F700D189F700D11240F900F902D
:10065000CB010FC000D084E291E0EDB7FEB79283EA
:1006600081830E9434150F900F9080E090E060E04D
:1006700070E00E94F50ADF91CF911F910F910895CC
:10068000809140028B3040F00E94F208882321F4D0
:100690000E94E6079C0102C020E030E0C9010895F5
:1006A0000E944003FC01009719F420E030E004C0F0
:1006B00082818F77282F30E0C9010895EF92FF9251
:1006C0000F931F93CF93DF937C01162F072F80E4A6
:1006D00092E0F70143810E94C416C82FD0E009C000
:1006E0004C1B80E492E0612F702F0E94C416C80F4B
:1006F000D11DF7014381842F90E0C817D90784F3F7
:10070000812F902FDF91CF911F910F91FF90EF904C
:100710000895EF92FF920F931F93CF93DF930E9460
:100720006117182F092F0E94D41500D087EB91E094
:10073000ADB7BEB712969C938E9311970E94341555
:100740000F900F9082E061E00E94AA1500D000D0C7
:1007500000D0EDB7FEB7319686EA91E0ADB7BEB7EF
:1007600012969C938E9311978091620090916300F2
:1007700093838283148305830E943415EDB7FEB7FB
:1007800036960FB6F894FEBF0FBEEDBF83E061E072
:100790000E94AA1500D000D000D0EDB7FEB7319668
:1007A00085E991E0ADB7BEB712969C938E931197F1
:1007B000809160009091610093838283148305830C
:1007C0000E943415EDB7FEB736960FB6F894FEBF0B
:1007D0000FBEEDBF84E061E00E94AA1500D089E859
:1007E00091E0ADB7BEB712969C938E9311970E947D
:1007F0003415C0E0D0E00F900F9090E8E92E91E022
:10080000F92E70C08CE291E060E070E00E94F50A81
:100810000E946117B0E286319B07A1F1E0E28731C7
:100820009E0764F4F0E281319F0711F120E28531E7
:10083000920771F180519042A1F514C0B8E2813164
:100840009B07B1F0E8E282319E0724F48051984280
:1008500041F508C028E285319207D1F086519842CF
:1008600001F510C08091620090916300019605C06F
:100870008091620090916300019790936300809350
:1008800062000FC08091600090916100019605C0E8
:100890008091600090916100019790936100809336
:1008A000600082E061E00E94AA1500D000D0EDB7A0
:1008B000FEB7F282E182809162009091630094839E
:1008C00083830E9434150F5F1F4F0F900F900F907E
:1008D0000F908091620090916300081719070CF443
:1008E00091CF21968091620090916300C817D9073B
:1008F0001CF400E010E0EDCF84E061E00E94AA1556
:1009000000D084E791E0ADB7BEB712969C938E936A
:1009100011970E943415C0E0D0E00F900F908BE645
:10092000E82E81E0F82E70C080E090E06CE271E08B
:100930000E94F50A0E946117B0E286319B07A1F17F
:10094000E0E287319E0764F4F0E281319F0711F104
:1009500020E28531920771F180519042A1F514C0D7
:10096000B8E281319B07B1F0E8E282319E0724F4BE
:100970008051984241F508C028E285319207D1F0B4
:100980008651984201F510C08091620090916300F9
:10099000019605C080916200909163000197909349
:1009A0006300809362000FC08091600090916100AD
:1009B000019605C08091600090916100019790932D
:1009C00061008093600083E061E00E94AA1500D07E
:1009D00000D0EDB7FEB7F282E18280916000909185
:1009E0006100948383830E9434150F5F1F4F0F9023
:1009F0000F900F900F908091600090916100081708
:100A000019070CF491CF21968091600090916100BC
:100A1000C817D9071CF400E010E0EDCFDF91CF91AB
:100A20001F910F91FF90EF900895CF92DF92EF9278
:100A3000FF920F931F93CF93DF930E94730C0E943A
:100A4000D41500D08CEF91E0EDB7FEB7928381838F
:100A50000E9434150F900F9082E061E00E94AA1569
:100A600000D000D085EF91E0EDB7FEB7928381838F
:100A70008091080190910901948383830E94341529
:100A80000F900F900F900F9083E061E00E94AA15E5
:100A900000D000D08EEE91E0EDB7FEB79283818357
:100AA0008091060190910701948383830E943415FD
:100AB0000F900F900F900F90209108013091090135
:100AC0008091060190910701281739072CF0C0E0AA
:100AD000D0E00DEC11E054C0C0E0D0E00EED11E02C
:100AE00020C0880F991F281739072CF48AE69FEF3A
:100AF00066E970E004C08AEB9FEF64E670E00E9454
:100B0000F50A219684E061E00E94AA1500D0EDB7B5
:100B1000FEB7128301830E9434150F900F900E943C
:100B2000730C209108013091090180910601909188
:100B300007012817390794F5C431D10591F62EC065
:100B4000880F991F281739072CF486E990E06AE688
:100B50007FEF04C084E690E06AEB7FEF0E94F50A25
:100B6000219684E061E00E94AA1500D0EDB7FEB79F
:100B7000128301830E9434150F900F900E94730C12
:100B8000809108019091090120910601309107019F
:100B9000281739071CF4C431D10591F6C0E0D0E024
:100BA0002DEBC22E21E0D22E29C00E94730C84E0CE
:100BB00061E00E94AA1580910801909109018017B7
:100BC000910764F480910601909107018E159F05AD
:100BD0002CF48CE99FEF6CE97FEF04C084E690E091
:100BE00064E670E00E94F50A219600D0EDB7FEB7EA
:100BF000D282C1820E9434150F900F90009108019B
:100C000010910901E0900601F0900701C8018E19CA
:100C10009F0997FF03C0909581959F4F06971CF4FD
:100C2000C837D10511F6DF91CF911F910F91FF9039
:100C3000EF90DF90CF9008950F931F93CF93DF93A2
:100C40000E94730C0E94D41500D082E492E0EDB7AC
:100C5000FEB7928381830E9434150F900F9082E03B
:100C600061E00E94AA1500D000D08BE392E0EDB7BE
:100C7000FEB792838183809108019091090194834A
:100C800083830E9434150F900F900F900F9083E094
:100C900061E00E94AA1500D000D084E392E0EDB795
:100CA000FEB792838183809106019091070194831E
:100CB00083830E943415C0E0D0E00F900F900F9016
:100CC0000F9004E212E016C08AE69FEF66E970E03A
:100CD0000E94F50A219684E061E00E94AA1500D0E6
:100CE000EDB7FEB7128301830E9434150F900F9069
:100CF0000E94730C20910801309109018091060136
:100D00009091070182179307DCF4C431D105E1F615
:100D100017C086E990E06AE67FEF0E94F50A219607
:100D200084E061E00E94AA1500D0EDB7FEB71283FF
:100D300001830E9434150F900F900E94730C04C021
:100D4000C0E0D0E003E112E0809108019091090138
:100D5000209106013091070182179307DCF4C4311A
:100D6000D105B9F617C0219686E990E066E970E0F2
:100D70000E94F50A84E061E00E94AA1500D0EDB758
:100D8000FEB7128301830E9434150F900F900E94CA
:100D9000730C04C0C0E0D0E006E012E0209108012E
:100DA000309109018091060190910701281B390BB0
:100DB00037FF03C0309521953F4F233031051CF498
:100DC000C837D10581F6DF91CF911F910F9108951A
:100DD0000F931F93CF93DF930E944003EC01009782
:100DE00021F48981833209F0B9C08A818F7790E03C
:100DF00085309105A1F1863091058CF48230910502
:100E000009F18330910524F4019709F0A7C015C0BA
:100E100083309105D1F0049709F0A0C01DC0873040
:100E2000910519F187309105ECF08D36910501F1AE
:100E30008437910509F092C048C01092FF001092CB
:100E4000FE008CC081E090E002C082E090E09093D0
:100E5000FF008093FE0082C083E090E0F8CF84E042
:100E600090E0F5CF85E090E0F2CF86E090E0EFCF24
:100E70000E94D41581E061E00E94AA152091000132
:100E8000309101012F5F3F4F30930101209300010A
:100E900000D000D080EF90E0EDB7FEB79283818361
:100EA000348323830E94341587E090E09093FF0001
:100EB0008093FE000F900F900F900F906E817F81B6
:100EC0008C819D810E94F50A49C087E090E0909353
:100ED000FF008093FE000E94732D8C010E94D415A8
:100EE00081E061E00E94AA1500D082EE90E0EDB7AB
:100EF000FEB7928381830E9434150F900F9082E099
:100F000061E00E94AA1500D083ED90E0EDB7FEB736
:100F1000928381830E9434150F900F9080ED97E0AB
:100F20000E94E114C80168E070E040E250E00E94D5
:100F30006F260E94D41581E061E00E94AA1500D0BE
:100F400082EC90E0EDB7FEB7928381830E94341566
:100F50000F900F9080E197E20E94E1148091FE00D3
:100F60009091FF008330910521F18430910530F498
:100F70008130910561F0029768F411C085309105C8
:100F8000F1F085309105C0F00697D9F40FC081E0EB
:100F900090E002C08FEF9FEF0E946A0212C080E0D3
:100FA00090E060E070E00E94F50A0BC00E94F00142
:100FB00008C00E941C0605C00E94150502C00E94C0
:100FC0008903DF91CF911F910F9108958EEE91E0EB
:100FD00008950F93DF93CF93CDB7DEB72B970FB65E
:100FE000F894DEBF0FBECDBFFA01D9019EE399830D
:100FF0008A836F776B830C834115510529F08081BB
:1010000091819E838D8302C01E821D82109729F0DC
:101010008D919C9198878F8302C018861F82809142
:101020006600909167009A87898701969093670080
:10103000809366008CE38B87CE0101966BE00E9463
:101040000C1B2B960FB6F894DEBF0FBECDBFCF9111
:10105000DF910F9108958F929F92AF92BF92CF929E
:10106000DF92EF92FF920F931F93DF93CF9300D005
:101070000F92CDB7DEB70E94901821E0E22EF12C3E
:1010800092E0C92ED12CCC0EDD1E4E010894811C9D
:10109000911C80E1A82E8EE0B82EFB82EA8280E5CA
:1010A0006EE4A601960106E30E94E90700E010E065
:1010B0000E9450188983C40161E00E940C1BC50185
:1010C0000197F1F70F5F1F4F0633110589F786E38C
:1010D00090E0E80EF91E95E4E91691E0F906E9F6CC
:1010E0000F900F900F90CF91DF911F910F91FF9074
:1010F000EF90DF90CF90BF90AF909F908F9008952A
:101100000F938091EF01823559F0833518F48035C3
:1011100029F42FC0873519F18C36E1F080E02CC01E
:101120002091F2013091F3014091640050916500EB
:1011300040705870CA01822B932B9093B801809312
:10114000B701232BC1F04095509550936500409313
:10115000640011C08091F2010E946E170CC087E5F7
:1011600062E540E050E020E030E000E00E94E90766
:1011700002C00E942B0881E00F910895EF92FF9228
:101180000F931F93102F0E94E907C701612F0E9440
:101190000C1B1F910F91FF90EF9008950F931F93D9
:1011A000CF93DF93E8010115110511F410E00EC093
:1011B000D8010D900020E9F71197A01BB10BAF3FAC
:1011C000B10519F010F01FEF01C01A2F012F0E9476
:1011D000E907CE01612F0E940C1BDF91CF911F9177
:1011E0000F910895AF92BF92CF92DF92EF92FF924C
:1011F0000F931F93DF93CF93CDB7DEB768970FB6EA
:10120000F894DEBF0FBECDBF1B828E010D5F1F4F56
:1012100080E492E0B8014BE00E94C416482FF82EFB
:10122000F80120E001C02F5F24171CF481918E3358
:10123000D1F7022F112707FD1095BE016D5F7F4F7B
:10124000FB01E00FF11F80818E3309F047C086E17A
:1012500090E0801B910B0B9708F440C0822F841BF9
:10126000482F465F14163CF58091000290910102D0
:101270009A8389835E010894A11CB11C6B013BE039
:10128000E32EE20E80910002F5019081891B8933E3
:1012900028F56F2D772767FD70956C0D7D1D80E417
:1012A00092E00E94C416682F6F0D4E2D461B141637
:1012B00014F4F62EE7CFFE013396E00FF11F82857E
:1012C0008C3361F4DF01EEEEF1E002C08D91819389
:1012D00081E0E93FF807D1F780E001C08FEF689621
:1012E0000FB6F894DEBF0FBECDBFCF91DF911F9137
:1012F0000F91FF90EF90DF90CF90BF90AF90089547
:101300001BBA1ABA18BA17BA15BA14BA12BA11BA5D
:1013100088E10FB6F89481BD11BC0FBE0E945B1A24
:1013200004B600FE09C084B78E7F84BF84E690E0D7
:101330000E94E1140C94000084E690E00E94E11405
:101340000E94321B0E940E140E94E3150E9488170F
:101350000E94F20A0E94101A0E947B300E946B17B2
:101360000E949C180E94291208950E9480090E94E0
:1013700011190E94E806FBCFCF92DF92EF92FF9205
:101380000F931F938C017B016A010E94D41581E0A9
:1013900061E00E94AA1500D081E592E0EDB7FEB7AA
:1013A000928381830E9434150F900F9082E061E058
:1013B0000E94AA1500D000D08EE492E0EDB7FEB7EF
:1013C00092838183148303830E9434150F900F90BE
:1013D0000F900F9082E062E00E94AA1500D000D02A
:1013E0008BE492E0EDB7FEB792838183F482E382CF
:1013F0000E9434150F900F900F900F9082E063E0E1
:101400000E94AA1500D000D088E492E0EDB7FEB7A4
:1014100092838183D482C3820E9434150F900F90EF
:101420000F900F90FFCFAF92BF92CF92DF92EF92CB
:10143000FF920F931F935B016C0179018A01CA012E
:10144000B9019F772FE632E143E85AE30E940D3954
:1014500018168CF5C601B5019F772FE632E143E8F7
:101460005AE30E940D39181634F5C801B701A601D8
:1014700095010E9464370E94353720EE3EE245E632
:1014800052E40E9418397B018C01C601B50120E0AD
:1014900030E040E050E00E945D3788230CF055C0FA
:1014A000C801B70120E030E044E353E40E94D136A4
:1014B0007B018C014AC0C601B5019F772FE632E15E
:1014C00043E85AE30E945D37181604F1C801B701DA
:1014D00020E030E040E050E00E940D3918165CF04A
:1014E0000F2EF0E0EF2EF0E0FF2EF4EB0F2FF2ECDA
:1014F0001F2FF02D2AC00F2EF0E0EF2EF0E0FF2E70
:10150000F4EB0F2FF2E41F2FF02D1FC0C601B50121
:1015100020E030E040E050E00E940D3918165CF009
:101520000F2EF0E0EF2EF0E0FF2EF4E30F2FF3E4A8
:101530001F2FF02D0AC00F2EF0E0EF2EF0E0FF2E4F
:10154000F0E00F2FF0E01F2FF02DC801B701209120
:101550004B0130914C0140914D0150914E010E9440
:10156000D0367B018C0120E030E044E353E40E945C
:101570000D39181654F4C801B70120E030E044EBEF
:1015800053E40E94D0367B018C01C801B70120E0F2
:1015900030E044E353EC0E945D37882354F4C801E3
:1015A000B70120E030E044EB53E40E94D1367B01E8
:1015B0008C01B701C8011F910F91FF90EF90DF9050
:1015C000CF90BF90AF900895813049F4662339F0F1
:1015D000673010F467E003C06F3008F06EE00E94DF
:1015E000E01708950E94911708951F93CF93DF93FA
:1015F0009C01EB0197FD02C091E004C0309521955C
:101600003F4F9FEFD7FD02C011E004C0D095C195B8
:10161000DF4F1FEF83E0283E380719F420E030E069
:101620000FC081E0233C38071CF022EC31E008C0F9
:101630002115310529F02233310514F422E330E07D
:1016400083E0C83ED80719F4C0E0D0E00EC081E0C6
:10165000C33CD8071CF0C2ECD1E007C0209729F0AA
:10166000C233D10514F4C2E3D0E08091F901913086
:1016700041F48E7F8093F90130930301209302019E
:101680000BC081608093F90188279927821B930BF7
:10169000909303018093020127393105C4F4211589
:1016A000310519F460E070E023C0B901882777FDA7
:1016B0008095982F0E94FF3722EE39E541E95EE3DD
:1016C0000E9418390E94D1376E5C7F4F11C0B9015A
:1016D000882777FD8095982F0E94FF372BE233E211
:1016E00044E85FE30E9418390E94D1376E51704080
:1016F00070930702609306028091F901113041F462
:101700008D7F8093F901D0930501C09304010BC034
:1017100082608093F901882799278C1B9D0B9093F9
:10172000050180930401C739D105BCF4209719F451
:1017300060E070E023C0BE01882777FD8095982F78
:101740000E94FF3722EE39E541E95EE30E94183935
:101750000E94D1376E5C7F4F11C0BE01882777FD94
:101760008095982F0E94FF372BE233E244E85FE335
:101770000E9418390E94D1376E5170407093050253
:101780006093040280E00E94BC1781E00E94BC17B5
:10179000DF91CF911F9108950F931F93CF93DF9304
:1017A0008C01EB01E199FECF8CE390E09FBB8EBBF7
:1017B000E09A6DB3862F90E08850984F8217930778
:1017C00014F42FEF06C083E0359527958A95E1F74D
:1017D000261BE199FECF445F5F4F5FBB4EBB4C5071
:1017E0005040E09A8DB3821718F480E097E004C06F
:1017F000425F5F4F87E09EE060E00EC0E199FECF60
:101800005FBB4EBBE09A6DB3621718F4882339F0C2
:1018100009C04E5F5F4F8F5F891780F303C084E676
:1018200090E036C0CA010297E199FECF9FBB8EBB04
:10183000E09AEDB3E199FECF01969FBB8EBBE09A93
:101840003DB3E199FECF4F5F5F4F5FBB4EBBE09A68
:101850009DB3E617D9F0FE2FF61B6F2F80E0931B88
:1018600070E00E942B3AE21B8E2F90E0AC01649F47
:10187000C001659F900D749F900D1124930F9A38AD
:1018800028F485E0989FC001112402C087EE93E000
:10189000F80191838083888180958883DF91CF913F
:1018A0001F910F910895AC0120916800309169005B
:1018B0008217930754F480916A0090916B00481747
:1018C00059071CF420E030E00CC080916A00909130
:1018D0006B002817390719F421E030E002C0281BFB
:1018E000390BC90108952F923F924F925F926F92E8
:1018F0007F928F929F92AF92BF92CF92DF92EF92A0
:10190000FF920F931F93DF93CF93CDB7DEB7659709
:101910000FB6F894DEBF0FBECDBF8091FF01282F18
:10192000332727FD30958091FB019091FC01280F12
:10193000391F3B8B2A8B3093FC012093FB01809154
:10194000FA01482F552747FD50958091FD01909150
:10195000FE01480F591F5D8B4C8B5093FE01409345
:10196000FD019091000280918501592F581B593338
:1019700008F420C2909385018FB7F8944091170125
:1019800050911801E0911901F0911A018FBF8091D7
:10199000690190916A01BA01681B790B2091670176
:1019A000309168017F01E21AF30A50936A01409373
:1019B0006901F0936801E0936701882777FD8095BE
:1019C000982F0E94FF3726EE30E04EE350E40E944D
:1019D00018393B014C010027F7FC0095102FC80176
:1019E000B7010E94FF3726EE30E04EE350E40E943C
:1019F00018391B012C01A40193010E94D03626E660
:101A000036E642EC52E40E9464375B016C0120E050
:101A100030E040E050E00E945D378823E1F0C601ED
:101A2000B50120E030E040E05FE30E9418390E94F9
:101A30007B397B018C01C401B301A20191010E9499
:101A4000D136A80197010E941839A60195010E947C
:101A500064373B014C01C601B50125E33AEF4EE87E
:101A60005CE30E94643720911B0130911C0140917E
:101A70001D0150911E010E94D13608C0C801B70156
:101A800020E030E044EB53E40E94D0367B018C012F
:101A900020E030E044EB53E40E940D3987FFEECFA5
:101AA0000AC0C801B70120E030E044EB53E40E94D3
:101AB000D1367B018C01C801B70120E030E040E065
:101AC00050E00E945D3787FDECCFE0921B01F09261
:101AD0001C0100931D0110931E01C801B70125E3ED
:101AE0003AEF4EE85CE30E9418397B018C01C80193
:101AF0000E9461379B01AC01C401B3010E941839F7
:101B00009B01AC0160911F01709120018091210126
:101B1000909122010E94D13660931F0170932001A1
:101B20008093210190932201B701C8010E947B3963
:101B30009B01AC01C401B3010E9418399B01AC01A7
:101B400060912301709124018091250190912601DB
:101B50000E94D13660932301709324018093250164
:101B60009093260180918101909182016C897D89F9
:101B7000681B790B882777FD8095982F0E94FF3787
:101B800026E636E646E65EE30E9418397B018C01C4
:101B9000209133013091340140913501509136014B
:101BA0000E94D1365B016C01609333017093340164
:101BB000809335019093360160917701709178019F
:101BC0008091790190917A01A80197010E94D13604
:101BD00060937701709378018093790190937A01F3
:101BE000C601B50120E030E044EB53E40E940D391A
:101BF000882384F0C601B50120E030E044EB53E4D3
:101C00000E94D03660933301709334018093350184
:101C100090933601E0903301F0903401009135014A
:101C200010913601C801B70120E030E040E050E0FB
:101C30000E945D37882384F4C801B70120E030E0BA
:101C400044EB53E40E94D136609333017093340126
:101C5000809335019093360180917F0190918001AE
:101C60006A897B89681B790B882777FD8095982F77
:101C70000E94FF373B014C0127EE31EB4AE75DE361
:101C80000E9418399B01AC0160917B0170917C012D
:101C900080917D0190917E010E94D13660937B01FD
:101CA00070937C0180937D0190937E01209033019D
:101CB000309034014090350150903601C201B1019D
:101CC00025E33AEF4EE85CE30E9418397B018C0172
:101CD000C8010E9461379B01AC01C401B3010E949D
:101CE000183927EE31EB4AE75DE30E94183920915D
:101CF0003701309138014091390150913A010E94E9
:101D0000D1365B016C01CB01D601809337019093F2
:101D10003801A0933901B0933A01B701C8010E947C
:101D20007B399B01AC01C401B3010E94183927EE35
:101D300031EB4AE75DE30E94183920913B01309175
:101D40003C0140913D0150913E010E94D1369B01E2
:101D5000AC0120933B0130933C0140933D015093F3
:101D60003E01AC89BD89B0938201A0938101EA89CB
:101D7000FB89F0938001E0937F0120924B01309228
:101D80004C0140924D0150924E019501A6012093C5
:101D90004F01309350014093510150935201AC01D7
:101DA000CB01DA018093530190935401A093550124
:101DB000B09356012091000230910102809183017D
:101DC00090918401A901481B590BCA018D58954077
:101DD00008F410C330938401209383018FB7F894E3
:101DE000C0901701D0901801A0901901B0901A016D
:101DF0008FBF8091650190916601B601681B790BD8
:101E0000882777FD8095982F0E94FF3728ED30E2D4
:101E100042E353E40E94183920E030E040E752E406
:101E20000E94643720E030E040E850E40E94183916
:101E30007B018C0160932701709328018093290115
:101E400090932A018091630190916401B501681B10
:101E5000790B882777FD8095982F0E94FF3728ED12
:101E600030E242E353E40E94183920E030E040E7DA
:101E700052E40E94643720E030E040E850E40E94E1
:101E800018399B01AC0160932B0170932C01809356
:101E90002D0190932E01C801B7010E94D13620E098
:101EA00030E040E05FE30E94183960932F017093A7
:101EB00030018093310190933201D0926601C0923B
:101EC0006501B0926401A092630160917B01709101
:101ED0007C0180917D0190917E0120E030E040E81E
:101EE00050E40E9418396E877F87888B998B6093A6
:101EF0003F01709340018093410190934201A09073
:101F00007301B0907401C0907501D0907601C60144
:101F1000B50120E030E044EB52E40E945D378823B5
:101F200041F1C601B50120E030E047E853E40E94EA
:101F30005D378823F1F0E0903301F0903401009197
:101F4000350110913601C801B70120E030E044EBC3
:101F500052E40E945D37882361F0C801B70120E098
:101F600030E047E853E40E945D37882311F019867A
:101F70006AC0C601B50120E030E044EB52E40E94A3
:101F8000D1366093730170937401809375019093BF
:101F90007601609133017091340180913501909107
:101FA000360120E030E044EB52E40E94D1366093E9
:101FB0003301709334018093350190933601809101
:101FC0006F0190917001A0917101B0917201209107
:101FD0006B0130916C0140916D0150916E01209325
:101FE0006F01309370014093710150937201B058AA
:101FF00080936B0190936C01A0936D01B0936E017F
:102000008091370190913801A0913901B0913A0146
:1020100020913B0130913C0140913D0150913E01A6
:1020200020933701309338014093390150933A019E
:10203000B05880933B0190933C01A0933D01B09335
:102040003E0181E0898760917301709174018091F4
:1020500075019091760125E33AEF4EE85CEB0E9422
:1020600018390E94C6395B016C012091330130910F
:10207000340140913501509136012D833E834F83C9
:102080005887CA01B90125E33AEF4EE85CEB0E949C
:1020900018390E94C6396A877B878C879D87C6015D
:1020A000B5012A853B854C855D850E945D37882377
:1020B000A9F48E859F85A889B9898093470190935B
:1020C0004801A0934901B0934A0180934301909342
:1020D0004401A0934501B0934601E6C0209037012A
:1020E000309038014090390150903A0120913B01E5
:1020F00030913C0140913D0150913E0129833A834A
:102100004B835C836A857B858C859D850E9418390D
:102110009B01AC01C201B1010E94D0363B014C01D0
:10212000C601B50120916B0130916C0140916D01A8
:1021300050916E010E9418399B01AC0160916F01B2
:102140007091700180917101909172010E94D0365E
:102150009B01AC01C401B3010E94D0367B018C010C
:10216000C601B5012A853B854C855D850E94D03628
:102170009B01AC01C801B7010E9464375B016C018F
:102180006A857B858C859D85A60195010E941839FD
:10219000A40193010E94D1369B01AC01C201B1019F
:1021A0000E94D0367B018C0169817A818B819C8170
:1021B000A60195010E94D0365B016C01C801B701F0
:1021C000A80197010E9418397B018C01C601B50155
:1021D000A60195010E9418399B01AC01C801B70105
:1021E0000E94D1360E9485397B018C01A090770135
:1021F000B0907801C0907901D0907A01C601B50104
:1022000020E030E040E050E00E945D37882324F475
:1022100017FB109517F910956E857F858889998928
:1022200020E030E040E050E00E945D37882324F455
:1022300017FB109517F91095C801B70126E636E689
:1022400042E452E40E94D1369B01AC01C601B501C3
:102250000E94183925E33AEF4EE85DE30E941839F1
:1022600060934701709348018093490190934A011C
:10227000C801B70126E636E642E452E40E94D036B1
:102280009B01AC01C601B5010E94183925E33AEF64
:102290004EE85DE30E941839609343017093440156
:1022A00080934501909346013985332399F16D81DF
:1022B0007E818F81988520E030E044EB52E40E94DB
:1022C000D03660933301709334018093350190933D
:1022D00036012091370130913801409139015091F8
:1022E0003A0180913B0190913C01A0913D01B09158
:1022F0003E01B0588093370190933801A093390183
:10230000B0933A0120933B0130933C0140933D014F
:1023100050933E0180E090E0A0E0B0E080937B012C
:1023200090937C01A0937D01B0937E01809377010F
:1023300090937801A0937901B0937A01809137014D
:1023400090913801A0913901B0913A0180936F01C9
:1023500090937001A0937101B093720180913B0141
:1023600090913C01A0913D01B0913E0180936B01A1
:1023700090936C01A0936D01B0936E018091330135
:1023800090913401A0913501B09136018093730191
:1023900090937401A0937501B093760180914301ED
:1023A00090914401A0914501B0914601809357015D
:1023B00090935801A0935901B0935A01809147011D
:1023C00090914801A0914901B0914A0180935B012D
:1023D00090935C01A0935D01B0935E018E859F8513
:1023E000A889B98980935F0190936001A0936101EE
:1023F000B093620165960FB6F894DEBF0FBECDBFF5
:10240000CF91DF911F910F91FF90EF90DF90CF90D0
:10241000BF90AF909F908F907F906F905F904F9004
:102420003F902F90089520918601283011F42FEFCE
:102430000EC02F5F209386012150E22FFF27E7FD7A
:10244000F095EE0FFF1FE957FE4F91838083822F97
:10245000089508951F93182F8091970190919801E6
:10246000892B19F080E80E947E1780918601181749
:1024700074F4E12FFF27E7FDF095EE0FFF1FE957FA
:10248000FE4F0190F081E02D309709F00995809181
:10249000970190919801892B11F00E94E1121092FE
:1024A00098011092970180E80E9474171F91089577
:1024B0002091D9013091DA01820F931F9093DA01B4
:1024C0008093D9018E539E4F8558934020F03093CE
:1024D000DA012093D9012091D9013091DA01C901A3
:1024E0000197C19718F482E390E007C02F5C3F4F3B
:1024F0002133310530F48EEC9FEF9093DA01809315
:10250000D9012091DB013091DC01CB01820F931FB7
:102510009093DC018093DB018E539E4F855893404E
:1025200020F03093DC012093DB012091DB0130911E
:10253000DC01C9010197C19738F482E390E09093E0
:10254000DC018093DB0108952F5C3F4F213331057F
:1025500030F48EEC9FEF9093DC018093DB010895C3
:102560000E9461179C010097A1F0AC014070587067
:1025700080916E0090916F004817590751F0509369
:102580006F0040936E002F73307130939801209349
:10259000970108958A3219F48091B2018F5F809378
:1025A000B2012091B20130E080918601992787FD28
:1025B00090952817390714F01092B2010E94D41593
:1025C0000895809197019091980120E183309207BE
:1025D00009F471C020E184309207E8F48A33910550
:1025E00009F445C08B33910540F48033910509F41B
:1025F00044C0C19709F06CC03EC020E18130920711
:1026000009F453C020E18230920708F051C0CD9701
:1026100009F05EC02EC020E182339207D1F120E1A3
:102620008333920768F420E18C309207A9F020E10F
:102630008932920741F18450904109F049C042C06B
:1026400020E18633920711F120E188339207B9F037
:1026500084539041E9F522C01092DA011092D90119
:102660001092DC011092DB010E941D30089580E081
:1026700007C081E005C082E003C083E001C08AE2B8
:102680000E94CA1208958AE090E005C086EF9FEF8D
:1026900007C086EF9FEF6AE070E004C08AE090E038
:1026A00066EF7FEF0E945812089581E090E005C028
:1026B00082E090E002C083E090E09093ED0180938F
:1026C000EC01089584E090E09093ED018093EC019B
:1026D00008959AB3809598239ABB9BB398239BBB8C
:1026E0000895382F809170008F3F11F41092990156
:1026F000209199012830F0F4822F90E0FC01EE0F38
:10270000FF1FE80FF91FE656FE4F72836183932F78
:10271000977090832F5F20939901809170008F3F75
:1027200049F41092700080E487B987B1982B97B96B
:102730008FEC86B908951F920F920FB60F92112455
:102740002F933F934F938F939F93EF93FF9380919A
:10275000700024B145B1992787FD9095FC01EE0FDB
:10276000FF1FE80FF91FE656FE4F0180F281E02DB2
:10277000942F80E030E0822B932B91838083809193
:102780007000992787FD9095FC01EE0FFF1FE80F61
:10279000F91FE656FE4F12821182809170008F5F02
:1027A000809370008091700088302CF580917000CB
:1027B000992787FD9095FC01EE0FFF1FE80FF91F89
:1027C000E656FE4F81819281892BA9F080E487B97A
:1027D00027B180917000992787FD9095FC01EE0F3D
:1027E000FF1FE80FF91FE656FE4F8081282B27B9FF
:1027F0008FEC86B904C016B88FEF80937000FF91FC
:10280000EF919F918F914F913F912F910F900FBE1C
:102810000F901F901895809170000895EF92FF928D
:102820000F93DF93CF9300D0CDB7DEB71A82198212
:102830000E94321B87E562E57E010894E11CF11CD1
:10284000A701970100E00E94E90787E562E5A7017B
:1028500097010E94E90787E562E5A70197010E94B9
:10286000E90787E562E5A70197010E94E90787E587
:1028700062E5A70197010E94E9070F900F90CF91A1
:10288000DF910F91FF90EF900895CF92DF92EF923A
:10289000FF920F93DF93CF9300D000D0CDB7DEB778
:1028A0008DE46EE442E051E024E031E000E00E947B
:1028B000E9078091BE0189831A828CE66EE46E017D
:1028C0000894C11CD11CA60196010E94E90789E465
:1028D0006EE448E650E02AE630E00E94E90785E42D
:1028E0006EE447E151E029E131E00E94E90782E42A
:1028F0006EE44CE051E02EE031E00E94E9078CE408
:102900006EE440E151E022E131E00E94E90788E411
:102910006EE446E051E028E031E00E94E907809152
:10292000140189831A821C821B8283E0E82EF12C19
:10293000EC0EFD1E84E56EE4A60197010E94E907F6
:102940008091150189831A8284E46EE4A6019701BF
:102950000E94E9078091FA01992787FD90959A8353
:1029600089838091FF01992787FD90959C838B83B4
:102970008DE66EE4A60197010E94E9078091160199
:1029800089831A821C821B8285E66EE4A601970168
:102990000E94E9070F900F900F900F90CF91DF9159
:1029A0000F91FF90EF90DF90CF90089580914002BB
:1029B0008B3030F00E94F208882311F40E948008C6
:1029C0000895AF92BF92CF92DF92EF92FF920F9352
:1029D0001F93BC01A0900002B0900102C0900202BF
:1029E000D0900302809100028A1541F0A09000026D
:1029F000B0900102C0900202D090030280E090E00B
:102A00002DE730E040E050E00E940C3A26E130E053
:102A100040E050E00E94523A79018A012091000280
:102A20003091010240910202509103028091000214
:102A3000821741F020910002309101024091020280
:102A4000509103022A193B094C095D092E153F05D7
:102A50004007510718F31F910F91FF90EF90DF90FF
:102A6000CF90BF90AF900895CF92DF92FF920F93D7
:102A70001F93DF93CF93CDB7DEB769970FB6F89466
:102A8000DEBF0FBECDBFFE01B396419151918E01C5
:102A90000B5F1F4FC80165E170E09F010E94B132DA
:102AA000FF2468010CEB10E00BC062E045E00E94DF
:102AB000281AC8010197F1F785B3887F85BBF39485
:102AC000F601EF0DF11D8081882379F78091B30124
:102AD00089831A828091B4018B831C8283E663E42C
:102AE000AE014F5F5F4F9E012D5F3F4F00E00E94A0
:102AF000E90783E664E440E050E020E030E086014E
:102B00000E94CE088091B3018F0D8093B301699626
:102B10000FB6F894DEBF0FBECDBFCF91DF911F91EE
:102B20000F91FF90DF90CF9008951F93182F62E0D0
:102B300044E00E94281A8CEB90E00197F1F785B3EE
:102B4000887F85BB113021F480EC97E10197F1F784
:102B50001F9108950F931F93182F062F823069F04D
:102B6000833018F4813099F405C0833049F0843003
:102B700071F409C0862F815808C0862F815405C082
:102B8000862F8D5602C0862F8D520E949515802F5C
:102B900090E001978093B301812F90E0019780939B
:102BA000B4011F910F9108950F9381E00E94951534
:102BB00083E663E640E050E020E030E000E00E9481
:102BC000E9070F9108950E94211A84B3876084BB9E
:102BD000A5988CE090E00E94E11488E362E044E074
:102BE0000E94281A85B3887F85BB85E090E00E940B
:102BF000E11488E362E044E00E94281A85B3887FEC
:102C000085BB85E090E00E94E11488E362E044E047
:102C10000E94281A85B3887F85BB85E090E00E94DA
:102C2000E1148FE00E94951581E00E9495150895AA
:102C30008093B501809568E00E94411A08951F9322
:102C4000182F803871F48091B50186FD06C080642C
:102C50008093B50181E08093B6018091B5018F77B3
:102C600014C08091B501103479F487FD09C087E75D
:102C700060E00E9463188091B50180688093B5017F
:102C80008091B5018F7B01C0812B8093B50180912C
:102C9000B5010E941816107C11F0929A92981F911B
:102CA0000895CF93DF93C82FD0E0C07CD07090916F
:102CB000B501209711F0982B02C08095982390932E
:102CC000B5018091B5010E9418168091B60181303E
:102CD00019F480E40E941F16CD2B11F0929A92985D
:102CE000DF91CF9108958A9A0E94211A80E00E9474
:102CF00018160895FC0110827583648373836283C0
:102D000041834783468308950F931F93CF93DF93A7
:102D1000DC01042F14962D913C91159717965C9128
:102D20001797501708F4452F10E019C08991819327
:102D30008E2F821B8417D0F3842F90E0680F791FA9
:102D4000280F391F541B29F411965C911197251BEC
:102D500031091F5F123031F0802F841B482FF90199
:102D6000EB01E6CF17965C93179715963C932E933D
:102D700014979FB7F8948C91800F8C939FBFDF912D
:102D8000CF911F910F9108950F931F93CF93DF93CE
:102D9000DC018C91841708F4482F12962D913C91F8
:102DA000139716965C911697142F541708F4152F45
:102DB00000E019C0899181938E2F861B8117D0F373
:102DC000812F90E0280F391F680F791F511B29F4BC
:102DD00011965C911197251B31090F5F023031F07C
:102DE000842F811B182FFB01E901E6CF13963C933A
:102DF0002E93129716965C9316979FB7F8948C9122
:102E0000841B8C939FBF842FDF91CF911F910F91D3
:102E1000089556B35695509551708091B9018F3FE2
:102E200019F08F5F8093B9018091BA019091B90137
:102E30008517A1F1943008F43FC04091BB014423B1
:102E400091F4513059F49B3F48F081E090E0909329
:102E5000BD018093BC015093BB011DC01092BD0108
:102E60001092BC0118C0983048F19D3090F4252F85
:102E700030E08091BC019091BD01880F991F282BF3
:102E8000392B3093BD012093BC014F5F4093BB01B0
:102E900002C01092BB011092B90110C09D3070F0B9
:102EA0008091BB018E3041F48091BC019091BD01B5
:102EB0009093B8018093B7011092BB015093BA016F
:102EC00008952091B7013091B8011092B801109285
:102ED000B701C9010895B898C09A08958093BE01BA
:102EE00060E10E94411A089580959091BE01892366
:102EF0008093BE0160E10E94411A08959091BE0145
:102F0000982B9093BE01892F60E10E94411A089589
:102F10000E94211A1092BE0180E060E10E94411AD5
:102F20000895A69AA79ABB9A12BE80E683BF88E04E
:102F30008CBF81B3806381BB1DBC1CBC82EF8FBD85
:102F40008CE08EBD8FEF90E09BBD8ABD99BD88BDA2
:102F500010920702109206021092050210920402CB
:102F60008FEF91E09BBD8ABD99BD88BD8091F9012D
:102F70008C7F8093F90108959091F901882381F461
:102F800090FD02C0AE9A01C0AE9820910602309129
:102F900007028FEF91E0821B930B9BBD8ABD0895C2
:102FA00091FF02C0AF9A01C0AF9820910402309106
:102FB00005028FEF91E0821B930B99BD88BD0895A8
:102FC000813051F4662321F483B78A7F83BF08954B
:102FD00083B7856083BF6CBF08951F920F920FB6B1
:102FE0000F9211240F900FBE0F901F901895BB9A4F
:102FF00012BE80E683BF88E08CBF08951F920F92B7
:103000000FB60F9211240F900FBE0F901F901895BE
:103010001F920F920FB60F9211240F900FBE0F90B8
:103020001F90189581B3806381BB1DBC1CBC82EFCF
:103030008FBD8CE08EBD8FEF90E09BBD8ABD99BDAA
:1030400088BD08951F93182F80E80E941F16BE9A0E
:1030500027E0C79898B3812F869580749F7B892B32
:1030600088BB110F2150C79A2F3F99F780E991E053
:103070000197F1F7BE9890E027E0C798990F21508B
:10308000C79A86B38295869586958170982B2F3F37
:10309000A1F7892F1F91089584E00E9422180895B6
:1030A00088E00E942218982F8091BF01813049F456
:1030B00004C088E00E942218982F97FFFACF109240
:1030C000BF01892F08950F931F93182F062F80E8B3
:1030D0000E941F161068BE9A27E0C79898B3812FE8
:1030E000869580749F7B892B88BB110F2150C79ACE
:1030F0002F3F99F7BE9A27E0C79898B3802F8695FF
:1031000080749F7B892B88BB000F2150C79A2F3F6B
:1031100099F780E991E00197F1F71F910F910895D8
:1031200080E061E00E94631888E060E00E9463181C
:1031300081E08093BF01089580E80E941F1684E615
:1031400090E00E94E114BF9AC7988AE090E00E9444
:10315000E11480E060E80E94631880E061E00E9472
:103160006318089596B3929591708091C301981752
:1031700029F09093C3011092C10120C08091C10138
:103180008C3020F48F5F8093C10118C08C30B1F473
:103190008DE08093C1018091F90180FD06C080918E
:1031A000170190911801019605C080911701909127
:1031B00018010197909318018093170190B3969589
:1031C0009695969591708091C201981729F09093E9
:1031D000C2011092C00108958091C0018C3020F48A
:1031E0008F5F8093C00108958C30D1F48DE080937F
:1031F000C0018091F90181FD0AC08091190190916F
:103200001A01019690931A018093190108958091F3
:10321000190190911A01019790931A018093190155
:103220000895CF93DF938CE30E941F16C091000294
:10323000D09101028091C4019091C5019E01281B8B
:10324000390BC9018D519140D0F06091D60170E0E9
:10325000660F771F62537E4F80E00E94711360916A
:10326000D60170E0660F771F6A537E4F81E00E949F
:1032700071138091D6018F5F83708093D60182E0B5
:1032800060E171E00E94711383E062E171E00E94ED
:10329000711384E066E071E00E94711385E068E0DC
:1032A00071E00E94711386E06CE071E00E9471137E
:1032B00087E06EE071E00E94711383E00E942218A3
:1032C0008093FA0182E00E9422188093FF0180B36C
:1032D00082958695869581708093150186B381705D
:1032E0008093140186B3869586958170809316012C
:1032F0000E94730C8091C4019091C5019E01281B0E
:10330000390BC9018D51914008F44EC0D093C501CD
:10331000C093C4010E940B148823E1F32091D001D3
:103320003091D1018091CE019091CF01280F391FAA
:103330008091D2019091D301280F391F8091D4013F
:103340009091D501280F391FE0916C00F0916D002C
:1033500088E690E06AE071E044E050E009950E9460
:103360000B148230E0F32091C8013091C9018091A3
:10337000C6019091C701280F391F8091CA01909111
:10338000CB01280F391F8091CC019091CD01280FDE
:10339000391FE0916C00F0916D008AE690E06BE0DF
:1033A00071E040E250E009950E940B148F3FE1F775
:1033B0008CE30E94511680911401882321F080E152
:1033C0000E947E1703C080E10E947417809116014D
:1033D000882321F088E00E947E1703C088E00E94C5
:1033E00074178091680090916900845F914024F483
:1033F00082E00E947E1703C082E00E9474178091D1
:103400006A0090916B00845F914024F481E00E94F7
:103410007E1703C081E00E947417DF91CF91089559
:103420000E9473168FEF0E94691383E00E941816A2
:103430008E98BA98B898C09ABC988B980E945B1ADC
:10344000089584B38F6184BB85B3807E85BB089566
:10345000382F85B3807E85BB28E095B3832F881FE6
:103460008827881F892B85BB85B3862B85BB330FA7
:1034700085B3807E85BB215081F785B3842B85BBC6
:103480000895382F85B3807E85BB28E095B3832FC0
:10349000881F8827881F892B85BB85B3862B85BB12
:1034A000330F85B3807E85BB215081F7A99A85B300
:1034B000807E85BB089514BC8CE085BD8BE283BD06
:1034C00089B7806889BF789408951F920F920FB6CC
:1034D0000F9211242F933F934F935F936F937F939A
:1034E0008F939F93AF93BF93EF93FF9380910002CD
:1034F00090910102A0910202B09103020196A11DD8
:10350000B11D8093000290930102A0930202B09338
:10351000030278940E9409170E94B218FF91EF915C
:10352000BF91AF919F918F917F916F915F914F91DB
:103530003F912F910F900FBE0F901F9018951F92E3
:103540000F920FB60F9211242F938F939F93EF93A7
:10355000FF932CB190914002809141029817D8F4CA
:10356000E0914402F09145022193809147028150FD
:1035700021F480914102E81BF10980934702F09306
:103580004502E09344029FB7F894809140028F5F18
:10359000809340029FBFFF91EF919F918F912F9158
:1035A0000F900FBE0F901F9018951F920F920FB69D
:1035B0000F9211242F938F939F93EF93FF9355981E
:1035C0007894809138028823E9F0E0913A02F091F2
:1035D0003B02219180913E02815021F48091390279
:1035E000E81BF109F0933B02E0933A0280933E021C
:1035F0009FB7F894809138028150809338029FBF22
:103600002CB9559AFF91EF919F918F912F910F9027
:103610000FBE0F901F9018950F931F93CF93DF93BA
:10362000EC01062F013850F0102F1695CE01612FB6
:103630000E940C1BC10FD11D011BF4CF90913802C9
:1036400080E8891B801710F45599FECF88E392E03B
:10365000BE01402F0E948416559ADF91CF911F9191
:103660000F9108959FB710BC80E189B9F89488E95B
:103670008AB986E880BD8CB15F99FDCF80EC8BB9AB
:103680009FBF80E492E068E072E040E30E947A1617
:1036900088E392E068E472E040E80E947A160895B8
:1036A000FC0120E030E0C9012F5F3F4F309721F04F
:1036B0000480F581E02DF7CF08952F923F924F922D
:1036C0005F926F927F928F929F92AF92BF92CF92B2
:1036D000DF92EF92FF920F931F93DF93CF9300D06F
:1036E00000D000D0CDB7DEB74C012B016624772483
:1036F00057C0F401E680F780CC24DD2412C0F70126
:1037000002811381F80182819381B2010E94853286
:103710000894C11CD11C009709F44FC0F701E48044
:10372000F5805601E114F10451F7F401008511858B
:10373000C60111C0F801E280F380F7018281938114
:10374000B2010E9485329C01C5010196232BC9F06C
:10375000F801048115815C010115110559F7F40187
:103760000285138513C0F801E280F380F70184819C
:103770009581B2010E9485329C01C5010196232BDF
:1037800011F487011AC0F801048115815C0101154B
:10379000110549F7F401828093800894611C711C23
:1037A00013018114910409F0A4CF00E010E0AA24D1
:1037B000AA94BA2C22242A94322C1E830D83BA8216
:1037C000A9823C822B822A2D3A81422D5C81602F76
:1037D0007E8180E090E026960FB6F894DEBF0FBEA3
:1037E000CDBFCF91DF911F910F91FF90EF90DF90B0
:1037F000CF90BF90AF909F908F907F906F905F9091
:103800004F903F902F900895CF92DF92EF92FF92CA
:103810000F931F93DF93CF93CDB7DEB72C970FB6DF
:10382000F894DEBF0FBECDBF8C016B0101151105F1
:1038300009F40FC1F801808191818430910509F468
:10384000B0C08530910568F48130910509F181306F
:103850009105D0F08230910599F0039709F0FFC0EF
:103860005FC08630910509F4BAC08630910598F1A1
:103870008730910509F4EDC0089709F0F0C0B9C090
:10388000F80104811581D2CFF80122813381ECC087
:10389000F80162817381C6010E945D1B2F83388706
:1038A00049875A876B877C87DE011196FE01379620
:1038B00086E001900D928150E1F7ED81FE81309715
:1038C00009F4CDC0808191818930910519F10C975F
:1038D00009F0C5C01FC0F80162817381C6010E9452
:1038E0005D1B2F83388749875A876B877C87DE016A
:1038F0001196FE01379686E001900D928150E1F716
:10390000ED81FE81309709F4AAC0808191810A97E8
:1039100009F0A5C0CF01B6010E94441D9C01A4C0BE
:10392000F80184819581B6010E94041C7C01F80194
:1039300086819781B6010E94041C9C01F801828156
:1039400093818430910539F18430910520F00B97F3
:1039500008F085C010C0F1E0EF16F10491F182E0AB
:10396000E816F10409F07BC02150304022303105C7
:1039700008F075C071C0E1E0EE16F10429F0F2E044
:10398000EF16F10409F06BC02150304022303105B0
:1039900008F065C067C081E0E816F10409F05FC077
:1039A00019C0F80184819581B6010E94041C9C0114
:1039B000F80182819381009721F0019709F04FC0AF
:1039C00009C02130310509F44DC02230310509F01C
:1039D00046C042C02130310509F041C043C0F80162
:1039E00084819581009711F0FC01FACF0281138147
:1039F0001DCFF80184819581B6010E94041C7C01D1
:103A0000F80186819781009711F4C70103C0B601C0
:103A10000E94041CF2E0EF16F10449F023E0E216E4
:103A2000F104B9F0E1E0EE16F104C9F409C0813007
:103A30009105A8F08330910578F0039781F409C0CF
:103A40008230910549F08330910519F0019739F4DE
:103A500009C023E030E008C022E030E005C020E0EB
:103A600030E002C021E030E0C9012C960FB6F89496
:103A7000DEBF0FBECDBFCF91DF911F910F91FF90A1
:103A8000EF90DF90CF900895FC01808191818A3082
:103A90009105B1F08C30910581F0099719F020E083
:103AA00030E010C0248135812115310559F480851D
:103AB00091850E94041C9C0105C02481358102C0AF
:103AC00024853585C9010895CF93DF93EC0161E723
:103AD00070E00E948532009719F421E030E016C0B2
:103AE000CE0165E770E00E948532009719F422E06C
:103AF00030E00CC0CE016CE770E00E948532009788
:103B000019F020E030E002C023E030E0C901DF918D
:103B1000CF910895CF93DF93EC0180ED97E00E9461
:103B2000E114209791F40E94D41581E061E00E9495
:103B3000AA1500D08EED92E0EDB7FEB79283818397
:103B40000E9434150F900F9054C18881998186305E
:103B5000910509F444C08730910530F4009761F075
:103B6000059709F042C11EC08A30910509F45BC077
:103B70000C9709F03AC121C18A819B81019709F014
:103B800034C10E94D41581E061E00E94AA1500D0E2
:103B900000D087ED92E0EDB7FEB7928381838C81F0
:103BA0009D811BC10E94D41581E061E00E94AA158D
:103BB00000D000D08FEC92E0EDB7FEB79283818306
:103BC0008A819B81948383830E9434150F900F9088
:103BD0000F900F908C819D810E948A1D06C10E94CA
:103BE000D41581E061E00E94AA1500D084EC92E037
:103BF000EDB7FEB7928381830E9434150F900F902A
:103C00008A819B810E948A1D0C80DD81C02D2097B6
:103C1000B9F70E94D41581E061E00E94AA1500D096
:103C20008BEB92E0C1C00E94D41581E061E00E945C
:103C3000AA1500D000D08DEA92E0EDB7FEB79283CE
:103C400081838C819D81948383830E9434150F909E
:103C50000F900F900F908E819F810E948A1D0E946D
:103C6000D41581E061E00E94AA1500D082EA92E0BA
:103C7000EDB7FEB7928381830E9434150F900F90A9
:103C8000888599850E948A1D0E94D41581E061E093
:103C90000E94AA1500D089E992E0EDB7FEB79283A1
:103CA00081830E9434150F900F9080ED97E00E9461
:103CB000E1140E94D41581E061E00E94AA1500D0B1
:103CC0008EE892E0EDB7FEB7928381830E943415AF
:103CD0000F900F908A859B850E948A1D0E94D415A3
:103CE00081E061E00E94AA1500D085E892E0EDB77E
:103CF000FEB7928381830E9434150F900F9080ED60
:103D000097E00E94E1140E94D41581E061E00E94D6
:103D1000AA1500D08AE792E0EDB7FEB792838183BF
:103D20000E9434150F900F908E859F85892B29F462
:103D3000888999890E948A1D15C080ED97E00E94AC
:103D4000E1140E94D41581E061E00E94AA1500D020
:103D500083E792E0EDB7FEB7928381830E9434152A
:103D60000F900F9080ED97E00E94E1140E94D4150F
:103D700081E061E00E94AA1500D08AE692E0EDB7EA
:103D8000FEB7928381830E9434150F900F9080EDCF
:103D900097E00E94E1140E94D41581E061E00E9446
:103DA000AA1500D081E692E0EDB7FEB79283818339
:103DB0000E9434150F900F9018C00E94D41581E016
:103DC00061E00E94AA1500D000D088E592E0EDB72E
:103DD000FEB7928381838A819B81948383830E942F
:103DE00034150F900F900F900F9080ED97E00E9488
:103DF000E114DF91CF910895EF92FF920F931F93FB
:103E00008C017B0182E190E00E945731FC012CE0A3
:103E100030E03183208313830283F582E4821F9193
:103E20000F91FF90EF9008952F923F924F925F92E3
:103E30006F927F928F929F92AF92BF92CF92DF92BA
:103E4000EF92FF920F931F931C014B013A0129013E
:103E500082E190E00E945731FC012AE030E031839A
:103E6000208395828482778266825186408613877A
:103E70000287F586E486D786C686B18AA08A338211
:103E800022821F910F91FF90EF90DF90CF90BF9013
:103E9000AF909F908F907F906F905F904F903F90EA
:103EA0002F900895EF92FF920F931F938C017B0147
:103EB00082E190E00E945731FC0126E030E031833E
:103EC000208313830283F582E4821F910F91FF9078
:103ED000EF900895AF92BF92CF92DF92EF92FF9250
:103EE0000F931F936C015B018A01790182E190E0DD
:103EF0000E945731FC0129E030E031832083D382D6
:103F0000C28217830683F186E086B582A4821F9160
:103F10000F91FF90EF90DF90CF90BF90AF900895FA
:103F2000CF92DF92EF92FF920F931F938C017B0150
:103F30006A0182E190E00E945731FC0128E030E004
:103F40003183208313830283F582E482D782C68281
:103F50001F910F91FF90EF90DF90CF900895EF9217
:103F6000FF920F931F938C017B0182E190E00E94EE
:103F70005731FC0127E030E0318320831383028333
:103F8000F582E4821F910F91FF90EF900895CF92F8
:103F9000DF92EF92FF920F931F938C017B016A01D6
:103FA00082E190E00E945731FC0123E030E0318350
:103FB000208313830283F582E482D782C6821F9115
:103FC0000F91FF90EF90DF90CF900895EF92FF92C6
:103FD0000F931F938C017B0182E190E00E94573187
:103FE000FC0122E030E03183208313830283F582D9
:103FF000E4821F910F91FF90EF9008950F931F930C
:104000008C0182E190E00E945731FC0121E030E018
:1040100031832083138302831F910F910895EF92C0
:10402000FF920F931F937B018C0182E190E00E942D
:104030005731FC011182108222E030E03383228369
:10404000E482F582068317831F910F91FF90EF9012
:1040500008950F931F938C0182E190E00E945731E5
:10406000FC011182108221E030E03383228315832A
:1040700004831F910F9108958130910549F081309B
:10408000910598F08230910541F0039769F40DC0D5
:1040900080E090E00E9429200AC060E070E080E0AB
:1040A00090E00E940F2003C003C080E090E0282F22
:1040B000822F0895EF92FF920F931F938C017B0143
:1040C00082E190E00E945731FC0124E030E031832E
:1040D000208313830283F582E4821F910F91FF9066
:1040E000EF900895EF92FF920F931F938C017B0145
:1040F00082E190E00E945731FC0125E030E03183FD
:10410000208313830283F582E4821F910F91FF9035
:10411000EF900895CF93DF93EC016130710599F032
:104120006230710551F54130510581F40E94A62E8F
:104130009B01AC01CA01B9010E94CC37DC01CB0163
:104140000E94C82711C04230510521F0433051056B
:10415000A1F410C00E94A62E882777FD8095982F85
:104160000E94FF370E94CC27AB01BC01CE010E9408
:10417000C82E03C0CE010E94A62EDF91CF910895D4
:10418000CF92DF92EF92FF920F931F938C017B01EE
:104190006A0186E090E00E945731FC0111830083A0
:1041A000F382E282D582C4821F910F91FF90EF903B
:1041B000DF90CF9008950F931F93CF93DF938C01DF
:1041C000EB010AC088819981B8010E94853200976D
:1041D00029F00C80DD81C02D2097A1F7CE01DF9161
:1041E000CF911F910F9108952F923F924F925F921E
:1041F0006F927F928F929F92AF92BF92CF92DF92F7
:10420000EF92FF920F931F93DF93CF93CDB7DEB75B
:1042100068970FB6F894DEBF0FBECDBF3C011B01FF
:104220002A013E8B2D8B188F0F8BD3018D919C9182
:104230008430910509F42DC18530910580F48130D9
:10424000910509F4EBC08130910508F407C1823073
:10425000910509F4D9C4039709F028C570C18630C7
:10426000910509F44DC48630910540F087309105E1
:1042700009F48FC4089709F019C56CC4F301628171
:104280007381C1010E945D1B2D873E874F87588B2C
:10429000698B7A8BDE011196FE013D9686E00190D6
:1042A0000D928150E1F7AD80BE80D50116968D91BB
:1042B0009C9117970E94501B9C8B8B8BF5018085DE
:1042C00091850E94501B4C01D5011696CD90DC9033
:1042D0001797F301E480F58029C0D70112968D91DC
:1042E0009C911397B101A2012D893E890F89188DE8
:1042F0000E94F420F70182819381B1010E94041C85
:10430000BC01D6011296ED91FC9113974481558121
:104310008417950719F0C2010E948A20F701E480F2
:10432000F580D6011496CD90DC901597E114F10438
:10433000A1F6EB89FC898E0E9F1E4B815C818D89D5
:104340009E89B4010E941227EB88FC880CC0C20130
:104350000E94A62E8B019C018D899E8960E070E0F1
:10436000A7010E9455270894E108F108F7FEEFCF56
:10437000D5011E968D919C911F97892BC9F5189692
:10438000ED90FC901997CB88DC8821C0D70112965C
:10439000ED91FC91139780859185B501A2012D893E
:1043A0003E890F89188D0E94F420C2010E94A62E1A
:1043B0008B019C018D899E8960E070E0A6010E94BE
:1043C00055270894C11CD11CF701E480F580E11445
:1043D000F104E1F6D50150968D919C915197B5016C
:1043E000A2012D893E890F89188D0E94F42011C0E9
:1043F000F301828193816F89788D0E94DB20FC011B
:10440000009739F00280F381E02DC2016D897E8929
:1044100009958D899E890E943F2748C4D301129631
:104420006D917C911397C1010E945D1B2D873E8782
:104430004F87588B698B7A8BDE011196FE013D9672
:1044400086E001900D928150E1F76B817C8149817A
:104450005A818D899E890E94802711C0F301828133
:1044600093818130910521F0029709F01FC40BC0A0
:10447000D30114968D919C9115970E94C827AB018A
:10448000BC01C20111C4F3016481758186819781E9
:1044900097C1D30114968D919C911597B101A201FA
:1044A0002D893E890F89188D0E94F420C2010E9437
:1044B000A62E7B018C01F30184819581B1010E94BC
:1044C000041CD30112962D913C91139721153105AF
:1044D00029F02130310509F0E9C30FC08130910581
:1044E00039F0029709F0E2C3C801B701905868C1DA
:1044F000882799278E199F09C0CF81309105C9F06F
:10450000029709F0D3C3DD24C801B70120E030E0F1
:1045100040E050E00E945D37882311F0DD24D39401
:1045200081E0D8266D2D70E080E090E00E94FF379A
:1045300047C180E090E0EF2809F09FCFD9C2F30196
:1045400084819581B101A2012D893E890F89188D41
:104550000E94F420D30116968D919C911797B1017A
:10456000A2012D893E890F89188D0E94F420C20175
:104570000E94A62E5B016C01C2010E94A62E7B0147
:104580008C01F30186819781B1010E94041C4C01CA
:10459000D30114968D919C911597B1010E94041C32
:1045A0009C01F301828193818530910509F450C10A
:1045B00086309105A8F48230910509F4D0C083308B
:1045C000910530F4009719F1019709F06FC355C0B8
:1045D0008330910509F489C0049709F067C38BC241
:1045E0008830910509F4B3C18930910540F48630D3
:1045F000910509F4F0C0079709F058C366C18930E6
:10460000910509F4E6C10A9709F050C329C2213087
:104610003105E1F02230310509F048C3F1E08F1691
:10462000910441F082E08816910409F03FC3C8016B
:10463000B7011CC0B501882777FD8095982F0E948F
:10464000FF37A80197010E94D136BAC091E08916C0
:10465000910479F0A2E08A16910409F027C3B7010A
:10466000882777FD8095982F0E94FF37A601950136
:10467000EACFC5018E0D9F1D00CF21303105E1F03D
:104680002230310509F012C3B1E08B16910441F0DC
:10469000E2E08E16910409F009C3C801B7011CC0FD
:1046A000B501882777FD8095982F0E94FF379B01E1
:1046B000AC01C801B70112C0F1E08F16910489F076
:1046C00082E08816910409F0F1C2B701882777FDCE
:1046D0008095982F0E94FF37A60195010E94D03641
:1046E0006FC0C7018A199B09C8CE21303105E1F09E
:1046F0002230310509F0DAC291E08916910441F0C7
:10470000A2E08A16910409F0D1C2C801B7011CC009
:10471000B501882777FD8095982F0E94FF379B0170
:10472000AC01C801B70112C0B1E08B16910489F049
:10473000E2E08E16910409F0B9C2B701882777FD2F
:104740008095982F0E94FF37A60195010E9464373B
:1047500037C0C701B5010E943F3ACB018ECE213050
:104760003105D1F02230310509F0A0C2F1E08F16F9
:10477000910441F082E08816910409F097C2C801C3
:10478000B7011AC0B501882777FD8095982F0E9440
:10479000FF37A801970112C091E08916910499F0A2
:1047A000A2E08A16910409F081C2B701882777FD3B
:1047B0008095982F0E94FF37A60195010E94183915
:1047C0000E94CC275CCEAE9CC001AF9C900DBE9CDD
:1047D000900D112452CE21303105F1F022303105F7
:1047E00009F064C2B1E08B16910451F0E2E08E163C
:1047F000910409F05BC288249924C801B7011EC046
:1048000088249924B501882777FD8095982F0E94E8
:10481000FF37A80197015DC1F1E08F16910489F07F
:1048200082E08816910409F041C288249924B701D6
:10483000882777FD8095982F0E94FF37A601950164
:104840002FC180E090E0AE14BF040CF416CE50C12E
:1048500021303105F1F02230310509F027C291E015
:104860008916910451F0A2E08A16910409F01EC243
:1048700088249924C801B7011EC088249924B50151
:10488000882777FD8095982F0E94FF37A801970110
:10489000DAC0B1E08B16910489F0E2E08E16910443
:1048A00009F004C288249924B701882777FD8095F0
:1048B000982F0E94FF37A6019501ABC080E090E0E1
:1048C000EA14FB040CF0D9CD13C121303105F1F00D
:1048D0002230310509F0EAC1F1E08F16910451F060
:1048E00082E08816910409F0E1C188249924C80166
:1048F000B7011EC088249924B501882777FD8095CB
:10490000982F0E94FF37A801970114C091E08916E3
:104910009104B1F0A2E08A16910409F0C7C188247D
:104920009924B701882777FD8095982F0E94FF373B
:10493000A60195010E945D37882309F0D1C0CDC042
:1049400080E090E0EA14FB0409F097CDD1C021305B
:104950003105F1F02230310509F0A8C1B1E08B1624
:10496000910451F0E2E08E16910409F09FC1882471
:104970009924C801B7011EC088249924B50188274D
:1049800077FD8095982F0E94FF37A801970114C0EA
:10499000F1E08F169104B1F082E08816910409F0DD
:1049A00085C188249924B701882777FD8095982FA1
:1049B0000E94FF37A60195010E945D37882309F404
:1049C0008FC08BC080E090E0EA14FB0409F090C037
:1049D00054CD2130310519F12230310509F066C17D
:1049E00091E08916910451F0A2E08A16910409F031
:1049F0005DC188249924C801B70123C08824992463
:104A0000B501882777FD8095982F0E94FF37A80170
:104A100097010E945D3788230CF062C05EC0B1E050
:104A20008B169104B1F0E2E08E16910409F03EC1BC
:104A300088249924B701882777FD8095982F0E94B4
:104A4000FF37A60195010E940D3918160CF445C0D8
:104A500047C080E090E0AE14BF040CF00ECD48C01B
:104A60002130310511F12230310509F01FC1F1E08B
:104A70008F16910451F082E08816910409F016C156
:104A800088249924C801B70122C088249924B5013B
:104A9000882777FD8095982F0E94FF37A8019701FE
:104AA0000E945D371816E4F018C091E08916910451
:104AB000C9F0A2E08A16910409F0F8C0882499246C
:104AC000B701882777FD8095982F0E94FF37A601B0
:104AD00095010E940D3988231CF081E0882E912CCD
:104AE000C401CBCC80E090E0EA14FB040CF4C5CC0C
:104AF00081E090E0C2CCC701B5010E943F3ABDCC35
:104B0000C2010E94082E6C01730115C0C901B101D8
:104B1000A2012D893E890F89188D0E94F420C201BF
:104B20000E94082EC816D9061CF4C2010E94A62EA7
:104B3000F701E480F580D70114968D919C9115972B
:104B400012962C91129713963C91892BF9F6C90174
:104B50003C016BCBF30182819381B101A2012D89CC
:104B60003E890F89188D0E94F420C2010E94A62E52
:104B70006115710531F0D30114966D907C901597F5
:104B800054CBF301668077806114710409F04DCB3A
:104B90008DC0D30112968D919C911397B101A20102
:104BA0002D893E890F89188D0E94F420F30184819C
:104BB0009581B1010E94041C7C011FC0D301149691
:104BC0008D919C911597B101A2012D893E890F8984
:104BD000188D0E94F420B3E0EB16F10419F0C20125
:104BE0000E94A62EF30182819381B101A2012D8939
:104BF0003E890F89188D0E94F420C2010E94A62EC2
:104C000061157105D9F652C0D30114968D919C910E
:104C10001597B101A2012D893E890F89188D0E9437
:104C2000F420F30162817381C1010E945D1B2D8715
:104C30003E874F87588B698B7A8BDE011796FE0172
:104C40003D9686E001900D928150E1F7D3011496D4
:104C50008D919C911597B1010E94041C8C018B854C
:104C60009C85B1010E94441DAC010817190721F071
:104C7000C201B8010E948A20C2010E94A62EF62E0F
:104C8000E72ED82EC92E69857A854F8158858D8962
:104C90009E890F2D1E2D2D2D3C2D0E945527C201C2
:104CA0004F2D5E2D6D2D7C2D0E94C82E68960FB65F
:104CB000F894DEBF0FBECDBFCF91DF911F910F9152
:104CC000FF90EF90DF90CF90BF90AF909F908F902C
:104CD0007F906F905F904F903F902F9008952F920C
:104CE0003F924F925F926F927F928F929F92AF927C
:104CF000BF92CF92DF92EF92FF920F931F93CF93C9
:104D0000DF932C018B01CA010E94CD27EC01C80161
:104D10000E94E92E1C0186E090E00E9457318C0130
:104D200081E890E0F801918380838AE398E293839D
:104D300082831582148286E090E00E9457317C01C4
:104D40008BE890E0F7019183808387E298E2938378
:104D500082831583048386E090E00E9457318C01A2
:104D600085E990E0F8019183808384E198E2938360
:104D70008283F582E48286E090E00E9457314C0104
:104D80008FE990E0F401918380838AE598E2938330
:104D9000828315830483F2018481958160E070E051
:104DA0000E9472203C01C20160E070E00E94521F2C
:104DB0008C0180E090E069EA70E040E050E020E0A3
:104DC00030E0E3E0EE2EF12CCC24DD24AA24BB2439
:104DD0000E94141FBC01F20193838283C301A101CD
:104DE0009E0184010E94F420DF91CF911F910F91C9
:104DF000FF90EF90DF90CF90BF90AF909F908F90FB
:104E00007F906F905F904F903F902F900895660F26
:104E1000771F660F771FFC0124813581260F371F0E
:104E2000C9010895FC018281938102979C01261B90
:104E3000370B02963383228364817581D901AA0FCF
:104E4000BB1FAA0FBB1FA60FB71F11969C938E9373
:104E500020E030E00BC0FC01EE0FFF1FEE0FFF1F44
:104E6000E60FF71F848195812F5F3F4F2417350789
:104E700094F315969C938E931497CD010895DC01BD
:104E800012968D919C911397880F991F880F991FE7
:104E90001496ED91FC911597E80FF91F808191818F
:104EA00013969C938E93129708950F931F93FC0172
:104EB000A481B5810280F381E02DEE0FFF1FEE0F7C
:104EC000FF1FEA0FFB1F80E090E00AC00480F5811D
:104ED000E02DEE0FFF1FEE0FFF1FEA0FFB1F0196E5
:104EE000861797079CF3440F551F440F551FE40F77
:104EF000F51F00871187228733871F910F9108952F
:104F0000FC0124813581A281B381AA0FBB1FAA0FA6
:104F1000BB1FA20FB31F80E090E00BC014960D9052
:104F2000BC91A02DAA0FBB1FAA0FBB1FA20FB31FBE
:104F300001968617970794F3FA01EE0FFF1FEE0F05
:104F4000FF1FEA0FFB1FDF011896608511967C9109
:104F5000119712968C91129713969C910895DC01EB
:104F6000FB0120E030E00EC084819581880F991FFD
:104F7000880F991F1496ED91FC911597E80FF91F72
:104F80002F5F3F4F241735077CF3CF010895089515
:104F9000BC0180E090E008950895BF92CF92DF9227
:104FA000EF92FF920F931F93D82EC92E86E090E0C8
:104FB0000E945731B92EE82EF92ED701DC921196B6
:104FC000CC920D2D1C2D6801CC0CDD1CCC0CDD1CF5
:104FD000C6010E945731F7018483958360E070E039
:104FE000A6010E947E3202501040D70113961C93F6
:104FF0000E931297000F111F000F111F1496ED91C1
:10500000FC911597E00FF11F8FEF9FEF9183808345
:10501000958384838E2D9B2D1F910F91FF90EF9090
:10502000DF90CF90BF9008950F931F938C010E9443
:10503000111980910801909109010E94C827AB01C4
:10504000BC01C8010E94C82E1F910F9108950F93B3
:105050001F938C010E941119809106019091070104
:105060000E94C827AB01BC01C8010E94C82E1F9135
:105070000F910895EF92FF920F931F938B01CB0135
:1050800060E070E040E050E00E948027F62EE72EBE
:10509000C80160E070E041E050E00E9480279B0181
:1050A0008F2D9E2DB9010E94F50A1F910F91FF903F
:1050B000EF9008950F931F938B010E94D41581E008
:1050C00061E00E94AA15C80160E070E040E050E095
:1050D0000E94802700D000D083EE92E0EDB7FEB7AB
:1050E00092838183CB01638394830E9434150F9054
:1050F0000F900F900F901F910F9108950F931F9392
:105100008C010E947A2DFC0120E030E080819181A9
:105110008017910711F421E030E0C9011F910F9130
:1051200008950F931F938C010E947A2DC8010E944D
:105130007E28892B19F021E030E017C00E94D41599
:1051400081E061E00E94AA1500D089E193E0EDB70B
:10515000FEB7928381830E9434150F900F9080E1F7
:1051600097E20E94E11420E030E0C9011F910F9105
:105170000895CF93DF9383E290E00E949128892BDA
:1051800061F10E947A2DFC01868197810E94FB2E9D
:10519000EC010E947D2D86E290E00E949128892BEF
:1051A000E1F00E947D2D83E290E00E949128892BFE
:1051B000A1F00E947A2DFC01868197810E94641DD6
:1051C000BC01009719F4C0E0D0E004C0CE010E94F9
:1051D000FC1EEC010E947D2D02C0C0E0D0E0CE019B
:1051E000DF91CF9108950F931F93CF93DF938AE1BF
:1051F00090E00E947E28892B19F10E947D2D0E944B
:10520000F3288C018BE190E00E949128892BB1F169
:105210000E947D2D0E94F328EC018CE190E00E9419
:105220007E28892B19F440E050E005C00E947D2DB6
:105230000E94F328AC01C801BE010E94901F1CC04F
:1052400086E190E00E947E28892BA1F00E947D2DAE
:105250000E94F328EC0187E190E00E949128892BBD
:1052600069F00E947D2D0E94F328BC01CE010E94AE
:10527000AF1F02C00E94D92A9C0102C020E030E08A
:10528000C901DF91CF911F910F9108950E94F328DA
:105290000895EF92FF920F931F93CF93DF9381E1D5
:1052A00090E00E947E28892B41F00E947D2D0E9473
:1052B0004929BC0181E090E016C081E090E00E94A5
:1052C0007E28892B19F00E947D2DE9CF82E090E0A5
:1052D0000E947E28892B51F00E947D2D0E94492931
:1052E000BC0180E090E00E945A205CC083E290E024
:1052F0000E947E28892B09F457C00E947A2DFC0158
:10530000868197810E94FB2E7C010E947D2D86E084
:1053100090E00E947E28892B49F00E947D2D0E94FA
:10532000F328BC01C7010E94E61F3CC087E090E063
:105330000E947E28892B99F10E947D2D88E090E0C3
:105340000E947E28892B19F000E010E01AC00E940C
:10535000F32860E070E00E94521F8C01EC010BC04A
:105360000E947D2D0E94F32860E070E00E94521F91
:105370008C839D83EC0184E190E00E947E28892B40
:1053800079F788E090E00E949128892B09F497C072
:105390000E947D2DC701B8010E94722003C0C70181
:1053A0000E94FE1FEC018DC081E290E00E947E28E9
:1053B000892B51F00E947A2DFC01868197810E94F1
:1053C00060320E9429200FC082E290E00E947E2875
:1053D000892B59F00E947A2DFC01868197810E94C9
:1053E0005C320E940F20EC010FC087E090E00E9429
:1053F0007E28892B61F00E947D2D0E94F328EC010C
:1054000088E090E00E9491280E947D2D5AC08DE195
:1054100090E00E947E28892BE9F10E947D2D0E9458
:10542000F32860E070E00E94521FF82EE92E82E11E
:1054300090E00E949128892B11F00E947D2D8F2DE4
:105440009E2D14C00E94F32860E070E00E94521F5D
:10545000182F092F8C839D8382E190E00E94912870
:10546000892B11F00E947D2D812F902FEC018EE170
:1054700090E00E947E28892B29F38EE190E00E9423
:105480009128892B11F00E947D2D8F2D9E2D9C013E
:10549000E90117C00E94D41581E061E00E94AA15BD
:1054A00000D086EE92E0EDB7FEB7928381830E9432
:1054B00034150F900F9080E197E20E94E114C0E054
:1054C000D0E0CE01DF91CF911F910F91FF90EF902F
:1054D00008950F931F93CF93DF930E9449291EC015
:1054E00083E090E00E947E28892B19F0C2E0D0E092
:1054F0000BC084E090E00E947E28892B19F4C4E060
:10550000D0E002C0C3E0D0E00E947D2D0E94492976
:10551000AC01CE01612F702F0E94C71F182F092FD9
:1055200083E090E00E947E28892BD1F684E090E011
:105530000E947E28892BA1F685E090E00E947E28BB
:10554000892B71F6812F902FDF91CF911F910F91B1
:105550000895EF92FF920F931F930E94692A14C03F
:1055600081E090E00E947E288C010E947D2D0E94A7
:10557000692AAC0180E090E0012B11F481E090E019
:105580006F2D7E2D0E94C71FF82EE92E81E090E03E
:105590000E947E28892B21F782E090E00E947E28DD
:1055A000892BF1F68F2D9E2D1F910F91FF90EF907B
:1055B00008950F931F93CF93DF930E94A92A39C0B8
:1055C0008AE090E00E947E28892B19F0C9E0D0E0A3
:1055D00026C08CE090E00E947E28892B19F0CAE05A
:1055E000D0E01DC08EE090E00E947E28892B19F04B
:1055F000C7E0D0E014C08DE090E00E947E28892BA7
:1056000019F0C8E0D0E00BC08BE090E00E947E284B
:10561000892B19F4C5E0D0E002C0C6E0D0E00E94BA
:105620007D2D0E94A92AAC01CE01612F702F0E940E
:10563000C71F182F092F8AE090E00E947E28892B2F
:1056400009F0BECF8CE090E00E947E28892B09F003
:10565000B7CF8EE090E00E947E28892B09F0B0CF72
:105660008DE090E00E947E28892B09F0A9CF8BE085
:1056700090E00E947E28892B09F0A2CF89E090E07B
:105680000E947E28892B09F09BCF812F902FDF91DC
:10569000CF911F910F9108950F931F93CF93DF9395
:1056A00083E290E00E949128892B09F449C00E946E
:1056B0007A2DFC01868197810E94FB2E8C010E942D
:1056C0007D2D86E290E00E947E28892B19F4C0E0AF
:1056D000D0E023C00E947D2DFC01868197810E942D
:1056E000641DEC010097B9F40E947A2D0E94D41534
:1056F00081E061E00E94AA1500D08CE093E0EDB754
:10570000FEB7928381830E9434150F900F9080E141
:1057100097E20E94E1140E947D2D86E090E00E94B5
:105720009128892B69F00E947D2D0E94F3289C010D
:10573000C801BE0141E050E00E946A1F9C0102C006
:1057400020E030E0C901DF91CF911F910F910895C2
:105750000F931F93CF93DF9383E290E00E949128F1
:10576000892B09F468C00E947A2DFC0186819781FB
:105770000E94FB2E8C010E947A2D0E947A2D0E949D
:105780007D2D86E290E00E947E28892B19F4C0E0EE
:10579000D0E023C00E947D2DFC01868197810E946C
:1057A000641DEC010097B9F40E947A2D0E94D41573
:1057B00081E061E00E94AA1500D08FEF92E0EDB782
:1057C000FEB7928381830E9434150F900F9080E181
:1057D00097E20E94E1140E947D2D86E090E00E94F5
:1057E0007E28892B29F00E947D2D0E94F32805C078
:1057F000209761F0CE010E943C209C01C801BE01AF
:1058000040E050E00E946A1F9C0117C00E94D4151E
:1058100081E061E00E94AA1500D081EF92E0EDB72F
:10582000FEB7928381830E9434150F900F9080E120
:1058300097E20E94E11420E030E0C901DF91CF91AE
:105840001F910F9108956F927F928F929F92AF92C6
:10585000BF92CF92DF92EF92FF920F931F93CF935D
:10586000DF933C0180E290E00E949128892B09F4AB
:1058700028C10E947D2D83E290E00E949128892B0F
:1058800009F41FC10E947A2DFC01868197810E9434
:10589000FB2E4C010E947D2D87E090E00E947E2827
:1058A000892B19F4CC24DD242DC00E947D2D88E0A5
:1058B00090E00E947E28892B19F0CC24DD241AC0A8
:1058C0000E94B92860E070E00E94521F6C01EC0158
:1058D0000BC00E947D2D0E94B92860E070E00E94FC
:1058E000521F8C839D83EC0184E190E00E947E280E
:1058F000892B79F788E090E00E949128892B11F09C
:105900000E947D2D86E290E00E949128892B09F467
:10591000D8C00E947D2D83E290E00E949128892BBF
:1059200019F4AA24BB240AC00E947A2DFC018681A6
:1059300097810E94641D5C010E947D2D86E090E0AD
:105940000E949128892B09F4BCC00E947D2D85E21C
:1059500090E00E947E28892B99F00E947D2DC30142
:10596000B401A60120E030E000E010E07501E1E0C4
:10597000CE2ED12CAA24BB240E94141FEC01A3C05C
:1059800089E190E00E947E28892B29F4EE24FF24EF
:1059900000E010E025C00E947D2D0E944C2B60E0AD
:1059A00070E00E94521F7C018C010CC00E947D2D72
:1059B0000E944C2B60E070E00E94521FF80184832B
:1059C00095838C0184E190E00E947E28892B71F7F9
:1059D00082E190E00E949128892B11F00E947D2D98
:1059E00088E190E00E947E28892B91F10E947D2D14
:1059F000E114F10449F40E94A82B60E070E00E94D9
:105A0000521F7C01EC0116C00E94A82B60E070E0E0
:105A10000E94521FEC01F801958384830BC00E9401
:105A20007D2D0E94A82B60E070E00E94521F8C83A5
:105A30009D83EC0184E190E00E947E28892B79F718
:105A400082E190E00E949128892B11F00E947D2D27
:105A5000C301B401A601970100E010E07501CC2458
:105A6000DD24AA24BB240E94141FEC0180E290E0F4
:105A70000E947E28892B19F4EE24FF241BC0CE013E
:105A80000E94232C60E070E00E94521F7C018C0178
:105A90000BC0CE010E94232C60E070E00E94521FD8
:105AA000F801848395838C0180E290E00E947E2837
:105AB000892B79F70E94F328FB86EA86998B888BDD
:105AC00002C0C0E0D0E0CE01DF91CF911F910F91D5
:105AD000FF90EF90DF90CF90BF90AF909F908F900E
