:100000000C94C8020C94F9020C94F9020C94F902B5
:100010000C948B0F0C94F9020C94F9020C94F902D5
:100020000C94F9020C94F9020C94F9020C94F90264
:100030000C94F9020C941D100C9454100C94F902B9
:100040000C945F070C94F9020C94F9020C94F902D9
:100050000C94F902084AD73B3BCE016E84BCBFFD2D
:10006000C12F3D6C74319ABD56833DDA3D00C77F88
:1000700011BED9E4BB4C3E916BAAAABE0000008021
:100080003F05A84CCDB2D44EB93836A9020C50B9B0
:10009000918688083CA6AAAA2ABE000000803F23B9
:1000A0000025732000667265652F616C6C3A2535FA
:1000B000752F2535750025347520420073746163F2
:1000C0006B3A00253475204200686561703A006221
:1000D00073732F646174613A2534752F253475204C
:1000E0004200323A2049646C650064756D7020539B
:1000F0007461636B733A20313A204D61696E00433D
:1001000050553A253375252520554152543A25330B
:100110007525250053746172742057617950757389
:1001200068506F733A203500476F4261636B2F460A
:100130006F72776172643A20342F370053617665AD
:100140002F44656C2020202020203A20332F3800B7
:10015000537461636B2020202535642025356400AD
:1001600000447269766520537461636B005761794E
:10017000502E3D25642C2053706565643D25640038
:1001800047726164652066616872656E004C696ED5
:100190006B732064726568656E0052656368747382
:1001A0002064726568656E004C4452733A204C3D81
:1001B0002530346420523D2530346400466F6C6C29
:1001C0006F77204C6967687420422E2076302E317C
:1001D0000001020000626F745F7475726E000000AF
:1001E00000000000000000000000696E743136203D
:1001F0006465677265657300000000000000000020
:1002000000000000000000000000000000000000EE
:100210000000008C2003020202626F745F7475722A
:100220006E5F737065656400000000000000696E19
:1002300074313620646567726565732C2075696E4C
:10024000743136206D696E2C2075696E74313620DC
:100250006D617800000000312002020100626F74BD
:100260005F676F746F5F6469737400000000000063
:100270000000696E7431362064697374616E636561
:100280002C20696E74382064697200000000000040
:100290000000000000000000000000BE1A0302027F
:1002A00002626F745F676F746F5F706F730000003E
:1002B000000000000000696E74313620782C20693F
:1002C0006E74313620792C20696E74313620686561
:1002D0006164000000000000000000000000004D0C
:1002E0001A03020202626F745F676F746F5F706F50
:1002F000735F72656C0000000000696E7431362017
:10030000782C20696E74313620792C20696E743116
:1003100036206865616400000000000000000000F5
:10032000000000AF1A00000000626F745F70757308
:10033000685F616374706F7300000000000000006C
:1003400000000000000000000000000000000000AD
:10035000000000000000000000000000000000009D
:1003600000000000000000811400000000626F74B3
:100370005F64726976655F737461636B000000008F
:10038000000000000000000000000000000000006D
:10039000000000000000000000000000000000005D
:1003A00000000000000000000000006714000000D2
:1003B00000626F745F64726976655F6669666F007C
:1003C000000000000000000000000000000000002D
:1003D000000000000000000000000000000000001D
:1003E0000000000000000000000000000000007499
:1003F0001401010000626F745F736176655F77615D
:1004000079706F7300000000000075696E74382009
:100410006F7074696D697A6500000000000000006B
:1004200000000000000000000000000000000000CC
:10043000000000A414000000000000000000000004
:1004400000000000000000000000000000000000AC
:10045000000000000000000000000000000000009C
:10046000000000000000000000000000000000008C
:1004700000000000000000000041757377616568AE
:100480006C656E3A20506C61790053746172743AF5
:1004900020506C6179007061722531752F2531759E
:1004A0003A200020006F6B3A506C6179207C204B21
:1004B0006F72723A53746F70700029002564002CBB
:1004C00000202800206765737461727465742E00C3
:1004D000416262727563683A2053746F70700025D0
:1004E000630053595354454D2048414C5445442EC4
:1004F00000765F633A2025336400765F6C3A2025EE
:10050000336420765F723A20253364202000783AE5
:10051000202533642020793A202533642020006888
:10052000656164696E673A202533642E2575202045
:1005300000493D25303458204D3D25303564202577
:1005400030356400523D2532642025326420463D1A
:100550002564204B3D256420543D25642000423D08
:10056000253033582025303358204C3D2530335822
:1005700020253033582000503D2530335820253079
:10058000335820443D253033642025303364200027
:1005900011241FBECFE5D8E0DEBFCDBF1BBA1ABA0B
:1005A00018BA17BA15BA14BA12BA11BAA89584B7FC
:1005B000877F84BF81B5886181BD11BC84B780937A
:1005C000F10314BE10E0A0E6B0E0E2EBF3E702C0F6
:1005D00005900D92A239B107D9F713E0A2E9B0E076
:1005E00001C01D92A13FB107E1F70E9439260C948A
:1005F000D7390C940000E199FECF9FBB8EBBE09AE7
:100600008DB308959C01809192008B3079F0982FE2
:100610009F5F90939200E82FFF27E7FDF095EE0F84
:10062000FF1FED56FF4F3183208308958FEF08950C
:100630009093AA008093A9004093AB002093AC0054
:100640006093C6008CEA90E09093C8008093C70046
:100650000895AF92BF92CF92DF92EF92FF920F93E5
:100660001F93CF93DF93F82EC091CC00D091CD0093
:10067000E091A900F091AA00309709F4BBC0C731FE
:10068000D105C1F0C831D10520F4209709F4B2C0DA
:100690001FC0CD32D10529F020E1CD30D207C1F401
:1006A00007C08091C6008F5F81708093C600A0C094
:1006B0001092AD00CDEAD0E0CE0109951092AA00CB
:1006C0001092A90085E1FE0111928A95E9F790C088
:1006D0006C2FCB3008F08CC08FB7F8942091E903D1
:1006E0003091EA034091EB035091EC038FBF80916E
:1006F000C2009091C300A091C400B091C5005901FF
:100700006A01A81AB90ACA0ADB0AD601C5018233EE
:1007100076E1970770E0A70770E0B70748F02093ED
:10072000C2003093C3004093C4005093C5000DC075
:100730008091C9009091CA00C817D90731F48091FF
:10074000CB008F5F8093CB000BC08091C70090914E
:10075000C80001969093C8008093C7001092CB0008
:100760008091CB00853010F01092CB0005E0609FA7
:100770008001112402C01092CB008091CB00F801BF
:10078000E80FF11DCF01805090400E94FB028823AA
:1007900091F39091C600913079F434E0E32E01C0DA
:1007A000EA94C8018E0D911D805090400E94FB027A
:1007B0008823B1F3C0E0D0E0D093CA00C093C90051
:1007C0009FB7F8942091E9033091EA034091EB033D
:1007D0005091EC039FBF2093C2003093C30040931D
:1007E000C4005093C500E091C700F091C800808319
:1007F000C0E0D0E0D093CD00C093CC00209719F09A
:1008000080E80E947D0AEF2DF0E080919200992708
:1008100087FD9095E817F90754F4EE0FFF1FED568A
:10082000FF4F0190F081E02D309709F009958091FC
:10083000A9009091AA00009709F45AC06091AC00F9
:100840008091AB0090E070E00E94AF0800D000D033
:1008500081EA90E0EDB7FEB792838183CDEAD0E0E4
:10086000D483C3830E94F40809900020E9F72197FC
:10087000CD5AD0400091AC000C0F2FB7F894809166
:10088000E9039091EA03A091EB03B091EC032FBF31
:100890002091C2003091C3004091C4005091C50026
:1008A000821B930BA40BB50B0F900F900F900F9022
:1008B000823326E1920720E0A20720E0B20708F089
:1008C0000F5F8091C600813059F48091AB0090E0B9
:1008D000602F70E00E94AF088FE990E00E943B0912
:1008E000602F61508091AB0090E070E00E94AF08F3
:1008F0008091CC009091CD00009731F00E943C0691
:100900001092CD001092CC0080E80E94760ADF9110
:10091000CF911F910F91FF90EF90DF90CF90BF90FC
:10092000AF9008958AE590E30E94020389EC9CE170
:100930000E9402038DE491E30E9402038FED9BE08D
:100940000E9402038BEA94E00E9402038DEF94E17F
:100950000E94020308958F929F92AF92BF92CF920E
:10096000DF92EF92FF920F931F93CF93DF938DB699
:100970009EB682E990E020E6E22E20E0F22E5C01B5
:10098000AE18BF0802EF13E06801C81AD90A81E067
:1009900090E061E070E00E94AF0800D000D000D08D
:1009A000EDB7FEB731968FEC90E0ADB7BEB71296BB
:1009B0009C938E931197D382C282B582A4820E94A7
:1009C000F408EDB7FEB736960FB6F894FEBF0FBE2B
:1009D000EDBF82E090E061E070E00E94AF0889EC3A
:1009E00090E00E943B0982E090E06FE070E00E949E
:1009F000AF08C091ED03D091EE03C01BD10B00D026
:100A000000D083EC90E0ADB7BEB712969C938E9366
:100A100011971496DC93CE9313970E94F4080F90CD
:100A20000F900F900F9083E090E061E070E00E94E3
:100A3000AF088CEB90E00E943B0983E090E06FE010
:100A400070E00E94AF080FE518E00819190900D0FE
:100A500000D086EB90E0EDB7FEB7928381831483DC
:100A600003830E94F4080F900F900F900F9084E082
:100A700090E061E070E00E94AF0820E638E02E19B7
:100A80003F0900D000D000D0EDB7FEB7319685EA1F
:100A900090E0ADB7BEB712969C938E931197C901A3
:100AA0008C199D098A199B098C1B9D0B801B910B2E
:100AB00093838283358324830E94F408EDB7FEB7C5
:100AC00036960FB6F894FEBF0FBEEDBFDF91CF9103
:100AD0001F910F91FF90EF90DF90CF90BF90AF905C
:100AE0009F908F9008952091B4013091B501820FAD
:100AF000931F9093B5018093B40180579E4F43E0BC
:100B00008132940720F03093B5012093B401809195
:100B1000B4019091B5019C01215030402133310541
:100B200018F482E390E006C0C1968133910530F459
:100B30008EEC9FEF9093B5018093B4018091B60144
:100B40009091B701680F791F7093B7016093B60158
:100B500060577E4F23E06132720720F09093B70117
:100B60008093B6018091B6019091B7019C0121500C
:100B700030402133310538F482E390E09093B7019F
:100B80008093B6010895C1968133910530F48EECBF
:100B90009FEF9093B7018093B60108951092B5012D
:100BA0001092B4011092B7011092B6010E94701C0D
:100BB0000E94692208958A3219F48091F0008F5FB3
:100BC0008093F0002091F00030E08091920099270E
:100BD00087FD90952817390714F01092F0000E94B5
:100BE000A00808958330F9F0843028F48130C1F0F2
:100BF000823020F50CC0873031F1883018F486300F
:100C0000D1F52BC0883081F18930A9F521C010922F
:100C1000B5011092B4011092B7011092B601089577
:100C200082E390E002C086E990E09093B501809362
:100C3000B4019093B7018093B601089580E090E0ED
:100C40006AE570E00EC080E090E064EB70E009C0FF
:100C500080E090E06CE47FEF04C080E090E066EA22
:100C60007FEF0E948C20089580E090E064E670E0C1
:100C700041E00E94BE1A08950F938091CC0090919C
:100C8000CD0020E18130920709F4BBC020E1823021
:100C90009207B0F58631910509F4AAC08731910514
:100CA000A8F48131910509F49BC08231910528F4A3
:100CB0008031910509F0B8C090C08231910509F4E6
:100CC00067C08531910509F0AFC08DC08D329105A7
:100CD00009F47BC08E32910548F48B32910509F4FA
:100CE00072C08C32910509F09FC06BC08E329105A5
:100CF00009F46DC020E18030920709F095C07FC0F3
:100D000020E18730920709F488C020E188309207FB
:100D1000F8F420E18430920709F479C020E18530AD
:100D2000920758F420E18230920709F46CC020E168
:100D30008330920709F078C068C020E185309207BF
:100D400009F467C020E18630920709F06DC063C0E6
:100D500020E18A30920749F120E18B30920758F464
:100D600020E18830920709F45AC020E189309207C7
:100D700009F05AC056C020E18C30920731F020E1D2
:100D80008833920709F050C024C00E94CE054CC0A1
:100D900080E090E060E070E00E94C2290E94CE05F1
:100DA0000E94CB2F0E94632B0CC081E76EE440E0D1
:100DB00050E020E030E000E00E94D7240E94C523EC
:100DC00033C080E007C081E005C082E003C083E05B
:100DD00001C08AE20E94DB0527C08AE090E005C0DE
:100DE00086EF9FEF07C086EF9FEF6AE070E004C0D8
:100DF0008AE090E066EF7FEF0E94730515C080E007
:100E000011C081E00FC082E00DC083E00BC084E020
:100E100009C085E007C086E005C087E003C088E020
:100E200001C089E00E94F2050F9108958EEC90E0D8
:100E30000E94670A0097A1F09C01207038704091D1
:100E40006000509161002417350751F03093610024
:100E5000209360008F7390719093CD008093CC00AD
:100E600008959AB3809598239ABB9BB398239BBB14
:100E70000895409162004F3F11F41092EF0090915D
:100E8000EF009830D8F4292F30E0F901EE0FFF1F62
:100E9000E20FF31FE952FF4F7283618387708083F3
:100EA0009F5F9093EF004F3F49F41092620090E4EF
:100EB00097B997B1982B97B98FEC86B908951F927F
:100EC0000F920FB60F9211242F933F934F935F937E
:100ED0008F939F93AF93BF93EF93FF9380916200A3
:100EE000282F30E044B155B1F901EE0FFF1FE20F9A
:100EF000F31FE952FF4FA181B28111965C934E938B
:100F0000128211828F5F809362008830A8F490E093
:100F1000FC01EE0FFF1FE80FF91FE952FF4F81811F
:100F20009281009749F080E487B987B19081892B3D
:100F300087B98FEC86B904C016B88FEF8093620032
:100F4000FF91EF91BF91AF919F918F915F914F91E1
:100F50003F912F910F900FBE0F901F901895809189
:100F600062000895809130038C3030F00E94F823A5
:100F7000882311F40E94712508950F934091C301B5
:100F80005091C4012091C5013091C6018DE46EE4F9
:100F900000E00E94D724409182005091830020916C
:100FA00084003091850089E46EE40E94D72440914A
:100FB0000D0250910E0220910F023091100285E433
:100FC0006EE40E94D72440910202509103022091C6
:100FD00004023091050282E46EE40E94D72440911D
:100FE00006025091070220910802309109028CE418
:100FF0006EE40E94D7244091FC015091FD012091A4
:10100000FE013091FF0188E46EE40E94D7244091F4
:10101000F5008CE66EE450E020E030E00E94D7243A
:1010200040910A0284E56EE450E020E030E00E9446
:10103000D72440910B0284E46EE450E020E030E0DD
:101040000E94D72440910C0285E66EE450E020E037
:1010500030E00E94D7244091E303552747FD509587
:101060002091E803332727FD30958DE66EE40E943A
:10107000D72488E56EE440E050E020E030E00E94B4
:10108000D7240F9108950E94F6240895EF92FF92BD
:101090000F931F932FB7F894E090E903F090EA03C1
:1010A0000091EB031091EC032FBFBC0180E090E0B6
:1010B0002DE730E040E050E00E94FB3426E130E0D4
:1010C00040E050E00E944D356FB7F8948091E903FD
:1010D0009091EA03A091EB03B091EC036FBF8E19DE
:1010E0009F09A00BB10B82179307A407B50760F304
:1010F0001F910F91FF90EF9008951F93182F62E0BA
:1011000044E00E945A0F8AEF8A95F1F700C085B338
:10111000887F85BB113031F48FEB97E10197F1F7B0
:1011200000C000001F91089562E045E00E945A0F40
:101130008AEF8A95F1F700C085B3887F85BB089553
:101140000F9381E00E947D0883E663E640E050E073
:1011500020E030E000E00E94D7240F9108950F9323
:101160001F93182F1150062F0150113051F01130DC
:1011700028F0123049F0133071F409C0862F8158DD
:1011800008C0862F815405C0862F8D5602C0862F39
:101190008D520E947D080093F1001093F2001F9180
:1011A0000F9108951F930E94540F84B3876084BBEE
:1011B000A5988CE090E00E94460813E088E362E086
:1011C00044E00E945A0F85B3887F85BB85E090E09C
:1011D0000E944608115091F78EE00E947D0881E040
:1011E0000E947D081F910895CF92DF92EF92FF92A7
:1011F0000F931F93DF93CF93CDB7DEB765970FB6ED
:10120000F894DEBF0FBECDBFFE01B0964191519163
:101210008E010F5F1F4FC80165E170E09F010E94C2
:10122000EE36F82E6801EF2CEC0C05C0F60181912A
:101230006F010E949408EC14C9F74091F1002091CD
:10124000F2008F2D840F8093F10083E664E450E078
:1012500030E00E9430258F2D65960FB6F894DEBFE2
:101260000FBECDBFCF91DF911F910F91FF90EF90F7
:10127000DF90CF900895CF92DF92EF92FF920F937D
:101280001F93DF93CF930F92CDB7DEB76C01982FEA
:10129000092F1D2D02C00E949408F02EFC18F801A1
:1012A0000F5F1F4F849189838823A9F72091F10054
:1012B0000091F2008F2D820F8093F1001092630055
:1012C00083E664E44EEF30E010E0EF2C0E949324BC
:1012D0000C2D1D2D6E010894C11CD11C04C0C6012B
:1012E00061E00E948510F8010F5F1F4FE491E983D0
:1012F000EE23A9F70E94D20C8F2D0F90CF91DF9192
:101300001F910F91FF90EF90DF90CF900895809301
:10131000F300809568E00E94850F08951F93182FB1
:10132000803871F48091F30086FD06C0806480935C
:10133000F30081E08093F4008091F3008F7714C074
:101340008091F300103479F487FD09C087E760E0ED
:101350000E94F00A8091F30080688093F3008091EE
:10136000F3008F7B01C0812B8093F3008091F30009
:101370000E948709107C11F0929A92981F9108950B
:10138000CF93DF93C82FD0E0C07CD0709091F30052
:10139000209711F0892B02C0809589238093F30058
:1013A0008091F3000E948709209711F0929A9298F9
:1013B0008091F400813039F41092F400BD9ABE9807
:1013C00080E40E948E09DF91CF9108958A9A0E944D
:1013D000540F80E00E94870908958FEF91EEA4E0FA
:1013E00081509040A040E1F700C000008DB79EB74B
:1013F00060E070E00E94EA0C089588E892E062E8FC
:101400007BE00E94EA0C0895809126038823E1F78F
:10141000F8941AB88FEF0E94760A8FEF0E94C009E5
:1014200085B78F78806285BF85B7806885BF8895CE
:101430000895EF920F93FC01302F3E5FDB018C91FA
:1014400090E002C0959587954A95E2F741E080FDCE
:1014500040E081818F3F11F08F5F81839081818196
:10146000941739F1833070F15481552369F4413078
:1014700041F4281730F481E090E093838283448321
:1014800016C01382128213C002508017E0F0381782
:1014900068F0842F90E022813381220F331F822B4A
:1014A000932B938382835F5F548301C014821182E4
:1014B0000AC0381740F484818E1521F4828193810B
:1014C00096838583148240830F91EF900895FC01E9
:1014D000258136818781908596838583C90108950A
:1014E0008093F50060E10E94850F089580959091AA
:1014F000F50089230E94700A08959091F500892BC8
:101500000E94700A08950E94540F80E00E94700AA1
:101510000895A69AA79ABB9A12BE80E683BF81B3AC
:10152000806381BB1DBC1CBC82EF8FBD89E08EBD7A
:101530008FEF91E09BBD8ABD99BD88BD1092480296
:101540001092470210924602109245029BBD8ABD3E
:1015500099BD88BD8091E2038C7F8093E20308955A
:101560009091E203882381F490FD02C0AE9A01C0FD
:10157000AE9820914702309148028FEF91E0821B94
:10158000930B9BBD8ABD089591FF02C0AF9A01C025
:10159000AF9820914502309146028FEF91E0821B77
:1015A000930B99BD88BD0895813051F4662321F4D1
:1015B00083B78A7F83BF089583B7856083BF6CBF7D
:1015C0000895BE9A98E0C79887FF02C0C69A01C0E6
:1015D000C6980000C79A915011F0880FF4CF089573
:1015E0001F93DF93CF930F92CDB7DEB7182F80E80C
:1015F00069830E948E09812F80680E94E10A6981B7
:10160000862F0E94E10A8FE891E00197F1F700C070
:1016100000000F90CF91DF911F9108951F93182F15
:1016200080E80E948E09812F0E94E10A8FE891E0F4
:101630000197F1F700C00000BE9898E080E0C798DD
:10164000880F0000C79AB69981609150C1F71F9129
:10165000089580E80E948E0984E690E00E94460882
:10166000BF9AC7988AE090E00E94460880E060E850
:101670000E94F00A80E061E00E94F00A0895CF9293
:10168000DF92EF92FF920F931F93DF93CF930F920E
:10169000CDB7DEB788E060E00E94F00A81E0E82E76
:1016A000F12C6E010894C11CD11C80E56EE4A701E9
:1016B00020E030E006E30E94D72416E388E00E9491
:1016C0000E0B898386FFFACFC60161E00E94851068
:1016D0001150A1F78FE0E81681E0F80629F086E3C3
:1016E00090E0E80EF91EE1CF0F90CF91DF911F91AE
:1016F0000F91FF90EF90DF90CF90089584E00E94CB
:101700000E0B08958091F7009091F800A091F900D8
:10171000B091FA000196A11DB11D8093F70090933E
:10172000F800A093F900B093FA008093FB00909327
:10173000FC00A093FD00B093FE008093FF00909307
:101740000001A0930101B0930201DCCF9B01AC0129
:101750009FB7F89480916300109263009FBF81301F
:1017600011F082E029C060916300EAE8F2E021C054
:10177000808191810097D9F0A085B1858C918823D3
:10178000B1F482819381A481B581281739074A0772
:101790005B0768F080910B0190910C01E817F90745
:1017A00051F037832683BF010E947D0D04C06F5F17
:1017B0003A966430E8F281E08093630008954F9296
:1017C0005F926F927F928F929F92AF92BF92CF92D1
:1017D000DF92EF92FF920F931F938FB7F8942091AF
:1017E000E9033091EA034091EB035091EC038FBF82
:1017F0008091F7009091F800A091F900B091FA0063
:10180000C0900701D0900801E0900901F0900A0112
:1018100049015A018C189D08AE08BF08C090030109
:10182000D0900401E0900501F09006012C013D01EB
:101830004C185D086E087F0820930701309308015B
:101840004093090150930A0180930301909304018E
:10185000A0930501B0930601C301B2010E94553364
:1018600026E437E14DE55CE30E9470340E942933A1
:1018700024E630E040E050E00E94FB34A5019401F2
:101880000E944D3514E6121B6091F60070E080E076
:1018900090E00E94553323EA3BE04EE054E40E947E
:1018A00070346B017C01C501B4010E9455339B016A
:1018B000AC01C701B6010E94BC320E942933C62E7A
:1018C0001092F60081E090E061E070E00E94AF08C5
:1018D000812F65E00E941A35882E082FFF2404C04E
:1018E0008FEF0E949408F394F814D0F304C080E1C1
:1018F0000E9494080F5F0431D0F382E090E061E031
:1019000070E00E94AF0800D000D000D0EDB7FEB765
:1019100031968FEF90E0ADB7BEB712969C938E9341
:10192000119712831382C48215820E94F4088DB726
:101930009EB706960FB6F8949EBF0FBE8DBF83E08C
:1019400090E061E070E00E94AF088AEE90E00E94B3
:101950003B0984E090E066E070E00E94AF0882EE10
:1019600090E00E943B098091CC009091CD00A0E1D5
:1019700081309A0721F0B0E182309B0721F4109268
:10198000CD001092CC001F910F91FF90EF90DF904F
:10199000CF90BF90AF909F908F907F906F905F900F
:1019A0004F9008959FB7F8948091630021E02093B1
:1019B00063009FBF823069F42FB7F8946091E90308
:1019C0007091EA038091EB039091EC032FBF0E948A
:1019D000A60B0895CF93DF931092630040916300AC
:1019E000EAE8F2E031C0208131812115310551F55D
:1019F00029E832E03187208720910B0130910C01DA
:101A00002115310539F4F0930C01E0930B0180832B
:101A1000918314C0DC016C93EC012197788382EDF3
:101A20009CE0ED0122978883ED01239798838FB77F
:101A3000ED01249788835797B183A08381E0809339
:101A4000630009C04F5F3A96443068F281E08093AA
:101A50006300E0E0F0E0CF01DF91CF9108951092B4
:101A600063002FB7F8946091E9037091EA038091C5
:101A7000EB039091EC032FBFAB01E0910B01F091D0
:101A80000C0126813781421B530B4933510518F055
:101A90007783668311C028E330E0241B350B40E0D8
:101AA00050E0260F371F481F591F2283338344837A
:101AB000558322E0209363003FB7F89420916300A0
:101AC00041E0409363003FBF223011F40E94A60B17
:101AD0000895E0910B01F0910C01918780872FB759
:101AE000F8946091E9037091EA038091EB0390917F
:101AF000EC032FBF0E94A60B089570930C01609316
:101B00000B01DB01FC011FB6F8941F922F923F924C
:101B10004F925F926F927F928F929F92AF92BF92FD
:101B2000CF92DF92EF92FF920F931F93CF93DF93A9
:101B30000DB701930EB700830D910DBF0C910EBF31
:101B4000DF91CF911F910F91FF90EF90DF90CF9099
:101B5000BF90AF909F908F907F906F905F904F90CD
:101B60003F902F901F901FBE112408958FEF0E9469
:101B7000310783E00E9487098E98BA98B898C09A76
:101B8000BC988B9810920E0210920D0210921002C7
:101B900010920F020895EF92FF920F93CF93DF936D
:101BA0008CE30E948E098FB7F894E090E903F090DF
:101BB000EA038FBF80913501909136019701281B70
:101BC000390BC90131E08D31930750F080E062E8B4
:101BD00070E00E94390781E064E870E00E943907F4
:101BE00082E066E072E00E94390783E068E072E01C
:101BF0000E94390784E06CEF71E00E94390785E0AC
:101C00006EEF71E00E94390786E062E072E00E94A8
:101C1000390787E064E072E00E94390783E00E94A0
:101C20000E0B8093E30382E00E940E0B8093E80387
:101C300080B3829586958695817080930B0286B3DA
:101C4000817080930A0286B3869586958170809311
:101C50000C028FB7F894C091E903D091EA038FBFCB
:101C600020912D01E22FF0E0E35FFE4F8081918112
:101C7000AE01481B590BCA0154E0853C9507A8F0FA
:101C80002E5F2F70E22FF0E0E35FFE4FD183C08321
:101C900020932D0180E067E472E04DE051E000E028
:101CA0000E94972881E080932F0120912E01E22F3E
:101CB000F0E0E35EFE4F80819181AE01481B590B3D
:101CC000CA0154E0853C9507A8F02E5F2F70E22FE3
:101CD000F0E0E35EFE4FD183C08320932E0181E0CC
:101CE00065E472E04DE151E000E00E94972881E058
:101CF000809330010E94802D8091350190913601B2
:101D00009701281B390BC90131E08D31930750F140
:101D1000F0923601E09235010E94AF078823E1F38B
:101D20002091820030918300E0918600F09187003D
:101D300082E890E060E072E045E752E009950E9499
:101D4000AF078230E0F32091840030918500E0916C
:101D50008600F091870084E890E061E072E041E95C
:101D600052E009950E94AF078F3FE1F78CE30E9494
:101D7000C0090E941E30DF91CF910F91FF90EF902C
:101D800008950F938091E9039091EA0306B30295B9
:101D9000017020913401021729F000933401109250
:101DA000320136C0209132012C3020F42F5F209375
:101DB00032012EC02C3061F52DE02093320140918C
:101DC000E20320910D0230910E0240FD03C02F5F0F
:101DD0003F4F02C02150304030930E0220930D023D
:101DE00020912D012E5F2F70E22FF0E0E35FFE4F78
:101DF0009183808320932D0180912F01882329F4E2
:101E000067E472E04DE051E044C010922F0146C0FB
:101E100000B30695069506950170209133010217CF
:101E200029F0009333011092310138C02091310123
:101E30002C3020F42F5F2093310130C02C3071F50D
:101E40002DE0209331014091E20320910F02309167
:101E5000100241FD03C02F5F3F4F02C021503040B0
:101E60003093100220930F0220912E012E5F2F70CD
:101E7000E22FF0E0E35EFE4F9183808320932E01FA
:101E800080913001882341F481E065E472E04DE106
:101E900051E00E94972802C0109230010F910895DE
:101EA00085B3807E85BB089584B38F6184BB0E9417
:101EB000500F08951F93DF93CF9300D00F92CDB7AB
:101EC000DEB795B3907E95BB18E025B3982F991F88
:101ED0009927991F922B95BB95B3962B95BB880F8D
:101EE0004B836A8389830E94500F11504B816A8112
:101EF0008981112351F785B3842B85BB0F900F90F7
:101F00000F90CF91DF911F91089542E00E945A0FE8
:101F10000E94500F08951F920F920FB60F92112436
:101F2000AF92BF92CF92DF92EF920F932F933F9396
:101F30004F935F936F937F938F939F93AF93BF93D1
:101F4000CF93DF93EF93FF93A090E903B090EA0360
:101F5000C090EB03D090EC030894A11CB11CC11CF1
:101F6000D11CA092E903B092EA03C092EB03D09295
:101F7000EC03CDB7DEB785ED92E09EBF8DBF7894C0
:101F80008EEC90E066E370E041E02AEF0AE03EE08C
:101F9000E32E0E94190A0E94C10EF894DEBFCDBF45
:101FA000809137019A2D981B963030F0A09237011E
:101FB000C601B5010E94A60BFF91EF91DF91CF9171
:101FC000BF91AF919F918F917F916F915F914F9151
:101FD0003F912F910F91EF90DF90CF90BF90AF90F6
:101FE0000F900FBE0F901F90189514BC8CE085BD0C
:101FF0008BE283BD89B7806889BF7894089580E3B8
:1020000093E066ED72E040E50E94422686E293E0AE
:102010006AE373E040E90E9442268FB7F89410BC4F
:1020200090E199B998E99AB996E890BD9CB15F9909
:10203000FDCF92EC9BB98FBF08951F920F920FB600
:102040000F9211242F938F939F93EF93FF938CB153
:102050002091300390913103291721F481E080937E
:10206000380318C0E0913403F091350381938091D7
:102070003703815021F480913103E81BF1098093EB
:102080003703F0933503E0933403809130038F5F7F
:1020900080933003FF91EF919F918F912F910F903B
:1020A0000FBE0F901F9018951F920F920FB60F92B0
:1020B00011248F939F93EF93FF938091260388239E
:1020C000D1F0E0912803F0912903919180912C03A4
:1020D000815021F480912703E81BF109F093290333
:1020E000E093280380932C038091260381508093F2
:1020F00026039CB901C05598FF91EF919F918F9154
:102100000F900FBE0F901F901895EF92FF921F93A4
:10211000DF93CF930F92CDB7DEB77C01462F4139C5
:1021200060F0142F1695C701612F49830E94851016
:10213000E10EF11C4981411BF2CF20E930E0842FF0
:1021400090E050912603F901E51BF109E817F90722
:10215000C4F386E293E0B7010E944E26559A0F9091
:10216000CF91DF911F91FF90EF900895809102022F
:102170009091030223E0813A920744F084ED9EEFB0
:102180009093D5038093D40321E001C020E0809197
:1021900004029091050233E0813A93073CF084ED0C
:1021A0009EEF9093D3038093D20302C0213011F4A9
:1021B0000E94732308952091840030918500283C6B
:1021C00031051CF41092640017C041E02C32340732
:1021D00034F420916400222331F021E00BC041E06F
:1021E0002039340734F420916400223010F022E0CA
:1021F00001C023E02093640020918200309183008D
:10220000283C31051CF41092650017C041E02C32C7
:10221000340734F420916500222331F021E00BC013
:1022200041E02039340734F420916500223010F069
:1022300022E001C023E0209365002091C30130918A
:10224000C401121613060CF075C02091C50130911F
:10225000C601121613060CF06DC0209164002223F3
:10226000B9F430916500332399F440918400509182
:1022700085002091820030918300421753071CF49F
:1022800064E170E002C06CEE7FEF0E948C20089544
:1022900080916500813061F0813028F08230A9F0B2
:1022A0008330E9F417C080E090E0A0E8BFEB04C001
:1022B0008AE999E9A9E1BFE38093CE039093CF0324
:1022C000A093D003B093D1030DC08DEC9CECACE493
:1022D000BFE3F2CF80E090E0A0E8BFE3EDCF83E082
:1022E00080936500213061F0213028F0223069F0C0
:1022F0002330E9F40FC080E090E0A0E8BFEB0EC00F
:102300008AE999E9A9E1BFE309C08DEC9CECACE452
:10231000BFE304C080E090E0A0E8BFE38093CA037D
:102320009093CB03A093CC03B093CD03089583E0A7
:102330008093640008950F931F93CF93DF938C01D4
:10234000C8E3D1E081E0E881F9813097E1F095813F
:1023500090FD03C09E70943021F4EA81FB81309798
:1023600019F4198218820FC00995882359F08881C1
:1023700099810E9493218881998163E00E94532270
:102380001982188280E0249691E0C835D907D9F6E1
:10239000882319F0C8010E948021DF91CF911F91FD
:1023A0000F9108956115710539F1E8E3F1E080E0DE
:1023B00090E0A82F208131812115310561F4FC01C5
:1023C000EE0FFF1FEE0FFF1FE85CFE4F718360836F
:1023D0005383428306C0AF5F0196349688309105DF
:1023E00041F7A83049F080E090E06BE971E142E00C
:1023F0000E94F7219C0102C020E030E0C90108954D
:102400000F931F93CF93DF938C01CB01EA010E94BE
:102410006021BC01C801AE010E94D211DF91CF91B1
:102420001F910F910895FC012FB7F8946091E90373
:102430007091EA038091EB039091EC032FBF209100
:1024400058013091590140915A0150915B01621736
:1024500073078407950720F0CF0161E00E945322A3
:1024600008950F931F93CF93DF93EC018B0163E1EA
:1024700072E140E00E94F7218D818E70D9F02FB774
:10248000F8948091E9039091EA03A091EB03B09155
:10249000EC032FBF20E030E0080F191F2A1F3B1F5D
:1024A000009358011093590120935A0130935B0116
:1024B00080E001C08FEFDF91CF911F910F910895C0
:1024C00080912F0290913002909366018093650174
:1024D000809131029091320290936801809367015C
:1024E000609123027091240280912502909126022E
:1024F0000E94243370936A0160936901089586E90C
:1025000092E10E9460210E947C2B009719F00E94AA
:10251000012C08958FEF08959B01AC01B9018091C2
:102520006001909161010E94472C0895AF92BF9283
:10253000CF92DF92EF92FF920F931F93DF93CF938F
:10254000CDB7DEB728970FB6F894DEBF0FBECDBF6C
:102550008C0180916401882321F0813009F06FC1E2
:1025600021C0C80160E070E040E40E948C2B909391
:10257000610180936001009729F4C80160E00E9426
:1025800053225DC10E9460126091670170916801E1
:1025900080916501909166010E948C1281E0809388
:1025A00064014DC1609167017091680140912F02F3
:1025B00050913002209131023091320280916501B8
:1025C000909166010E94C927613428E3720720E0D8
:1025D000820720E09207B4F06091230270912402F8
:1025E00080912502909126020E94243301E02091DF
:1025F000690130916A012617370709F400E00E944B
:10260000601201C000E08091690190916A010E940E
:10261000A72785319105ECF0609167017091680101
:1026200040912F02509130022091310230913202BC
:1026300080916501909166010E94C92761312EE069
:10264000720720E0820720E092071CF00E946012CF
:1026500003C0002309F4F3C000912F02109130024F
:10266000A0903102B090320280916201882309F477
:10267000DCC08091600190916101BE016F5F7F4F6E
:1026800041E00E94BB2C813009F096C0809160012E
:1026900090916101BE016B5F7F4F42E00E94BB2CB5
:1026A000813009F089C0E0E1F0E0C801BF010E947B
:1026B0003A358B0189819A81BF010E943A359B018D
:1026C0007A8369838B819C81BF010E943A357B01AB
:1026D0007C836B83C901801B910B0196833091052C
:1026E00008F489018D819E81E0E1F0E0BF010E9444
:1026F0003A356B017E836D838F819885BF010E947F
:102700003A3578876F83C21AD30A0894C11CD11C4A
:1027100083E0C816D10410F43E832D834D815E8181
:102720002417350779F0C701861B970BB901641B85
:10273000750B0E943A3577FF03C0709561957F4F06
:10274000E62F01C0E4E602171307A1F0C50160E11E
:1027500070E00E943A35AB014E195F09B801621B67
:10276000730BCA010E943A3577FF05C070956195D9
:102770007F4F01C064E6FF27E7FDF095772767FDEF
:102780007095E61BF70B3996E331F10598F48091CB
:102790006B01833078F48091600190916101BE01FA
:1027A0006F5F7F4F0E946E2C80916B018F5F8093D3
:1027B0006B0102C010926B01809162018230A8F11E
:1027C00092E0E92E8E010F5F1F4F25C0609131020C
:1027D0007091320249815A812B813C8180912F0274
:1027E000909130020E94C92760342CE9720720E0E2
:1027F000820720E0920774F408C0809160019091F4
:102800006101B8010E946E2CEA948E2D8230A8F7E7
:1028100082E0E82EE3948091600190916101B8011B
:102820004E2D0E94BB2C882389F660913102709155
:10283000320280912F02909130020E948C122896D1
:102840000FB6F894DEBF0FBECDBFCF91DF911F91C1
:102850000F91FF90EF90DF90CF90BF90AF900895D1
:10286000FF920F931F93CF93DF93EC01862FF42EEB
:102870000E94092C8C01009721F48D81817F8D832A
:1028800020C086E992E10E948921882351F086E9DF
:1028900092E10E9460210E94802181E080936C017E
:1028A00002C010926C011093610100936001CE018F
:1028B0006CEB74E141E00E94F72110926301F09209
:1028C0006D01DF91CF911F910F91FF900895CF93EC
:1028D000DF93EC010E947F12682FCE0140E00E943E
:1028E0003014DF91CF910895CF93DF93EC010E94D4
:1028F0007F12682FCE0141E00E943014DF91CF910A
:102900000895EF92FF920F931F93CF93DF93EC0103
:10291000862FE0902F02F09030020091310210914A
:1029200032020E94092CB801A7010E94472C20976F
:1029300021F08D81817F82608D83DF91CF911F9106
:102940000F91FF90EF9008956093620166E972E144
:1029500042E00E94F72110926301109264011092EC
:102960006601109265011092680110926701109241
:102970006A01109269010895CF93DF93EC01809171
:102980006301882329F520916D0180916001909168
:102990006101222329F06CE571E00E94942C04C0AF
:1029A0006CE571E00E946E2C882321F481E0809315
:1029B000630120C060915C0170915D0140915E01F6
:1029C00050915F01CE0127EE33E00E944D1A12C0F4
:1029D0001092610110926001CE0161E00E945322C9
:1029E00080916C01813031F480E090E0609162016F
:1029F0000E94A414DF91CF91089581E090E061E0FE
:102A000070E00E94AF0800D000D000D0EDB7FEB754
:102A1000319680E591E0ADB7BEB712969C938E9348
:102A2000119780915C0190915D01938382838091E5
:102A30005E0190915F01958384830E94F4088DB7B5
:102A40009EB706960FB6F8949EBF0FBE8DBF82E06C
:102A500090E061E070E00E94AF088CE391E00E949A
:102A60003B0983E090E061E070E00E94AF0888E2FB
:102A700091E00E943B0984E090E061E070E00E94F8
:102A8000AF0884E191E00E943B098091CC009091D5
:102A9000CD00A0E185309A0781F1B0E186309B0737
:102AA00050F420E18330920779F0A0E184309A0756
:102AB00009F044C019C0B0E187309B0741F120E123
:102AC00088309207D9F52CC01092CD001092CC001E
:102AD0000E947F128F3F91F10E947F12682F80E049
:102AE00090E00E94811408951092CD001092CC00C5
:102AF00080E090E00E94671408951092CD0010923B
:102B0000CC0080E090E061E00E94A414089510924F
:102B1000CD001092CC0080E090E00E9474140895E3
:102B20001092CD001092CC000E947F128F3F31F0A6
:102B300080916001909161010E941B2C0895CF93B8
:102B4000DF93EC0180916E01882321F0813009F040
:102B5000D0C014C08BE08093F0000E94A00800D089
:102B60008CEB91E0ADB7BEB712969C938E93119704
:102B70000E94F40881E080936E0169C082E090E0D9
:102B800061E070E00E94AF0800D000D000D0EDB747
:102B9000FEB7319688EA91E0ADB7BEB712969C9326
:102BA0008E9311978091FC019091FD019383828314
:102BB0008091FE019091FF01958384830E94F40827
:102BC000EDB7FEB736960FB6F894FEBF0FBEEDBF59
:102BD00083E090E061E070E00E94AF088091FC012A
:102BE0009091FD012091FE013091FF01821B930B1A
:102BF0008D339105A4F000D08AE991E0ADB7BEB75E
:102C000012969C938E9311970E94F40883E290E0B1
:102C10009093D5038093D4038DED9FEF14C08E3134
:102C20009105C4F400D08DE891E0EDB7FEB7928332
:102C300081830E94F4088DED9FEF9093D5038093DC
:102C4000D40383E290E09093D3038093D2030F9058
:102C50000F9053C080916F019091700101969093F5
:102C6000700180936F0100D080E891E0ADB7BEB7EE
:102C700012969C938E9311970E94F4080F900F90D8
:102C800084E090E061E070E00E94AF0800D000D0E6
:102C900000D0EDB7FEB731968DE691E0ADB7BEB787
:102CA00012969C938E93119780916F019091700171
:102CB00093838283809166009091670095838483DB
:102CC0000E94F408EDB7FEB736960FB6F894FEBF33
:102CD0000FBEEDBF809166009091670097FF02C024
:102CE0004FEF01C041E0CE0166E470E00E94BE1AE1
:102CF00004C0CE0161E00E945322DF91CF9108957C
:102D0000CF93DF93EC0180916F0190917001883037
:102D1000910550F183E090E061E070E00E94AF081F
:102D200000D081E691E0EDB7FEB7928381830E94E7
:102D3000F4080F900F9084E090E061E070E00E9452
:102D4000AF0800D080E691E0EDB7FEB792838183B3
:102D50000E94F4080F900F90CE010E946714109209
:102D6000700110926F0103C0CE010E949F15DF9188
:102D7000CF91089529EC3FEF3093670020936600D0
:102D80000E949F15089510926E0127E330E0309362
:102D90006700209366006FE975E141E00E94F7212A
:102DA000089510926E0129EC3FEF30936700209355
:102DB00066006AEB76E141E00E94F72108951092E7
:102DC0006E0127E330E03093670020936600109295
:102DD000700110926F0160E876E141E00E94F721F6
:102DE0000895EF92FF920F931F937B018C0120E0D7
:102DF00030E0A9010E94653487FD09C0C801B70110
:102E000020E030E040E05FE30E94EF3108C0C801FD
:102E1000B70120E030E040E05FE30E94EE310E9425
:102E20002433CB011F910F91FF90EF900895E1990A
:102E3000FECF9FBB8EBBE09A8DB308959FBB8EBB28
:102E40006DBB0FB6F894E29AE19A0FBE08952F92E7
:102E50003F924F925F926F927F928F929F92AF922A
:102E6000BF92CF92DF92EF92FF920F931F93DF9367
:102E7000CF93CDB7DEB760970FB6F894DEBF0FBE25
:102E8000CDBF7C01609173017091740140912F025C
:102E900050913002209131023091320280917101C3
:102EA000909172010E94C9275B016C0180917701AA
:102EB00090917801A0917901B0917A018A199B09CA
:102EC000AC09BD0989839A83AB83BC83A092770147
:102ED000B0927801C0927901D0927A018091690014
:102EE000833671F080917D0190917E01A0E0B0E089
:102EF0008A159B05AC05BD051CF083E08093690035
:102F000080916900813009F456C0813038F08230F8
:102F100009F4ECC1833009F0A0C224C28091710190
:102F20009091720120912F023091300260917301D3
:102F3000709174014091310250913202641B750B03
:102F4000821B930B0E94362725E33AEF4EE85CE3A1
:102F50000E94BC320E9424338091680087FF07C022
:102F60006C547F4F653B710514F06856714081E0E9
:102F70008093690090E4A9169CE9B90690E0C9061F
:102F800090E0D90614F4C70113C09B0177FF04C079
:102F900022273327261B370B2F31310564F02451AC
:102FA000304077FF03C0309521953F4FC701B901ED
:102FB0000E948C2059C28090710190907201809182
:102FC0002F0290913002881A990AA0917301B09152
:102FD00074018091310290913202A81BB90BB88B19
:102FE000AF87E0902B02F0902C0200912D021091FF
:102FF0002E02C801B70120918800309189004091CC
:103000008A0050918B000E94BC32362E272E8D8371
:103010009E838091680087FF04C017FB109517F905
:103020001095C4016F8578890E9436276F83788751
:1030300089879A876BED7FE089EC9FE32F81388544
:1030400049855A850E94EE312B013C016091230293
:1030500070912402809125029091260225E33AEF97
:103060004EE85CE30E9470349B01AC01C301B201E5
:103070000E94EE316B877C878D879E87C801B701E0
:1030800020E030E0A9010E94B532882351F40F2ED0
:10309000FDEBEF2EF7E3FF2EF6E80F2FF5E31F2FE2
:1030A000F02DEF85F889BF01882777FD8095982F4F
:1030B0000E945733D1017D806E802B2F322D472DFA
:1030C000562D0E9470343B01582E492E9201772DC7
:1030D000832F922FA80197010E94BC32362E272EF3
:1030E0008D839E835B854C853D852E85652F742F52
:1030F000832F922F0E94D3347B018C01B401882747
:1031000077FD8095982F0E945733F201262D372D99
:103110004F2F5E2F0E94EF31A80197010E9470345B
:10312000862E772E682E592E6F81788589859A850F
:103130000E94D3347B018C0120E030E0A9010E9481
:10314000B532882351F40F2EFDEBEF2EF7E3FF2E5F
:10315000F6E80F2FF5E31F2FF02D682D772D862D24
:10316000952DA80197010E94BC329B01AC01D101B1
:103170000D81EE806B2F722D802F9E2D0E94EF31DE
:1031800020E030E040E05FE30E947034E62EF72E4E
:10319000082F192F0E9424336115710551F40F2E49
:1031A000F0E0EF2EF0E5FF2EF3EC0F2FF7E41F2FEA
:1031B000F02DF0E4AF16FAEFBF06F1E0CF06F0E035
:1031C000DF065CF4C601B5010E94573325EE3CE2F0
:1031D0004DE457E40E94BC3204C06BED7FE089EC03
:1031E0009FE30E94D33420E030E048EC52E40E9498
:1031F00070340E9424336C597F4F70938401609324
:1032000083018091680087FF0BC0709561957F4FA7
:10321000709384016093830117FB109517F9109543
:103220006091830170918401882777FD8095982FA4
:103230000E9457333B014C01C801B70126E636E630
:1032400042E452E40E94EF319B01AC01C801B70196
:103250000E94BC32A40193010E9470340E94F116B6
:10326000A82ED92E8093810190938201C801B701C5
:1032700026E636E642E452E40E94EE319B01AC01C0
:10328000C801B7010E94BC32A40193010E947034AE
:103290000E94F11680937F01909380012A2D3D2D8D
:1032A00037FF03C0309521953F4F2233310584F01D
:1032B00097FF03C0909581959F4F8233910544F00D
:1032C00041E02F35340724F4A1E08F359A071CF034
:1032D00010926900C9C01092850110928601109267
:1032E00087011092880182E08093690080918101BA
:1032F000909182019093D5038093D40380917F01B4
:10330000909180019093D3038093D20329813A81D5
:103310004B815C8157FF07C05095409530952195B2
:103320003F4F4F4F5F4F8091850190918601A09153
:103330008701B0918801820F931FA41FB51F80934E
:10334000850190938601A0938701B0938801853809
:10335000E3E09E07E0E0AE07E0E0BE070CF484C0C7
:1033600081E078C01092D5031092D4031092D30359
:103370001092D20380911D0290911E02009709F0D5
:1033800073C080911F0290912002009709F06CC0D9
:1033900089819A8120917701309178012817390726
:1033A00014F097FF04C0B094A194B108B394209195
:1033B0007D0130917E01C501820F931F62E070E0B4
:1033C0000E943A356432710544F08B01F3E06538B0
:1033D0007F072CF004E813E002C004E210E00217BB
:1033E0001307D1F0D12E60907B0170907C01C30156
:1033F0000E941717801721F0C301602F0E941E172B
:103400000894611C711CC3010E9417178D1521F0CF
:10341000C3016D2D0E941E17609175017091760198
:1034200023E0673E7207A9F080912702909128025D
:10343000681B790B653B71051CF06856714006C02E
:103440003FEF6C34730714F468597E4FC7010E9434
:103450008C2083E68093690007C081E08093680038
:10346000C70161E00E94532260960FB6F894DEBF58
:103470000FBECDBFCF91DF911F910F91FF90EF90C5
:10348000DF90CF90BF90AF909F908F907F906F9084
:103490005F904F903F902F900895FF920F931F934E
:1034A000CF93DF9370937201609371015093740115
:1034B00040937301309376012093750167E277E1C1
:1034C00041E00E94F7218C0180916900833619F058
:1034D00081E080936800109269006091730170919F
:1034E000740140912F0250913002209131023091AD
:1034F000320280917101909172010E94C9276093FC
:103500007701709378018093790190937A01613407
:103510002CE9720720E0820720E092071CF082E687
:1035200092E002C080E692E090937C0180937B0160
:10353000C0917B01D0917C01CE010E941717F82E1B
:10354000CE0101960E941717F0927D0180937E01B3
:10355000C801DF91CF911F910F91FF900895E091E5
:103560002F02F09130026E0F7F1FE0913102F09137
:1035700032024E0F5F1F0E944D1A0895AF92BF9204
:10358000DF92EF92FF920F931F93CF93DF935C0133
:10359000D42E40936800882777FD8095982F0E944D
:1035A00057337B018C012091880030918900409134
:1035B0008A0050918B000E9470340E942433EB01EA
:1035C000C801B70120912B0230912C0240912D02AD
:1035D00050912E020E9470340E942433CB01D7FEFA
:1035E00006C0D095C195DF4F909581959F4F609112
:1035F0002F02709130026C0F7D1F4091310250916B
:103600003202480F591F83E68093690020912702F8
:1036100030912802C5010E944D1ADF91CF911F9170
:103620000F91FF90EF90DF90BF90AF900895AF9211
:10363000BF92CF92DF92EF92FF920F931F93CF939F
:10364000DF93162FE42E052F20918B01222309F002
:1036500048C0693008F047C06CE97BE140E00E9457
:10366000F72110936A00212F30E084E490E0289F36
:10367000B001299F700D389F700D1124FB01EF528E
:10368000FE4F4491409394016E527E4F83EA91E045
:1036900050E00E94C036D0909401AE2CE5017E012E
:1036A000F02EE70183EAE82E81E0F82ECC2404E92D
:1036B00011E010C0F70141917F01842F423008F4DE
:1036C00082E0081B1109C801BE0150E00E94DD36EE
:1036D0002496C394CD1470F381E080938B0180E035
:1036E00003C08FEF01C08EEFDF91CF911F910F913B
:1036F000FF90EF90DF90CF90BF90AF9008951F9311
:1037000010918901133098F4FC012081222379F073
:103710000E94A236E12FF0E0EE0FFF1FEE0FFF1F19
:10372000EB56FE4F918380831F5F1093890181E0E8
:1037300080938A011F910895EF92FF920F931F9338
:10374000DF93CF93CDB7DEB765970FB6F894DEBFA2
:103750000FBECDBF7C0180918B01813021F0823082
:1037600009F05EC035C020916A002A3028F010921E
:103770008B01C70160E058C030E084E490E0289FEE
:10378000F001299FF00D389FF00D1124ED5EFD4FE3
:10379000A591B49180919401843018F010928B011E
:1037A00045C04091900150919101609192017091BA
:1037B000930100918C0110918D0120918E01309127
:1037C0008F01C701FD01099582E080938B012EC016
:1037D00020916A0030E084E490E0289FB001299FA6
:1037E000700D389F700D11246B527E4F8E010F5F4C
:1037F0001F4FC80145E150E00E94C036F701258106
:103800002695277083819481009739F482E764E4D8
:10381000422F50E030E00E9430258FEF80936A0005
:1038200010928B01C70161E00E94532265960FB68A
:10383000F894DEBF0FBECDBFCF91DF911F910F91E6
:10384000FF90EF900895DF92EF92FF920F931F93F6
:10385000CF93DF938C01C0E0D0E034E4E32EF12C71
:10386000DC2ECE9DB001CF9D700DDE9D700D11241C
:103870006B527E4FC8010E94D436009731F02196DA
:10388000CA30D10569F7DD24DA948D2DDF91CF910F
:103890001F910F91FF90EF90DF9008950F931F936A
:1038A000CF93DF93EC01CB018A010E94231C682F88
:1038B000CE01A8010E94171BDF91CF911F910F919C
:1038C0000895BC01DC010D900020E9F7AD01481B13
:1038D000590B480F591F80E090E00E944E1C08953C
:1038E000CF93DF938CE99BE10E946021EC010E9461
:1038F0009321CE010E949C1BDF91CF9108958F925E
:103900009F92AF92BF92CF92DF92EF92FF920F936E
:10391000DF93CF93CDB7DEB7C454D0400FB6F89441
:10392000DEBF0FBECDBF41EDA42E41E0B42ECC24AE
:10393000DD244E010894811C911CC401B50144E4AE
:1039400050E00E94C03682E765E4A601960104E4D7
:1039500074010E9419250894C11CD11C84E490E0D4
:10396000A80EB91E9AE0C916D10439F7CC5BDF4F17
:103970000FB6F894DEBF0FBECDBFCF91DF910F9190
:10398000FF90EF90DF90CF90BF90AF909F908F907F
:1039900008958F929F92AF92BF92CF92DF92EF9253
:1039A000FF920F931F93CF93DF938091CC00909160
:1039B000CD008131910551F087319105C1F0803101
:1039C000910551F58091A10181500AC080918B0130
:1039D000823019F40E94701C1BC08091A1018F5F7E
:1039E0008093A1011092890110928A0111C081E097
:1039F00080938A018091A1019091A201890F809307
:103A0000A201893018F089508093A2011092A1017F
:103A10001092CD001092CC000E94A0088091A101CC
:103A200083306CF082E08093A1018091A2018F5FCE
:103A30008093A201893088F01092A2010EC087FF06
:103A40000CC01092A1018091A20181508093A2012B
:103A5000893018F088E08093A20180918A01882340
:103A600021F480918B01823019F48824839402C060
:103A7000F3E08F2E99249394E4E4CE2ED12C7FEDA5
:103A8000A72E74E0B72E80918B01823019F48091BB
:103A90006A0007C08091A2018150890D893008F029
:103AA0008950E82EFF24EC9CE001ED9CD00DFC9C9D
:103AB000D00D1124CF52DE4F092D10E0C80161E076
:103AC00070E00E94AF088091A101992787FD909531
:103AD00001960817190711F48EE301C080E200D0A7
:103AE00000D0ADB7BEB71296BC92AE92119799278F
:103AF00087FD909514969C938E9313970E94F408DB
:103B00000F900F900F900F90EC9CC001ED9C900DCA
:103B1000FC9C900D112487529E4F0E943B09939468
:103B2000891408F0B0CF84E090E061E070E00E947A
:103B3000AF0880918B01823009F04EC080ED94E097
:103B40000E943B0983E090E061E070E00E94AF08D2
:103B500084EC94E00E943B0982E090E061E070E038
:103B60000E94AF0881EC94E00E943B09EE240CEB2C
:103B700014E02BC0EE2021F08FEB94E00E943B0973
:103B8000EE2DF0E0AA27BB27AE1BBF0BAA0FBB1F71
:103B9000AE56BE4F8D919C91119787FF07C031960D
:103BA000EC0FFD1FE491E13009F49F6F00D000D0CD
:103BB000EDB7FEB712830183948383830E94F408D8
:103BC000E3940F900F900F900F9080919401E8165E
:103BD00088F28AEB94E0A0C0FE01049180918901F3
:103BE000801708F07CC090918A01992309F477C06E
:103BF00085EA94E00E943B0982E090E061E070E099
:103C00000E94AF086996E090890110E008C0CE01DB
:103C10006CE270E00E94C936EC0122961F5F1E150F
:103C2000B0F3CE010E943B09CE016CE270E00E942D
:103C3000C936009791F0182F1C1B612F70E06F5F41
:103C40007F4F82E090E00E94AF0805C083EA94E0D5
:103C50000E943B091F5F1431C8F383E090E061E0EC
:103C600070E00E94AF0800D000D000D0EDB7FEB7E2
:103C7000319686E994E0ADB7BEB712969C938E93C9
:103C800011978091890190E0019693838283048348
:103C900015820E94F408EDB7FEB736960FB6F89479
:103CA000FEBF0FBEEDBF80918A018130B9F5E09172
:103CB0008901F0E0EE0FFF1FEE0FFF1FEB56FE4FE6
:103CC000108211821282138282E080938A018FE730
:103CD0009BE161E043E029E00E9418031FC0081740
:103CE000A9F48AE894E00E943B0980918A0181301E
:103CF000A9F410928A011092890180E090E060910D
:103D0000A20145E951E00E94171B08C080918A0179
:103D1000882321F489E794E00E943B09DF91CF9149
:103D20001F910F91FF90EF90DF90CF90BF90AF90D9
:103D30009F908F900895E199FECF9FBB8EBBE09A34
:103D40008DB308959FBB8EBB6DBB0FB6F894E29AFE
:103D5000E19A0FBE0895EF92FF921F93CF93DF93E6
:103D6000E82EE7017E01F92EC7010E949B1E182F45
:103D7000C70101960E949B1E982F812FDF91CF9142
:103D80001F91FF90EF900895CF92DF92EF92FF92F4
:103D90001F93DF93CF930F92CDB7DEB7172F6C0130
:103DA00069830E949B1E6981861719F0C6010E94D3
:103DB000A21E0894C11CD11CC6010E949B1E811723
:103DC00021F0C601612F0E94A21E0F90CF91DF91BA
:103DD0001F91FF90EF90DF90CF900895EF92FF92A8
:103DE0000F931F93CF93DF938C014091AE012091ED
:103DF000290230912A028091AC019091AD0147FFD8
:103E00001DC0821793076CF48233910554F480919E
:103E1000AA019091AB01805F914F9093AB01809389
:103E2000AA01205F314F8091AA019091AB01281B1C
:103E3000390B3093B3012093B2011DC02817390705
:103E400074F44DE08F3D940754F08091AA01909155
:103E5000AB0180519E409093AB018093AA01809169
:103E6000AA019091AB0180519E40821B930B9093CD
:103E7000B3018093B2018091290290912A0290931C
:103E8000AD018093AC018091AF01813009F4B1C0E4
:103E9000813020F0833609F0DDC0BBC020911F02C5
:103EA0003091200237FF03C0309521953F4F80911C
:103EB0001D0290911E0297FF03C0909581959F4F20
:103EC000820F931F959587958C3391051CF484E69A
:103ED00092E01BC0883791051CF486E692E015C07D
:103EE000843B91051CF488E692E00FC08A3F91055F
:103EF0001CF48AE692E009C051E0883195071CF471
:103F00008CE692E002C08EE692E09093B10180933D
:103F1000B001C091B001D091B101CE010E94AB1EA1
:103F200027E08930920738F0CE0160E070E00E940F
:103F3000C41E80E090E06091B2017091B3018617D9
:103F400097070CF04CC0645873401616170664F5BA
:103F500043E0643874076CF4882777FD8095982FC8
:103F60000E9457332CE43DE34FE854E40E94BC32F6
:103F700004C06BED7FE089EC9FE30E94D3347B01AA
:103F80008C016091A6017091A701882777FD80952B
:103F9000982F0E9457339B01AC01C801B7010E94C2
:103FA00070340E94243302C060E070E08091A80168
:103FB0009091A901860F971F2091AE0127FF03C0A2
:103FC000909581959F4F9093D3038093D2039095C2
:103FD00081959F4F9093D5038093D4033BC010925B
:103FE000D5031092D4031092D3031092D20381E030
:103FF0000DC080911D0290911E02009759F580918D
:104000001F0290912002009729F583E68093AF016B
:1040100021C0C091B001D091B101CE010E94AB1E70
:104020009C018091B2019091B301A901481B590BE9
:10403000CA0157FF02C080E090E0820F931F62E048
:1040400070E00E943A35CE010E94C41EC80161E0B2
:104050000E945322DF91CF911F910F91FF90EF901B
:10406000089502C068567140E1E069367E07D4F7D2
:1040700002C068597E4FEEEF68397E07D4F3E1E065
:104080002D323E0714F02CE231E02233310514F4D6
:1040900022E330E0F901A22FEF2F4217530714F467
:1040A000A42FE52F4A2F5E2F4233510514F442E32B
:1040B00050E05093A9014093A801241B350B309385
:1040C000A7012093A601E0912902F0912A029F0105
:1040D000205F314FAB01440F551FDB0163E0AA0F96
:1040E000BB1F6A95E1F74A0F5B1F240F351F309302
:1040F000AB012093AA01F093AD01E093AC01272F0F
:10410000220F220B2093AE011092AF016EEE7EE1E2
:1041100041E00E94F721089542E350E026E930E0B3
:104120000E94312008958091B4019091B50190933F
:10413000D5038093D4038091B6019091B7019093F9
:10414000D3038093D2030895EF92FF921F93DF93DE
:10415000CF930F92CDB7DEB7182F7B0188E090E0A8
:1041600049830E946F35FC014981009769F01283F1
:1041700041708581807F17821682F182E0821482ED
:104180001382842B82608583CF010F90CF91DF91C2
:104190001F91FF90EF900895CF93DF93FC01A091C2
:1041A000BE01B091BF010097F9F0109741F08281F4
:1041B00012969C911297981758F4B783A683F093A0
:1041C000BF01E093BE0110C09A81981738F0DE015C
:1041D0001696CD91DC9117972097B1F71796FC931F
:1041E000EE931697D783C683DF91CF91089588E623
:1041F0006FE975E141E00E94A4200E94CC2087E68F
:104200006AEB76E140E00E94A4200E94CC2089E67F
:1042100060E876E140E00E94A4200E94CC208EEF6E
:104220006CE97BE140E00E94A4200E94CC2089EF51
:1042300066EB70E141E00E94A4200E94CC2088EF50
:104240006BED70E141E00E94A4200E94CC2088EC3C
:1042500063E172E140E00E94A4200E94CC208EEB3A
:1042600066E972E141E00E94A4200E94CC208AE924
:104270006BE971E140E00E94A4200E94CC2086E915
:104280006EEE7EE140E00E94A4200E94CC2082E9F4
:1042900067E277E140E00E94A4200E94CC2081E206
:1042A0006CEB74E140E00E94A4200E94CC2082E0EC
:1042B00063E970E241E00E94A4200E94CC200895AE
:1042C000E091BE01F091BF0108C020813181281723
:1042D000390729F00680F781E02D3097B1F7CF013B
:1042E0000895E091BE01F091BF0106C09281981738
:1042F00029F00680F781E02D3097C1F7CF010895AE
:10430000FC01009729F085818E7F858314821382BA
:1043100008950E946021009721F0FC018581817041
:10432000089580E00895EF92FF920F931F93CF932B
:10433000DF931091BE017091BF01E12FF72F20E0B4
:1043400030E043C0458140FD07C038C06F5FA8170B
:10435000B90721F4DF012AC0DF0160E013960D9058
:10436000BC91A02D109791F760E0F4CF4B815C8158
:104370004A175B0729F00E80DF81C02D2097B1F727
:104380001396FC90139714960C911497209759F458
:1043900015964C9115974E7F15964C93159714963C
:1043A0001C921E9213976150AF2DB02F662331F0EF
:1043B000E12EE7017E01F72EE701E0CFE817F907CC
:1043C00009F49F010680F781E02D309709F0BACFFC
:1043D0002115310529F0F9018581817F8760858369
:1043E000DF91CF911F910F91FF90EF9008950F9360
:1043F0001F93DF93CF930F92CDB7DEB78C01CB0124
:1044000049830E946021FC014981009769F40115EC
:10441000110509F441C0D80115968C911597817F3B
:1044200015968C93159738C0842F817050E0427098
:104430005070559547954170A381B481109791F0C4
:10444000882341F40115110529F1F8018581817F47
:10445000858320C015968C9115978160817F159674
:104460008C9315970115110579F0D80115968C914B
:104470001597442319F4807F846003C0817F88608E
:10448000D80115968C931597858181608583148357
:10449000038302C0E0E0F0E0CF010F90CF91DF9105
:1044A0001F910F910895FC0185818E7F8583A381E3
:1044B000B481109759F015968C91159781606770AB
:1044C000660F817F862B15968C9315971482138225
:1044D0000895E091BE01F091BF010CC0828183502C
:1044E000863C28F485818E7F858314821382068022
:1044F000F781E02D309791F708952F923F924F92D8
:104500005F926F927F928F929F92AF92BF92CF9263
:10451000DF92EF92FF920F931F93CF93DF930E944E
:104520001607C091BE01D091BF01DD24CC2450E814
:10453000B52E4FE3242E00E010E030E8F32E2FE3F9
:10454000E22E0F2EF0E04F2EF0E05F2EF0E86F2EFF
:10455000FFE37F2EF02DA6C08D8180FF96C088EEF0
:1045600093E09093D5038093D4039093D3038093E7
:10457000D2034092CA035092CB036092CC03709254
:10458000CD034092CE035092CF036092D00370923D
:10459000D103E881F981309719F0CE01099503C064
:1045A0008D818E7F8D839701602F712F832F9E2D9C
:1045B0002091CA033091CB034091CC035091CD039D
:1045C0000E9470348B01F82EE92EA601652F7C2DF8
:1045D0008B2D922D2091CE033091CF034091D003AB
:1045E0005091D1030E947034A62E972E882E392E1A
:1045F000D62EC72EB82E292E6091D4037091D503E4
:1046000093E0683E7907A1F0882777FD8095982F81
:104610000E945733F701202F312F4F2F5E2F0E941A
:1046200070340E9424337093D5036093D40308C080
:104630008091D2039091D30323E0883E920729F121
:104640006091D2037091D30383E0683E780791F0C4
:10465000882777FD8095982F0E9457332A2D392D72
:10466000482D532D0E9470340E9424337093D3033D
:104670006093D2036091D2037091D3038091D403ED
:104680009091D5030E94C22910C08E819F8100970E
:1046900031F488EE93E068EE73E00E94C2290E8048
:1046A000DF81C02D209709F057CFDF91CF911F9167
:1046B0000F91FF90EF90DF90CF90BF90AF909F90C1
:1046C0008F907F906F905F904F903F902F900895C4
:1046D000FC01009729F48091BE019091BF010895DB
:1046E000868197810895E091B801F091B9013097E2
:1046F00009F00995E091BA01F091BB01309709F0FA
:104700000995E091BC01F091BD01309709F0099540
:1047100008950E94B2070E94CB0D08952FB7F89418
:104720008091E9039091EA032FBF2091C10130915C
:10473000C201AC01421B530B9A0151E02D313507E8
:1047400028F09093C2018093C10106C08091CC00F3
:104750009091CD000097B1F08091C001882331F095
:104760008091CC009091CD00009741F08091F000B5
:104770000E94290381E08093C00104C00E94BD070C
:104780001092C0010E942F0D089580E090E060E03B
:1047900070E00E94C2290E94A00881E090E061E0E0
:1047A00070E00E94AF0882EE94E00E943B090E94F4
:1047B000040A0895E199FECF80E792E09FBB8EBB8B
:1047C000E09A8DB308951F93182F0E94DA23811762
:1047D00051F020E732E03FBB2EBB1DBB0FB6F89473
:1047E000E29AE19A0FBE1F9108950E94DA2308957C
:1047F000CF92DF92EF92FF920F931F93DF93CF93AD
:10480000CDB7DEB769970FB6F894DEBF0FBECDBF48
:10481000198280E393E08E010F5F1F4FB8014CE0D7
:104820000E94B526D82EF80150E001C05F5F5817EE
:104830001CF491919E33D1F7E52FFF27E7FDF0950A
:104840007E010894E11CF11CEE0DFF1D90819E334A
:1048500009F059C028E130E0251B31092C30310521
:1048600008F451C0452F481B445F14163CF58FB720
:10487000F8940091E9031091EA038FBF8CE0C82EF1
:10488000C50E2FB7F8948091E9039091EA032FBFEA
:10489000801B910B86359105B0F56D2D772767FD4F
:1048A00070956E0D7F1D80E393E0598F0E94B526B1
:1048B000D80E4C2D4D19598D14161CF3E52EFF24DE
:1048C000E7FCF0948E010F5F1F4F0E0D1F1DF801C6
:1048D00083858C33C1F4D284FD2DFF3F41F00E94CB
:1048E000F523D81621F0F8018181873561F4FE01A6
:1048F0003196A6EDB3E0EE0DFF1D8CE001900D9218
:104900008150E1F701C08FEF69960FB6F894DEBFD2
:104910000FBECDBFCF91DF911F910F91FF90EF9010
:10492000DF90CF900895CF92DF92EF920F931F9375
:10493000DF93CF930F92CDB7DEB7690180936E00FE
:104940006F7760936F0049830E94F5238093760010
:10495000498140937700E0927000D0927200C0923B
:10496000710010937400009373008091790080931C
:1049700075008F5F809379008DE690E06CE00E9477
:1049800085100F90CF91DF911F910F91EF90DF90E5
:10499000CF900895EF920F931F93109263000E949F
:1049A00093240E94D20C1F910F91EF900895EF92E3
:1049B0000F931F93DA01F901E02E109263004EEF7E
:1049C0009D018F010E9493240E94D20C1F910F9190
:1049D000EF9008950F9387E562E542E250E020E012
:1049E00030E000E00E94D7240F9108950E94F52343
:1049F00080588F3718F48FEF0E94E3230E94EA2437
:104A00000895CF92DF92EF92FF920F931F93FE2CA7
:104A1000109263000E949324C6016F2D0E9485109E
:104A20000E94D20C1F910F91FF90EF90DF90CF90DA
:104A30000895CF92DF92EF92FF920F931F93FA01A6
:104A4000D901902F67014EEF9F018D01E92E0E9441
:104A500001251F910F91FF90EF90DF90CF90089567
:104A6000AF92BF92CF92DF92EF92FF920F931F937C
:104A7000DF93CF930F92CDB7DEB75A01D90168010A
:104A80000115110579F0F80101900020E9F79F0167
:104A900021503040201B310B2F3F310509F020F40D
:104AA000522F03C050E001C05FEF109263004EEF41
:104AB00095018D01E52E59830E949324C6015981E9
:104AC000652F0E9485100E94D20C0F90CF91DF912C
:104AD0001F910F91FF90EF90DF90CF90BF90AF901C
:104AE0000895EF92FF920F931F93DF93CF93CDB76B
:104AF000DEB7A1970FB6F894DEBF0FBECDBF809191
:104B0000DF038E3F09F0A7C08091D703823589F07B
:104B1000833530F4813499F1803509F09AC040C072
:104B2000813709F493C08237F1F1873509F091C0DC
:104B30001CC02091DA033091DB0380916B009091CF
:104B40006C0080709870AC01422B532B5093D400B2
:104B50004093D3002115310509F47DC080959095CF
:104B600090936C0080936B0076C00E94EA240E94B0
:104B7000F5238F3F09F06FC081E462E55CC080914E
:104B8000D8038F778F3409F066C08091DA030E94D2
:104B9000E3234091DA035091DB0381E463E54DC0E8
:104BA0000E943F0B58C08091D8038F7790E08C34DF
:104BB000910541F08F34910541F08134910509F060
:104BC0004AC041C00E947F1C46C08FB7F894009134
:104BD000E9031091EA038FBF909130038091D903CC
:104BE000981760F42FB7F8948091E9039091EA0345
:104BF0002FBF801B910B8535910570F380E393E007
:104C00007E010894E11CF11CB7014091D9030E9478
:104C1000B5262FB7F8948091E9039091EA032FBF4E
:104C2000801B910B8535910520F4C7010E94611C02
:104C300012C082E764E440E050E020E030E000E0B1
:104C40000E94D72408C00E94701C05C00E94C52382
:104C500002C080E001C081E0A1960FB6F894DEBFEB
:104C60000FBECDBFCF91DF911F910F91FF90EF90BD
:104C700008950E9419270E9489230E947D220E9484
:104C80008E23F9CFFC011082648375836283738362
:104C90004183478346831186108608950F931F939F
:104CA000CF93DF93FC01442309F45AC051818081E2
:104CB000952F981B892F9417C0F491E09087242F8B
:104CC000281B368182819381321718F4350F851B9A
:104CD0009109321B3683820F911D938382839FB784
:104CE000F8948081821B80839FBF262F372F848179
:104CF00095815781142F541708F4152F02E015C021
:104D000079917D936F5F6117D8F3612F70E0260F63
:104D1000371F860F971F511B19F45181851B91096D
:104D2000015039F0642F611B162FE901DC0160E0AE
:104D3000EACF5783958384839FB7F8948081840F4B
:104D400080839FBF11862FB7F8946091E90370911B
:104D5000EA038091EB039091EC032FBF0E94A60B16
:104D6000DF91CF911F910F910895EF92FF920F93D2
:104D70001F93DF93CF9300D00F92CDB7DEB77C01A6
:104D8000442309F44BC0FC0180818823B1F481E005
:104D90008187C701099649836A837B830E94690DD5
:104DA000E0910B01F0910C0189E892E091878087F6
:104DB000F70180817B816A814981841708F4482F3B
:104DC000F701228133818681942F841708F4982F6C
:104DD00052E016C00D9101931F5F1917D8F3E92F08
:104DE000F0E02E0F3F1F6E0F7F1F891B21F4F7018C
:104DF0008181281B3109515039F0F42FF91B9F2F65
:104E0000D901FB0110E0E9CFF701338322838683C8
:104E10009FB7F8948081841B80839FBF842F0F905D
:104E20000F900F90CF91DF911F910F91FF90EF9016
:104E300008950E94ED090E94F50F0E94FF0F0E9445
:104E400043080E94D2080E94830A0E94102B0E94ED
:104E5000E6090E94B60D0E94F720B898C09A0E94F9
:104E6000290B0E9492040E94FD090895EF92FF927F
:104E70000F931F93CF93DF93EC01882777FD8095E5
:104E8000982F0E9457337B018C01BE01882777FD44
:104E90008095982F0E9457339B01AC01C801B70140
:104EA0000E9462327B018C01609123027091240286
:104EB000809125029091260225E33AEF4EE85CE3CB
:104EC0000E9470349B01AC01C801B7010E94EE3111
:104ED000F62E072F182FE92E2BED3FE049E450E482
:104EE0000E946534181674F46F2D702F812F9E2D3B
:104EF0002BED3FE049EC50E40E94EE31F62E072FF7
:104F0000182FE92E6F2D702F812F9E2D2BED3FE056
:104F100049E450EC0E94B53287FF0EC06F2D702F10
:104F2000812F9E2D2BED3FE049EC50E40E94EF31A4
:104F3000F62E072F182FE92E6F2D702F812F9E2D03
:104F4000DF91CF911F910F91FF90EF9008954091C5
:104F50001D0250911E0260911F027091200246179F
:104F6000570799F0209127023091280246175707DA
:104F70001CF4281B390B04C0AC01421B530B9A01D3
:104F800037FF05C028593E4F02C02FEF3FEFC90140
:104F90000895AF92BF92CF92DF92EF92FF920F935C
:104FA0001F93481B590B5A01CC24B7FCC094DC2C2E
:104FB000261B370B442737FD4095542FCA01B901F2
:104FC0000E94FB347B018C01C601B501A60195014D
:104FD0000E94FB34E60EF71E081F191FB701C80117
:104FE0001F910F91FF90EF90DF90CF90BF90AF9007
:104FF00008952F923F924F925F926F927F928F927D
:105000009F92AF92BF92CF92DF92EF92FF920F9357
:105010001F93DF93CF9300D000D0CDB7DEB74A0106
:10502000390125E33AEF4EE85CE30E9470348B01CE
:10503000282EE92E712F0E94B9325B016C01602F7E
:10504000712F822D9E2D0E94D33469837A838B83A6
:105050009C83B401882777FD8095982F0E94573351
:105060007B018C01B301882777FD8095982F0E94E2
:1050700057331B012C01A60195010E9470343B019E
:105080004C01C801B70129813A814B815C810E94A2
:1050900070349B01AC01C401B3010E94EF310E9446
:1050A00024333B018091310290913202680E791EC7
:1050B000C801B701A60195010E9470347B018C01E3
:1050C000C201B10129813A814B815C810E94703417
:1050D0009B01AC01C801B7010E94EE310E9424334C
:1050E000CB0120912F0230913002820F931FBC011F
:1050F000C3010F900F900F900F90CF91DF911F91F0
:105100000F91FF90EF90DF90CF90BF90AF909F9066
:105110008F907F906F905F904F903F902F90089569
:10512000E199FECF9FBB8EBBE09A8DB30895CF92DD
:10513000DF92FF920F931F93CF93DF93182FFB0102
:10514000C82FD0E089ECC82E81E0D82ECC0EDD1E11
:10515000D6013C91332371F411821082CC0FDD1FF4
:10516000FE01EC52FE4F11821082C053DE4F1982B5
:105170001882FDC0CA01820F911DDC016D917C91E6
:10518000CE0189539E4FDC01FC90BF2DB43141F418
:10519000FE01E253FE4F308389E1F6018083C0C0F7
:1051A000363428F0285000E088EC93E80FC0333202
:1051B00028F42250013039F005E006C0245000E008
:1051C00084EE91E403C00BEF82EF90E22F70420F68
:1051D000511DDA014D915C911197641B750B0E9472
:1051E0002635673008F0600F832F90E0861B910909
:1051F0009E01220F331FD901AC52BE4F4D915C91DD
:1052000020533E4FD901CD90DC9064E170E0C69E02
:105210009001C79E300DD69E300D1124ACE9BFEF32
:105220004A9FB0014B9F700D5A9F700D1124260F9D
:10523000371FAAE5B0E08A9FB0018B9F700D9A9F3F
:10524000700D1124260F371FA4E035952795AA95D8
:10525000E1F760817181620F731F71836083B2E037
:1052600060307B072CF06FEF71E07183608304C0C6
:1052700077FF02C0118210822115310509F441C067
:10528000DE01A753BE4F2C912931D9F5FF20C9F576
:1052900057FF03C0509541955F4FDE01AA0FBB1F1A
:1052A000A053BE4F2D913C91119737FF03C030950D
:1052B00021953F4F420FBC0197FF04C06627772717
:1052C000681B790B460F3091E203232F217036952E
:1052D0003170231711F420E001C022E0DE01A20F9B
:1052E000B11DAA0FBB1FA658BF4F11962C91119745
:1052F000241738F060817181759567956C931196CC
:105300004C93FE01EE0FFF1FDF01A053BE4FEC5286
:10531000FE4F2081318111963C932E93918380839F
:10532000FE01E953FE4F8081882309F1815080837B
:105330008F3021F08A3011F0853081F4FE01E7537F
:10534000FE4FC253DE4F888190E04997959587952F
:10535000959587952081280F208309C0882339F4EB
:10536000FE01E753FE4FC253DE4F88818083812FB9
:105370000E94B00ADF91CF911F910F91FF90DF90B3
:10538000CF9008950F931F93CF93DF93EB0197FF77
:1053900005C0909581959F4F0FEF01C001E0D7FFA9
:1053A00005C0D095C195DF4F1FEF01C011E023E08C
:1053B000883E920751F041E0813994074CF4009700
:1053C00061F0823391053CF008C080E090E005C0B8
:1053D00080E991E002C082E390E053E0C83ED50747
:1053E00051F021E0C139D2074CF4209761F0C2336B
:1053F000D1053CF008C0C0E0D0E005C0C0E9D1E074
:1054000002C0C2E3D0E02091C3013091C401602FFB
:10541000772767FD7095869FA001879F500D969F07
:10542000500D11242417350709F454C04091C701C9
:10543000442351F0009741F037FF02C02FEF01C025
:1054400021E0201709F446C02091C9012223C1F4AC
:1054500024E12093C701011741F420917A0030E044
:10546000220F331F2A563F4F07C020917E0030E0A5
:10547000220F331F2C593F4F30934802209347028D
:105480009C01359527952093C9012115310531F4EB
:1054900010924802109247021092C701009799F0AB
:1054A0002091E203013021F42E7F2093E20306C015
:1054B00021602093E203909581959F4F9093C401C2
:1054C0008093C30104C01092C4011092C30180E014
:1054D0000E94B00A8091C5019091C601412F5527C5
:1054E00047FD5095C49F9001C59F300DD49F300D4E
:1054F00011248217930709F453C02091C801222375
:1055000051F0209741F097FF02C08FEF01C081E07A
:10551000811709F445C08091CA018823C1F484E150
:105520008093C801011741F480917C0090E0880FBE
:10553000991F8A569F4F07C08091800090E0880F86
:10554000991F8C599F4F9093460280934502CE013C
:10555000959587958093CA01009731F41092460281
:10556000109245021092C801209799F02091E20311
:10557000113021F42D7F2093E20306C02260209396
:10558000E203D095C195DF4FD093C601C093C5010A
:1055900004C01092C6011092C50181E00E94B00AB9
:1055A0008091CB018823B9F42FB7F8948091E90357
:1055B0009091EA032FBF2091CC013091CD01AC0135
:1055C000421B530B9A015DED233F350720F1909369
:1055D000CD018093CC011091CB01C12FD0E0FE0111
:1055E000EE0FFF1FE658FF4F0081CF58DD4FCE0171
:1055F0000E949028801741F0DFBBCEBB0DBB0FB6D9
:10560000F894E29AE19A0FBE1F5F1093CB01143019
:1056100011F41092CB01DF91CF911F910F9108955A
:1056200081E792E00E949028843B18F480937A00EE
:1056300002C010927A0083E792E00E9490288D3C8D
:1056400018F480937E0002C010927E0082E792E000
:105650000E949028843B18F480937C0002C0109232
:105660007C0084E792E00E9490288D3C18F480939F
:10567000800002C0109280000E94890A0895813043
:1056800051F4662341F0673018F06F3018F403C00E
:1056900067E001C06EE00E94D40A0895CF93DF93C3
:1056A000EC01009769F0198218828C81882341F4FB
:1056B0008A819B81009721F00E9409361B821A8201
:1056C000DF91CF910895CF93DF93C8EDD1E0198298
:1056D00018828C81882341F48A819B81009721F074
:1056E0000E9409361B821A82299681E0CC3FD80796
:1056F00071F7DF91CF910895E8EDF1E020813181DC
:105700002817390739F0399621E0EC3FF207B1F755
:10571000E0E0F0E0CF010895BF92CF92DF92EF92E8
:10572000FF920F931F93CF93DF93EC018B01B42E65
:10573000009709F459C0413408F056C02B2D30E0D1
:1057400069010894C108D1082C213D21211531059A
:1057500009F04AC00E947C2BFC01009739F020859B
:1057600030E02C153D05E1F10E944E2B38EDE32E83
:1057700031E0F32EF70180819181009719F5D183F3
:10578000C0838B2D815080870115110569F48B2D05
:1057900090E0880F991F880F991F0E946F35F701BD
:1057A00082839383148205C0F7011383028381E00F
:1057B0008483F70182819381009771F4C7010E946D
:1057C0004E2B12C089E090E0E80EF91E9CEFE9161E
:1057D00091E0F90679F608C0E114F10429F0F70127
:1057E00015821682178202C0E0E0F0E0CF01DF915F
:1057F000CF911F910F91FF90EF90DF90CF90BF90CE
:105800000895885D914069E070E00E942635862FFA
:105810000895843060F490E09C0143E0220F331F30
:105820004A95E1F7280F391F28523E4F02C020E069
:1058300030E0C9010895FC01009719F01582168225
:1058400017820895FC010097F1F0828193810097FF
:10585000D1F0308527813217C0F0268121502323D3
:10586000A22FB0E0AA0FBB1FAA0FBB1FA80FB91F22
:105870004D935D936D937C931397268387818F5F00
:10588000878381E0089580E0089580E00895FC0119
:10589000009701F1828193810097E1F037812085A3
:1058A0002317D0F02581A22FB0E0AA0FBB1FAA0FAB
:1058B000BB1FA80FB91F4D935D936D937C931397F6
:1058C000822F8F5F90858923858387818F5F878370
:1058D00081E0089580E0089580E00895FC0100973C
:1058E000F9F087818823F1F0815087838581815089
:1058F00090858923858390E0880F991F880F991FD1
:105900000280F381E02DE80FF91F80819181A2814F
:10591000B381FB0180839183A283B38381E00895E7
:1059200080E0089580E00895FC01009701F18781EF
:105930008823F9F081508783868190E0880F991F32
:10594000880F991FA281B381A80FB91F2D913D9196
:105950004D915C91DB012D933D934D935C93139797
:1059600086818F5F90858923868381E0089580E01A
:10597000089580E00895FC010097E1F087814817C1
:10598000D8F48581841B9085892390E0880F991F26
:10599000880F991F0280F381E02DE80FF91F8081A5
:1059A0009181A281B381FB0180839183A283B38320
:1059B00081E0089580E0089580E00895E199FECFA8
:1059C0009FBB8EBBE09A8DB308958F929F92AF924A
:1059D000BF92CF92DF92EF92FF920F931F93DF93CC
:1059E000CF9300D0CDB7DEB76C018B014A017901AE
:1059F0008DEA92E00E94DE2C282F30E022503E4FAC
:105A00002E153F0524F0F594E794E81A02C0EE2421
:105A1000EA94C4010C960E94DE2C8E1538F08EE0BC
:105A200090E0880E991E3EE027E002C037E020E0BB
:105A3000AA240FC0C40129833A830E94DE2CA82E19
:105A400029813A818E1540F0E2E0F0E08E0E9F1E33
:105A50002F5F231778F305C0222319F484E690E022
:105A600030C0C40102970E94DE2CF82EC4010197B9
:105A70000E94DE2CB82EC40101960E94DE2CFA147E
:105A8000F1F0282F30E02B193109922F6F2D6A1970
:105A900080E070E00E942635FE182F2D30E0629FD6
:105AA000C001639F900D729F900D11248B2D890F63
:105AB0008A3828F495E0899FC001112402C083EE42
:105AC00093E0F60191838083F80180818095808343
:105AD0000F900F90CF91DF911F910F91FF90EF905A
